{
  "_format": "hh-sol-artifact-1",
  "contractName": "ERC1155Mock",
  "sourceName": "contracts/mocks/ERC1155Mock.sol",
  "abi": [
    {
      "inputs": [
        {
          "internalType": "string",
          "name": "uri_",
          "type": "string"
        }
      ],
      "stateMutability": "nonpayable",
      "type": "constructor"
    },
    {
      "anonymous": false,
      "inputs": [
        {
          "indexed": true,
          "internalType": "address",
          "name": "account",
          "type": "address"
        },
        {
          "indexed": true,
          "internalType": "address",
          "name": "operator",
          "type": "address"
        },
        {
          "indexed": false,
          "internalType": "bool",
          "name": "approved",
          "type": "bool"
        }
      ],
      "name": "ApprovalForAll",
      "type": "event"
    },
    {
      "anonymous": false,
      "inputs": [
        {
          "indexed": true,
          "internalType": "address",
          "name": "operator",
          "type": "address"
        },
        {
          "indexed": true,
          "internalType": "address",
          "name": "from",
          "type": "address"
        },
        {
          "indexed": true,
          "internalType": "address",
          "name": "to",
          "type": "address"
        },
        {
          "indexed": false,
          "internalType": "uint256[]",
          "name": "ids",
          "type": "uint256[]"
        },
        {
          "indexed": false,
          "internalType": "uint256[]",
          "name": "values",
          "type": "uint256[]"
        }
      ],
      "name": "TransferBatch",
      "type": "event"
    },
    {
      "anonymous": false,
      "inputs": [
        {
          "indexed": true,
          "internalType": "address",
          "name": "operator",
          "type": "address"
        },
        {
          "indexed": true,
          "internalType": "address",
          "name": "from",
          "type": "address"
        },
        {
          "indexed": true,
          "internalType": "address",
          "name": "to",
          "type": "address"
        },
        {
          "indexed": false,
          "internalType": "uint256",
          "name": "id",
          "type": "uint256"
        },
        {
          "indexed": false,
          "internalType": "uint256",
          "name": "value",
          "type": "uint256"
        }
      ],
      "name": "TransferSingle",
      "type": "event"
    },
    {
      "anonymous": false,
      "inputs": [
        {
          "indexed": false,
          "internalType": "string",
          "name": "value",
          "type": "string"
        },
        {
          "indexed": true,
          "internalType": "uint256",
          "name": "id",
          "type": "uint256"
        }
      ],
      "name": "URI",
      "type": "event"
    },
    {
      "inputs": [
        {
          "internalType": "address",
          "name": "account",
          "type": "address"
        },
        {
          "internalType": "uint256",
          "name": "id",
          "type": "uint256"
        }
      ],
      "name": "balanceOf",
      "outputs": [
        {
          "internalType": "uint256",
          "name": "",
          "type": "uint256"
        }
      ],
      "stateMutability": "view",
      "type": "function"
    },
    {
      "inputs": [
        {
          "internalType": "address[]",
          "name": "accounts",
          "type": "address[]"
        },
        {
          "internalType": "uint256[]",
          "name": "ids",
          "type": "uint256[]"
        }
      ],
      "name": "balanceOfBatch",
      "outputs": [
        {
          "internalType": "uint256[]",
          "name": "",
          "type": "uint256[]"
        }
      ],
      "stateMutability": "view",
      "type": "function"
    },
    {
      "inputs": [
        {
          "internalType": "address",
          "name": "account",
          "type": "address"
        },
        {
          "internalType": "address",
          "name": "operator",
          "type": "address"
        }
      ],
      "name": "isApprovedForAll",
      "outputs": [
        {
          "internalType": "bool",
          "name": "",
          "type": "bool"
        }
      ],
      "stateMutability": "view",
      "type": "function"
    },
    {
      "inputs": [
        {
          "internalType": "address",
          "name": "_to",
          "type": "address"
        },
        {
          "internalType": "uint256",
          "name": "_tokenId",
          "type": "uint256"
        },
        {
          "internalType": "uint256",
          "name": "_amount",
          "type": "uint256"
        }
      ],
      "name": "mint",
      "outputs": [],
      "stateMutability": "nonpayable",
      "type": "function"
    },
    {
      "inputs": [
        {
          "internalType": "address",
          "name": "_to",
          "type": "address"
        },
        {
          "internalType": "uint256[]",
          "name": "_tokenIds",
          "type": "uint256[]"
        },
        {
          "internalType": "uint256[]",
          "name": "_amounts",
          "type": "uint256[]"
        }
      ],
      "name": "mintBatch",
      "outputs": [],
      "stateMutability": "nonpayable",
      "type": "function"
    },
    {
      "inputs": [
        {
          "internalType": "address",
          "name": "from",
          "type": "address"
        },
        {
          "internalType": "address",
          "name": "to",
          "type": "address"
        },
        {
          "internalType": "uint256[]",
          "name": "ids",
          "type": "uint256[]"
        },
        {
          "internalType": "uint256[]",
          "name": "amounts",
          "type": "uint256[]"
        },
        {
          "internalType": "bytes",
          "name": "data",
          "type": "bytes"
        }
      ],
      "name": "safeBatchTransferFrom",
      "outputs": [],
      "stateMutability": "nonpayable",
      "type": "function"
    },
    {
      "inputs": [
        {
          "internalType": "address",
          "name": "from",
          "type": "address"
        },
        {
          "internalType": "address",
          "name": "to",
          "type": "address"
        },
        {
          "internalType": "uint256",
          "name": "id",
          "type": "uint256"
        },
        {
          "internalType": "uint256",
          "name": "amount",
          "type": "uint256"
        },
        {
          "internalType": "bytes",
          "name": "data",
          "type": "bytes"
        }
      ],
      "name": "safeTransferFrom",
      "outputs": [],
      "stateMutability": "nonpayable",
      "type": "function"
    },
    {
      "inputs": [
        {
          "internalType": "address",
          "name": "operator",
          "type": "address"
        },
        {
          "internalType": "bool",
          "name": "approved",
          "type": "bool"
        }
      ],
      "name": "setApprovalForAll",
      "outputs": [],
      "stateMutability": "nonpayable",
      "type": "function"
    },
    {
      "inputs": [
        {
          "internalType": "bytes4",
          "name": "interfaceId",
          "type": "bytes4"
        }
      ],
      "name": "supportsInterface",
      "outputs": [
        {
          "internalType": "bool",
          "name": "",
          "type": "bool"
        }
      ],
      "stateMutability": "view",
      "type": "function"
    },
    {
      "inputs": [
        {
          "internalType": "address",
          "name": "_to",
          "type": "address"
        },
        {
          "internalType": "uint256",
          "name": "_tokenId",
          "type": "uint256"
        },
        {
          "internalType": "uint256",
          "name": "_amount",
          "type": "uint256"
        }
      ],
      "name": "transfer",
      "outputs": [],
      "stateMutability": "nonpayable",
      "type": "function"
    },
    {
      "inputs": [
        {
          "internalType": "uint256",
          "name": "",
          "type": "uint256"
        }
      ],
      "name": "uri",
      "outputs": [
        {
          "internalType": "string",
          "name": "",
          "type": "string"
        }
      ],
      "stateMutability": "view",
      "type": "function"
    }
  ],
  "bytecode": "0x60806040523480156200001157600080fd5b5060405162001a1a38038062001a1a833981016040819052620000349162000107565b80620000408162000048565b505062000230565b80516200005d90600290602084019062000061565b5050565b8280546200006f90620001dd565b90600052602060002090601f016020900481019282620000935760008555620000de565b82601f10620000ae57805160ff1916838001178555620000de565b82800160010185558215620000de579182015b82811115620000de578251825591602001919060010190620000c1565b50620000ec929150620000f0565b5090565b5b80821115620000ec5760008155600101620000f1565b600060208083850312156200011a578182fd5b82516001600160401b038082111562000131578384fd5b818501915085601f83011262000145578384fd5b8151818111156200015a576200015a6200021a565b604051601f8201601f19908116603f011681019083821181831017156200018557620001856200021a565b8160405282815288868487010111156200019d578687fd5b8693505b82841015620001c05784840186015181850187015292850192620001a1565b82841115620001d157868684830101525b98975050505050505050565b600181811c90821680620001f257607f821691505b602082108114156200021457634e487b7160e01b600052602260045260246000fd5b50919050565b634e487b7160e01b600052604160045260246000fd5b6117da80620002406000396000f3fe608060405234801561001057600080fd5b50600436106100a85760003560e01c80632eb2c2d6116100715780632eb2c2d61461013e5780634e1273f414610151578063a22cb46514610171578063d81d0a1514610184578063e985e9c514610197578063f242432a146101d357600080fd5b8062fdd58e146100ad57806301ffc9a7146100d3578063095bcdb6146100f65780630e89341c1461010b578063156e29f61461012b575b600080fd5b6100c06100bb3660046111a5565b6101e6565b6040519081526020015b60405180910390f35b6100e66100e13660046112cb565b61027d565b60405190151581526020016100ca565b6101096101043660046111ce565b6102cf565b005b61011e61011936600461130a565b6102f0565b6040516100ca919061148b565b6101096101393660046111ce565b610384565b61010961014c366004610ff1565b61039f565b61016461015f366004611200565b610436565b6040516100ca919061144a565b61010961017f36600461116b565b610598565b6101096101923660046110fa565b6105a7565b6100e66101a5366004610fbf565b6001600160a01b03918216600090815260016020908152604080832093909416825291909152205460ff1690565b6101096101e1366004611097565b6105c2565b60006001600160a01b0383166102575760405162461bcd60e51b815260206004820152602b60248201527f455243313135353a2062616c616e636520717565727920666f7220746865207a60448201526a65726f206164647265737360a81b60648201526084015b60405180910390fd5b506000908152602081815260408083206001600160a01b03949094168352929052205490565b60006001600160e01b03198216636cdb3d1360e11b14806102ae57506001600160e01b031982166303a24d0760e21b145b806102c957506301ffc9a760e01b6001600160e01b03198316145b92915050565b6102eb3384848460405180602001604052806000815250610645565b505050565b6060600280546102ff9061163a565b80601f016020809104026020016040519081016040528092919081815260200182805461032b9061163a565b80156103785780601f1061034d57610100808354040283529160200191610378565b820191906000526020600020905b81548152906001019060200180831161035b57829003601f168201915b50505050509050919050565b6102eb8383836040518060200160405280600081525061076b565b6001600160a01b0385163314806103bb57506103bb85336101a5565b6104225760405162461bcd60e51b815260206004820152603260248201527f455243313135353a207472616e736665722063616c6c6572206973206e6f74206044820152711bdddb995c881b9bdc88185c1c1c9bdd995960721b606482015260840161024e565b61042f8585858585610832565b5050505050565b6060815183511461049b5760405162461bcd60e51b815260206004820152602960248201527f455243313135353a206163636f756e747320616e6420696473206c656e677468604482015268040dad2e6dac2e8c6d60bb1b606482015260840161024e565b6000835167ffffffffffffffff8111156104c557634e487b7160e01b600052604160045260246000fd5b6040519080825280602002602001820160405280156104ee578160200160208202803683370190505b50905060005b84518110156105905761055585828151811061052057634e487b7160e01b600052603260045260246000fd5b602002602001015185838151811061054857634e487b7160e01b600052603260045260246000fd5b60200260200101516101e6565b82828151811061057557634e487b7160e01b600052603260045260246000fd5b6020908102919091010152610589816116a2565b90506104f4565b509392505050565b6105a33383836109ea565b5050565b6102eb83838360405180602001604052806000815250610acb565b6001600160a01b0385163314806105de57506105de85336101a5565b61063c5760405162461bcd60e51b815260206004820152602960248201527f455243313135353a2063616c6c6572206973206e6f74206f776e6572206e6f7260448201526808185c1c1c9bdd995960ba1b606482015260840161024e565b61042f85858585855b6001600160a01b03841661066b5760405162461bcd60e51b815260040161024e906114e6565b3361068481878761067b88610c32565b61042f88610c32565b6000848152602081815260408083206001600160a01b038a168452909152902054838110156106c55760405162461bcd60e51b815260040161024e9061152b565b6000858152602081815260408083206001600160a01b038b8116855292528083208785039055908816825281208054869290610702908490611622565b909155505060408051868152602081018690526001600160a01b03808916928a821692918616917fc3d58168c5ae7397731d063d5bbf3d657854427343f4c083240f7aacaa2d0f62910160405180910390a4610762828888888888610c8b565b50505050505050565b6001600160a01b0384166107915760405162461bcd60e51b815260040161024e906115bd565b336107a28160008761067b88610c32565b6000848152602081815260408083206001600160a01b0389168452909152812080548592906107d2908490611622565b909155505060408051858152602081018590526001600160a01b0380881692600092918516917fc3d58168c5ae7397731d063d5bbf3d657854427343f4c083240f7aacaa2d0f62910160405180910390a461042f81600087878787610c8b565b81518351146108535760405162461bcd60e51b815260040161024e90611575565b6001600160a01b0384166108795760405162461bcd60e51b815260040161024e906114e6565b3360005b845181101561097c5760008582815181106108a857634e487b7160e01b600052603260045260246000fd5b6020026020010151905060008583815181106108d457634e487b7160e01b600052603260045260246000fd5b602090810291909101810151600084815280835260408082206001600160a01b038e1683529093529190912054909150818110156109245760405162461bcd60e51b815260040161024e9061152b565b6000838152602081815260408083206001600160a01b038e8116855292528083208585039055908b16825281208054849290610961908490611622565b9250508190555050505080610975906116a2565b905061087d565b50846001600160a01b0316866001600160a01b0316826001600160a01b03167f4a39dc06d4c0dbc64b70af90fd698a233a518aa5d07e595d983b8c0526c8f7fb87876040516109cc92919061145d565b60405180910390a46109e2818787878787610df6565b505050505050565b816001600160a01b0316836001600160a01b03161415610a5e5760405162461bcd60e51b815260206004820152602960248201527f455243313135353a2073657474696e6720617070726f76616c20737461747573604482015268103337b91039b2b63360b91b606482015260840161024e565b6001600160a01b03838116600081815260016020908152604080832094871680845294825291829020805460ff191686151590811790915591519182527f17307eab39ab6107e8899845ad3d59bd9653f200f220920489ca2b5937696c31910160405180910390a3505050565b6001600160a01b038416610af15760405162461bcd60e51b815260040161024e906115bd565b8151835114610b125760405162461bcd60e51b815260040161024e90611575565b3360005b8451811015610bca57838181518110610b3f57634e487b7160e01b600052603260045260246000fd5b6020026020010151600080878481518110610b6a57634e487b7160e01b600052603260045260246000fd5b602002602001015181526020019081526020016000206000886001600160a01b03166001600160a01b031681526020019081526020016000206000828254610bb29190611622565b90915550819050610bc2816116a2565b915050610b16565b50846001600160a01b031660006001600160a01b0316826001600160a01b03167f4a39dc06d4c0dbc64b70af90fd698a233a518aa5d07e595d983b8c0526c8f7fb8787604051610c1b92919061145d565b60405180910390a461042f81600087878787610df6565b60408051600180825281830190925260609160009190602080830190803683370190505090508281600081518110610c7a57634e487b7160e01b600052603260045260246000fd5b602090810291909101015292915050565b6001600160a01b0384163b156109e25760405163f23a6e6160e01b81526001600160a01b0385169063f23a6e6190610ccf9089908990889088908890600401611405565b602060405180830381600087803b158015610ce957600080fd5b505af1925050508015610d19575060408051601f3d908101601f19168201909252610d16918101906112ee565b60015b610dc657610d256116e9565b806308c379a01415610d5f5750610d3a611701565b80610d455750610d61565b8060405162461bcd60e51b815260040161024e919061148b565b505b60405162461bcd60e51b815260206004820152603460248201527f455243313135353a207472616e7366657220746f206e6f6e20455243313135356044820152732932b1b2b4bb32b91034b6b83632b6b2b73a32b960611b606482015260840161024e565b6001600160e01b0319811663f23a6e6160e01b146107625760405162461bcd60e51b815260040161024e9061149e565b6001600160a01b0384163b156109e25760405163bc197c8160e01b81526001600160a01b0385169063bc197c8190610e3a90899089908890889088906004016113a7565b602060405180830381600087803b158015610e5457600080fd5b505af1925050508015610e84575060408051601f3d908101601f19168201909252610e81918101906112ee565b60015b610e9057610d256116e9565b6001600160e01b0319811663bc197c8160e01b146107625760405162461bcd60e51b815260040161024e9061149e565b80356001600160a01b0381168114610ed757600080fd5b919050565b600082601f830112610eec578081fd5b81356020610ef9826115fe565b604051610f068282611675565b8381528281019150858301600585901b87018401881015610f25578586fd5b855b85811015610f4357813584529284019290840190600101610f27565b5090979650505050505050565b600082601f830112610f60578081fd5b813567ffffffffffffffff811115610f7a57610f7a6116d3565b604051610f91601f8301601f191660200182611675565b818152846020838601011115610fa5578283fd5b816020850160208301379081016020019190915292915050565b60008060408385031215610fd1578182fd5b610fda83610ec0565b9150610fe860208401610ec0565b90509250929050565b600080600080600060a08688031215611008578081fd5b61101186610ec0565b945061101f60208701610ec0565b9350604086013567ffffffffffffffff8082111561103b578283fd5b61104789838a01610edc565b9450606088013591508082111561105c578283fd5b61106889838a01610edc565b9350608088013591508082111561107d578283fd5b5061108a88828901610f50565b9150509295509295909350565b600080600080600060a086880312156110ae578081fd5b6110b786610ec0565b94506110c560208701610ec0565b93506040860135925060608601359150608086013567ffffffffffffffff8111156110ee578182fd5b61108a88828901610f50565b60008060006060848603121561110e578283fd5b61111784610ec0565b9250602084013567ffffffffffffffff80821115611133578384fd5b61113f87838801610edc565b93506040860135915080821115611154578283fd5b5061116186828701610edc565b9150509250925092565b6000806040838503121561117d578182fd5b61118683610ec0565b91506020830135801515811461119a578182fd5b809150509250929050565b600080604083850312156111b7578182fd5b6111c083610ec0565b946020939093013593505050565b6000806000606084860312156111e2578283fd5b6111eb84610ec0565b95602085013595506040909401359392505050565b60008060408385031215611212578182fd5b823567ffffffffffffffff80821115611229578384fd5b818501915085601f83011261123c578384fd5b81356020611249826115fe565b6040516112568282611675565b8381528281019150858301600585901b870184018b1015611275578889fd5b8896505b8487101561129e5761128a81610ec0565b835260019690960195918301918301611279565b50965050860135925050808211156112b4578283fd5b506112c185828601610edc565b9150509250929050565b6000602082840312156112dc578081fd5b81356112e78161178b565b9392505050565b6000602082840312156112ff578081fd5b81516112e78161178b565b60006020828403121561131b578081fd5b5035919050565b6000815180845260208085019450808401835b8381101561135157815187529582019590820190600101611335565b509495945050505050565b60008151808452815b8181101561138157602081850181015186830182015201611365565b818111156113925782602083870101525b50601f01601f19169290920160200192915050565b6001600160a01b0386811682528516602082015260a0604082018190526000906113d390830186611322565b82810360608401526113e58186611322565b905082810360808401526113f9818561135c565b98975050505050505050565b6001600160a01b03868116825285166020820152604081018490526060810183905260a06080820181905260009061143f9083018461135c565b979650505050505050565b6020815260006112e76020830184611322565b6040815260006114706040830185611322565b82810360208401526114828185611322565b95945050505050565b6020815260006112e7602083018461135c565b60208082526028908201527f455243313135353a204552433131353552656365697665722072656a656374656040820152676420746f6b656e7360c01b606082015260800190565b60208082526025908201527f455243313135353a207472616e7366657220746f20746865207a65726f206164604082015264647265737360d81b606082015260800190565b6020808252602a908201527f455243313135353a20696e73756666696369656e742062616c616e636520666f60408201526939103a3930b739b332b960b11b606082015260800190565b60208082526028908201527f455243313135353a2069647320616e6420616d6f756e7473206c656e677468206040820152670dad2e6dac2e8c6d60c31b606082015260800190565b60208082526021908201527f455243313135353a206d696e7420746f20746865207a65726f206164647265736040820152607360f81b606082015260800190565b600067ffffffffffffffff821115611618576116186116d3565b5060051b60200190565b60008219821115611635576116356116bd565b500190565b600181811c9082168061164e57607f821691505b6020821081141561166f57634e487b7160e01b600052602260045260246000fd5b50919050565b601f8201601f1916810167ffffffffffffffff8111828210171561169b5761169b6116d3565b6040525050565b60006000198214156116b6576116b66116bd565b5060010190565b634e487b7160e01b600052601160045260246000fd5b634e487b7160e01b600052604160045260246000fd5b600060033d11156116fe57600481823e5160e01c5b90565b600060443d101561170f5790565b6040516003193d81016004833e81513d67ffffffffffffffff816024840111818411171561173f57505050505090565b82850191508151818111156117575750505050505090565b843d87010160208285010111156117715750505050505090565b61178060208286010187611675565b509095945050505050565b6001600160e01b0319811681146117a157600080fd5b5056fea26469706673582212204f95c3d98d855a80010b2f37e78b2d2655dfd3f565eb9674c45f2ca45204dc7164736f6c63430008040033",
  "linkReferences": {},
  "deployedLinkReferences": {}
}