{
  "_format": "hh-sol-artifact-1",
  "contractName": "ONFT1155",
  "sourceName": "contracts/token/onft/ONFT1155.sol",
  "abi": [
    {
      "inputs": [
        {
          "internalType": "string",
          "name": "_uri",
          "type": "string"
        },
        {
          "internalType": "address",
          "name": "_lzEndpoint",
          "type": "address"
        }
      ],
      "stateMutability": "nonpayable",
      "type": "constructor"
    },
    {
      "anonymous": false,
      "inputs": [
        {
          "indexed": true,
          "internalType": "address",
          "name": "account",
          "type": "address"
        },
        {
          "indexed": true,
          "internalType": "address",
          "name": "operator",
          "type": "address"
        },
        {
          "indexed": false,
          "internalType": "bool",
          "name": "approved",
          "type": "bool"
        }
      ],
      "name": "ApprovalForAll",
      "type": "event"
    },
    {
      "anonymous": false,
      "inputs": [
        {
          "indexed": false,
          "internalType": "uint16",
          "name": "_srcChainId",
          "type": "uint16"
        },
        {
          "indexed": false,
          "internalType": "bytes",
          "name": "_srcAddress",
          "type": "bytes"
        },
        {
          "indexed": false,
          "internalType": "uint64",
          "name": "_nonce",
          "type": "uint64"
        },
        {
          "indexed": false,
          "internalType": "bytes",
          "name": "_payload",
          "type": "bytes"
        }
      ],
      "name": "MessageFailed",
      "type": "event"
    },
    {
      "anonymous": false,
      "inputs": [
        {
          "indexed": true,
          "internalType": "address",
          "name": "previousOwner",
          "type": "address"
        },
        {
          "indexed": true,
          "internalType": "address",
          "name": "newOwner",
          "type": "address"
        }
      ],
      "name": "OwnershipTransferred",
      "type": "event"
    },
    {
      "anonymous": false,
      "inputs": [
        {
          "indexed": true,
          "internalType": "uint16",
          "name": "_srcChainId",
          "type": "uint16"
        },
        {
          "indexed": true,
          "internalType": "bytes",
          "name": "_srcAddress",
          "type": "bytes"
        },
        {
          "indexed": true,
          "internalType": "address",
          "name": "_toAddress",
          "type": "address"
        },
        {
          "indexed": false,
          "internalType": "uint256[]",
          "name": "_tokenIds",
          "type": "uint256[]"
        },
        {
          "indexed": false,
          "internalType": "uint256[]",
          "name": "_amounts",
          "type": "uint256[]"
        },
        {
          "indexed": false,
          "internalType": "uint64",
          "name": "_nonce",
          "type": "uint64"
        }
      ],
      "name": "ReceiveBatchFromChain",
      "type": "event"
    },
    {
      "anonymous": false,
      "inputs": [
        {
          "indexed": true,
          "internalType": "uint16",
          "name": "_srcChainId",
          "type": "uint16"
        },
        {
          "indexed": true,
          "internalType": "bytes",
          "name": "_srcAddress",
          "type": "bytes"
        },
        {
          "indexed": true,
          "internalType": "address",
          "name": "_toAddress",
          "type": "address"
        },
        {
          "indexed": false,
          "internalType": "uint256",
          "name": "_tokenId",
          "type": "uint256"
        },
        {
          "indexed": false,
          "internalType": "uint256",
          "name": "_amount",
          "type": "uint256"
        },
        {
          "indexed": false,
          "internalType": "uint64",
          "name": "_nonce",
          "type": "uint64"
        }
      ],
      "name": "ReceiveFromChain",
      "type": "event"
    },
    {
      "anonymous": false,
      "inputs": [
        {
          "indexed": true,
          "internalType": "address",
          "name": "_sender",
          "type": "address"
        },
        {
          "indexed": true,
          "internalType": "uint16",
          "name": "_dstChainId",
          "type": "uint16"
        },
        {
          "indexed": true,
          "internalType": "bytes",
          "name": "_toAddress",
          "type": "bytes"
        },
        {
          "indexed": false,
          "internalType": "uint256[]",
          "name": "_tokenIds",
          "type": "uint256[]"
        },
        {
          "indexed": false,
          "internalType": "uint256[]",
          "name": "_amounts",
          "type": "uint256[]"
        },
        {
          "indexed": false,
          "internalType": "uint64",
          "name": "_nonce",
          "type": "uint64"
        }
      ],
      "name": "SendBatchToChain",
      "type": "event"
    },
    {
      "anonymous": false,
      "inputs": [
        {
          "indexed": true,
          "internalType": "address",
          "name": "_sender",
          "type": "address"
        },
        {
          "indexed": true,
          "internalType": "uint16",
          "name": "_dstChainId",
          "type": "uint16"
        },
        {
          "indexed": true,
          "internalType": "bytes",
          "name": "_toAddress",
          "type": "bytes"
        },
        {
          "indexed": false,
          "internalType": "uint256",
          "name": "_tokenId",
          "type": "uint256"
        },
        {
          "indexed": false,
          "internalType": "uint256",
          "name": "_amount",
          "type": "uint256"
        },
        {
          "indexed": false,
          "internalType": "uint64",
          "name": "_nonce",
          "type": "uint64"
        }
      ],
      "name": "SendToChain",
      "type": "event"
    },
    {
      "anonymous": false,
      "inputs": [
        {
          "indexed": false,
          "internalType": "uint16",
          "name": "_srcChainId",
          "type": "uint16"
        },
        {
          "indexed": false,
          "internalType": "bytes",
          "name": "_srcAddress",
          "type": "bytes"
        }
      ],
      "name": "SetTrustedRemote",
      "type": "event"
    },
    {
      "anonymous": false,
      "inputs": [
        {
          "indexed": true,
          "internalType": "address",
          "name": "operator",
          "type": "address"
        },
        {
          "indexed": true,
          "internalType": "address",
          "name": "from",
          "type": "address"
        },
        {
          "indexed": true,
          "internalType": "address",
          "name": "to",
          "type": "address"
        },
        {
          "indexed": false,
          "internalType": "uint256[]",
          "name": "ids",
          "type": "uint256[]"
        },
        {
          "indexed": false,
          "internalType": "uint256[]",
          "name": "values",
          "type": "uint256[]"
        }
      ],
      "name": "TransferBatch",
      "type": "event"
    },
    {
      "anonymous": false,
      "inputs": [
        {
          "indexed": true,
          "internalType": "address",
          "name": "operator",
          "type": "address"
        },
        {
          "indexed": true,
          "internalType": "address",
          "name": "from",
          "type": "address"
        },
        {
          "indexed": true,
          "internalType": "address",
          "name": "to",
          "type": "address"
        },
        {
          "indexed": false,
          "internalType": "uint256",
          "name": "id",
          "type": "uint256"
        },
        {
          "indexed": false,
          "internalType": "uint256",
          "name": "value",
          "type": "uint256"
        }
      ],
      "name": "TransferSingle",
      "type": "event"
    },
    {
      "anonymous": false,
      "inputs": [
        {
          "indexed": false,
          "internalType": "string",
          "name": "value",
          "type": "string"
        },
        {
          "indexed": true,
          "internalType": "uint256",
          "name": "id",
          "type": "uint256"
        }
      ],
      "name": "URI",
      "type": "event"
    },
    {
      "inputs": [
        {
          "internalType": "address",
          "name": "account",
          "type": "address"
        },
        {
          "internalType": "uint256",
          "name": "id",
          "type": "uint256"
        }
      ],
      "name": "balanceOf",
      "outputs": [
        {
          "internalType": "uint256",
          "name": "",
          "type": "uint256"
        }
      ],
      "stateMutability": "view",
      "type": "function"
    },
    {
      "inputs": [
        {
          "internalType": "address[]",
          "name": "accounts",
          "type": "address[]"
        },
        {
          "internalType": "uint256[]",
          "name": "ids",
          "type": "uint256[]"
        }
      ],
      "name": "balanceOfBatch",
      "outputs": [
        {
          "internalType": "uint256[]",
          "name": "",
          "type": "uint256[]"
        }
      ],
      "stateMutability": "view",
      "type": "function"
    },
    {
      "inputs": [
        {
          "internalType": "uint16",
          "name": "_dstChainId",
          "type": "uint16"
        },
        {
          "internalType": "bytes",
          "name": "_toAddress",
          "type": "bytes"
        },
        {
          "internalType": "uint256[]",
          "name": "_tokenIds",
          "type": "uint256[]"
        },
        {
          "internalType": "uint256[]",
          "name": "_amounts",
          "type": "uint256[]"
        },
        {
          "internalType": "bool",
          "name": "_useZro",
          "type": "bool"
        },
        {
          "internalType": "bytes",
          "name": "_adapterParams",
          "type": "bytes"
        }
      ],
      "name": "estimateSendBatchFee",
      "outputs": [
        {
          "internalType": "uint256",
          "name": "nativeFee",
          "type": "uint256"
        },
        {
          "internalType": "uint256",
          "name": "zroFee",
          "type": "uint256"
        }
      ],
      "stateMutability": "view",
      "type": "function"
    },
    {
      "inputs": [
        {
          "internalType": "uint16",
          "name": "_dstChainId",
          "type": "uint16"
        },
        {
          "internalType": "bytes",
          "name": "_toAddress",
          "type": "bytes"
        },
        {
          "internalType": "uint256",
          "name": "_tokenId",
          "type": "uint256"
        },
        {
          "internalType": "uint256",
          "name": "_amount",
          "type": "uint256"
        },
        {
          "internalType": "bool",
          "name": "_useZro",
          "type": "bool"
        },
        {
          "internalType": "bytes",
          "name": "_adapterParams",
          "type": "bytes"
        }
      ],
      "name": "estimateSendFee",
      "outputs": [
        {
          "internalType": "uint256",
          "name": "nativeFee",
          "type": "uint256"
        },
        {
          "internalType": "uint256",
          "name": "zroFee",
          "type": "uint256"
        }
      ],
      "stateMutability": "view",
      "type": "function"
    },
    {
      "inputs": [
        {
          "internalType": "uint16",
          "name": "",
          "type": "uint16"
        },
        {
          "internalType": "bytes",
          "name": "",
          "type": "bytes"
        },
        {
          "internalType": "uint64",
          "name": "",
          "type": "uint64"
        }
      ],
      "name": "failedMessages",
      "outputs": [
        {
          "internalType": "bytes32",
          "name": "",
          "type": "bytes32"
        }
      ],
      "stateMutability": "view",
      "type": "function"
    },
    {
      "inputs": [
        {
          "internalType": "uint16",
          "name": "_srcChainId",
          "type": "uint16"
        },
        {
          "internalType": "bytes",
          "name": "_srcAddress",
          "type": "bytes"
        }
      ],
      "name": "forceResumeReceive",
      "outputs": [],
      "stateMutability": "nonpayable",
      "type": "function"
    },
    {
      "inputs": [
        {
          "internalType": "uint16",
          "name": "_version",
          "type": "uint16"
        },
        {
          "internalType": "uint16",
          "name": "_chainId",
          "type": "uint16"
        },
        {
          "internalType": "address",
          "name": "",
          "type": "address"
        },
        {
          "internalType": "uint256",
          "name": "_configType",
          "type": "uint256"
        }
      ],
      "name": "getConfig",
      "outputs": [
        {
          "internalType": "bytes",
          "name": "",
          "type": "bytes"
        }
      ],
      "stateMutability": "view",
      "type": "function"
    },
    {
      "inputs": [
        {
          "internalType": "address",
          "name": "account",
          "type": "address"
        },
        {
          "internalType": "address",
          "name": "operator",
          "type": "address"
        }
      ],
      "name": "isApprovedForAll",
      "outputs": [
        {
          "internalType": "bool",
          "name": "",
          "type": "bool"
        }
      ],
      "stateMutability": "view",
      "type": "function"
    },
    {
      "inputs": [
        {
          "internalType": "uint16",
          "name": "_srcChainId",
          "type": "uint16"
        },
        {
          "internalType": "bytes",
          "name": "_srcAddress",
          "type": "bytes"
        }
      ],
      "name": "isTrustedRemote",
      "outputs": [
        {
          "internalType": "bool",
          "name": "",
          "type": "bool"
        }
      ],
      "stateMutability": "view",
      "type": "function"
    },
    {
      "inputs": [],
      "name": "lzEndpoint",
      "outputs": [
        {
          "internalType": "contract ILayerZeroEndpoint",
          "name": "",
          "type": "address"
        }
      ],
      "stateMutability": "view",
      "type": "function"
    },
    {
      "inputs": [
        {
          "internalType": "uint16",
          "name": "_srcChainId",
          "type": "uint16"
        },
        {
          "internalType": "bytes",
          "name": "_srcAddress",
          "type": "bytes"
        },
        {
          "internalType": "uint64",
          "name": "_nonce",
          "type": "uint64"
        },
        {
          "internalType": "bytes",
          "name": "_payload",
          "type": "bytes"
        }
      ],
      "name": "lzReceive",
      "outputs": [],
      "stateMutability": "nonpayable",
      "type": "function"
    },
    {
      "inputs": [
        {
          "internalType": "uint16",
          "name": "_srcChainId",
          "type": "uint16"
        },
        {
          "internalType": "bytes",
          "name": "_srcAddress",
          "type": "bytes"
        },
        {
          "internalType": "uint64",
          "name": "_nonce",
          "type": "uint64"
        },
        {
          "internalType": "bytes",
          "name": "_payload",
          "type": "bytes"
        }
      ],
      "name": "nonblockingLzReceive",
      "outputs": [],
      "stateMutability": "nonpayable",
      "type": "function"
    },
    {
      "inputs": [],
      "name": "owner",
      "outputs": [
        {
          "internalType": "address",
          "name": "",
          "type": "address"
        }
      ],
      "stateMutability": "view",
      "type": "function"
    },
    {
      "inputs": [],
      "name": "renounceOwnership",
      "outputs": [],
      "stateMutability": "nonpayable",
      "type": "function"
    },
    {
      "inputs": [
        {
          "internalType": "uint16",
          "name": "_srcChainId",
          "type": "uint16"
        },
        {
          "internalType": "bytes",
          "name": "_srcAddress",
          "type": "bytes"
        },
        {
          "internalType": "uint64",
          "name": "_nonce",
          "type": "uint64"
        },
        {
          "internalType": "bytes",
          "name": "_payload",
          "type": "bytes"
        }
      ],
      "name": "retryMessage",
      "outputs": [],
      "stateMutability": "payable",
      "type": "function"
    },
    {
      "inputs": [
        {
          "internalType": "address",
          "name": "from",
          "type": "address"
        },
        {
          "internalType": "address",
          "name": "to",
          "type": "address"
        },
        {
          "internalType": "uint256[]",
          "name": "ids",
          "type": "uint256[]"
        },
        {
          "internalType": "uint256[]",
          "name": "amounts",
          "type": "uint256[]"
        },
        {
          "internalType": "bytes",
          "name": "data",
          "type": "bytes"
        }
      ],
      "name": "safeBatchTransferFrom",
      "outputs": [],
      "stateMutability": "nonpayable",
      "type": "function"
    },
    {
      "inputs": [
        {
          "internalType": "address",
          "name": "from",
          "type": "address"
        },
        {
          "internalType": "address",
          "name": "to",
          "type": "address"
        },
        {
          "internalType": "uint256",
          "name": "id",
          "type": "uint256"
        },
        {
          "internalType": "uint256",
          "name": "amount",
          "type": "uint256"
        },
        {
          "internalType": "bytes",
          "name": "data",
          "type": "bytes"
        }
      ],
      "name": "safeTransferFrom",
      "outputs": [],
      "stateMutability": "nonpayable",
      "type": "function"
    },
    {
      "inputs": [
        {
          "internalType": "address",
          "name": "_from",
          "type": "address"
        },
        {
          "internalType": "uint16",
          "name": "_dstChainId",
          "type": "uint16"
        },
        {
          "internalType": "bytes",
          "name": "_toAddress",
          "type": "bytes"
        },
        {
          "internalType": "uint256[]",
          "name": "_tokenIds",
          "type": "uint256[]"
        },
        {
          "internalType": "uint256[]",
          "name": "_amounts",
          "type": "uint256[]"
        },
        {
          "internalType": "address payable",
          "name": "_refundAddress",
          "type": "address"
        },
        {
          "internalType": "address",
          "name": "_zroPaymentAddress",
          "type": "address"
        },
        {
          "internalType": "bytes",
          "name": "_adapterParams",
          "type": "bytes"
        }
      ],
      "name": "sendBatchFrom",
      "outputs": [],
      "stateMutability": "payable",
      "type": "function"
    },
    {
      "inputs": [
        {
          "internalType": "address",
          "name": "_from",
          "type": "address"
        },
        {
          "internalType": "uint16",
          "name": "_dstChainId",
          "type": "uint16"
        },
        {
          "internalType": "bytes",
          "name": "_toAddress",
          "type": "bytes"
        },
        {
          "internalType": "uint256",
          "name": "_tokenId",
          "type": "uint256"
        },
        {
          "internalType": "uint256",
          "name": "_amount",
          "type": "uint256"
        },
        {
          "internalType": "address payable",
          "name": "_refundAddress",
          "type": "address"
        },
        {
          "internalType": "address",
          "name": "_zroPaymentAddress",
          "type": "address"
        },
        {
          "internalType": "bytes",
          "name": "_adapterParams",
          "type": "bytes"
        }
      ],
      "name": "sendFrom",
      "outputs": [],
      "stateMutability": "payable",
      "type": "function"
    },
    {
      "inputs": [
        {
          "internalType": "address",
          "name": "operator",
          "type": "address"
        },
        {
          "internalType": "bool",
          "name": "approved",
          "type": "bool"
        }
      ],
      "name": "setApprovalForAll",
      "outputs": [],
      "stateMutability": "nonpayable",
      "type": "function"
    },
    {
      "inputs": [
        {
          "internalType": "uint16",
          "name": "_version",
          "type": "uint16"
        },
        {
          "internalType": "uint16",
          "name": "_chainId",
          "type": "uint16"
        },
        {
          "internalType": "uint256",
          "name": "_configType",
          "type": "uint256"
        },
        {
          "internalType": "bytes",
          "name": "_config",
          "type": "bytes"
        }
      ],
      "name": "setConfig",
      "outputs": [],
      "stateMutability": "nonpayable",
      "type": "function"
    },
    {
      "inputs": [
        {
          "internalType": "uint16",
          "name": "_version",
          "type": "uint16"
        }
      ],
      "name": "setReceiveVersion",
      "outputs": [],
      "stateMutability": "nonpayable",
      "type": "function"
    },
    {
      "inputs": [
        {
          "internalType": "uint16",
          "name": "_version",
          "type": "uint16"
        }
      ],
      "name": "setSendVersion",
      "outputs": [],
      "stateMutability": "nonpayable",
      "type": "function"
    },
    {
      "inputs": [
        {
          "internalType": "uint16",
          "name": "_srcChainId",
          "type": "uint16"
        },
        {
          "internalType": "bytes",
          "name": "_srcAddress",
          "type": "bytes"
        }
      ],
      "name": "setTrustedRemote",
      "outputs": [],
      "stateMutability": "nonpayable",
      "type": "function"
    },
    {
      "inputs": [
        {
          "internalType": "bytes4",
          "name": "interfaceId",
          "type": "bytes4"
        }
      ],
      "name": "supportsInterface",
      "outputs": [
        {
          "internalType": "bool",
          "name": "",
          "type": "bool"
        }
      ],
      "stateMutability": "view",
      "type": "function"
    },
    {
      "inputs": [
        {
          "internalType": "address",
          "name": "newOwner",
          "type": "address"
        }
      ],
      "name": "transferOwnership",
      "outputs": [],
      "stateMutability": "nonpayable",
      "type": "function"
    },
    {
      "inputs": [
        {
          "internalType": "uint16",
          "name": "",
          "type": "uint16"
        }
      ],
      "name": "trustedRemoteLookup",
      "outputs": [
        {
          "internalType": "bytes",
          "name": "",
          "type": "bytes"
        }
      ],
      "stateMutability": "view",
      "type": "function"
    },
    {
      "inputs": [
        {
          "internalType": "uint256",
          "name": "",
          "type": "uint256"
        }
      ],
      "name": "uri",
      "outputs": [
        {
          "internalType": "string",
          "name": "",
          "type": "string"
        }
      ],
      "stateMutability": "view",
      "type": "function"
    }
  ],
  "bytecode": "0x60a06040523480156200001157600080fd5b5060405162003b2538038062003b25833981016040819052620000349162000196565b8181808062000043336200006a565b60601b6001600160601b0319166080525062000061905081620000ba565b505050620002d4565b600080546001600160a01b038381166001600160a01b0319831681178455604051919092169283917f8be0079c531659141344cd1fd0a4f28419497f9722a3daafe3b4186f6b6457e09190a35050565b8051620000cf906005906020840190620000d3565b5050565b828054620000e19062000281565b90600052602060002090601f01602090048101928262000105576000855562000150565b82601f106200012057805160ff191683800117855562000150565b8280016001018555821562000150579182015b828111156200015057825182559160200191906001019062000133565b506200015e92915062000162565b5090565b5b808211156200015e576000815560010162000163565b80516001600160a01b03811681146200019157600080fd5b919050565b60008060408385031215620001a9578182fd5b82516001600160401b0380821115620001c0578384fd5b818501915085601f830112620001d4578384fd5b815181811115620001e957620001e9620002be565b604051601f8201601f19908116603f01168101908382118183101715620002145762000214620002be565b8160405282815260209350888484870101111562000230578687fd5b8691505b8282101562000253578482018401518183018501529083019062000234565b828211156200026457868484830101525b95506200027691505085820162000179565b925050509250929050565b600181811c908216806200029657607f821691505b60208210811415620002b857634e487b7160e01b600052602260045260246000fd5b50919050565b634e487b7160e01b600052604160045260246000fd5b60805160601c6137f362000332600039600081816104bc015281816105dd015281816108380152818161097001528181610b4401528181610f0f01528181610fec015281816113900152818161176f01526120a401526137f36000f3fe6080604052600436106101b55760003560e01c8063715018a6116100ec578063cbed8b9c1161008a578063eb8d72b711610064578063eb8d72b71461055a578063f242432a1461057a578063f2fde38b1461059a578063f5ecbdbc146105ba57600080fd5b8063cbed8b9c146104de578063d1deba1f146104fe578063e985e9c51461051157600080fd5b80638da5cb5b116100c65780638da5cb5b14610438578063a22cb4651461046a578063b25356631461048a578063b353aaa7146104aa57600080fd5b8063715018a6146103ce5780637533d788146103e35780638608e5f81461040357600080fd5b80633d8b38f6116101595780634db8226a116101335780634db8226a1461031f5780634e1273f4146103325780635b8c41e61461035f57806366ad5c8a146103ae57600080fd5b80633d8b38f6146102cc57806342d65a8d146102ec5780634ab4e6871461030c57600080fd5b806307e0db171161019557806307e0db171461023f5780630e89341c1461025f57806310ddb1371461028c5780632eb2c2d6146102ac57600080fd5b80621d3567146101ba578062fdd58e146101dc57806301ffc9a71461020f575b600080fd5b3480156101c657600080fd5b506101da6101d5366004612f54565b6105da565b005b3480156101e857600080fd5b506101fc6101f7366004612b74565b61073e565b6040519081526020015b60405180910390f35b34801561021b57600080fd5b5061022f61022a366004612c6b565b6107d2565b6040519015158152602001610206565b34801561024b57600080fd5b506101da61025a366004612d60565b6107f5565b34801561026b57600080fd5b5061027f61027a366004613091565b610899565b60405161020691906132bd565b34801561029857600080fd5b506101da6102a7366004612d60565b61092d565b3480156102b857600080fd5b506101da6102c73660046128a4565b6109a7565b3480156102d857600080fd5b5061022f6102e7366004612d7a565b610a37565b3480156102f857600080fd5b506101da610307366004612d7a565b610b03565b6101da61031a3660046129e7565b610bb4565b6101da61032d366004612ad1565b610bce565b34801561033e57600080fd5b5061035261034d366004612b9f565b610bee565b6040516102069190613246565b34801561036b57600080fd5b506101fc61037a366004612ef5565b6002602090815260009384526040808520845180860184018051928152908401958401959095209452929052825290205481565b3480156103ba57600080fd5b506101da6103c9366004612f54565b610d4f565b3480156103da57600080fd5b506101da610dbf565b3480156103ef57600080fd5b5061027f6103fe366004612d60565b610df5565b34801561040f57600080fd5b5061042361041e366004612e91565b610e8f565b60408051928352602083019190915201610206565b34801561044457600080fd5b506000546001600160a01b03165b6040516001600160a01b039091168152602001610206565b34801561047657600080fd5b506101da6104853660046129b3565b610ebf565b34801561049657600080fd5b506104236104a5366004612dca565b610ece565b3480156104b657600080fd5b506104527f000000000000000000000000000000000000000000000000000000000000000081565b3480156104ea57600080fd5b506101da6104f9366004613025565b610fab565b6101da61050c366004612f54565b611062565b34801561051d57600080fd5b5061022f61052c36600461286c565b6001600160a01b03918216600090815260046020908152604080832093909416825291909152205460ff1690565b34801561056657600080fd5b506101da610575366004612d7a565b6111b4565b34801561058657600080fd5b506101da61059536600461294d565b61123d565b3480156105a657600080fd5b506101da6105b5366004612849565b6112c4565b3480156105c657600080fd5b5061027f6105d5366004612fd9565b61135f565b337f00000000000000000000000000000000000000000000000000000000000000006001600160a01b03161461060f57600080fd5b61ffff84166000908152600160205260408120805461062d9061362e565b80601f01602080910402602001604051908101604052809291908181526020018280546106599061362e565b80156106a65780601f1061067b576101008083540402835291602001916106a6565b820191906000526020600020905b81548152906001019060200180831161068957829003601f168201915b50505050509050805184511480156106cb575080805190602001208480519060200120145b61072b5760405162461bcd60e51b815260206004820152602660248201527f4c7a4170703a20696e76616c696420736f757263652073656e64696e6720636f6044820152651b9d1c9858dd60d21b60648201526084015b60405180910390fd5b6107378585858561141f565b5050505050565b60006001600160a01b0383166107aa5760405162461bcd60e51b815260206004820152602b60248201527f455243313135353a2062616c616e636520717565727920666f7220746865207a60448201526a65726f206164647265737360a81b6064820152608401610722565b5060009081526003602090815260408083206001600160a01b03949094168352929052205490565b60006001600160e01b0319821615806107ef57506107ef82611510565b92915050565b6000546001600160a01b0316331461081f5760405162461bcd60e51b8152600401610722906133ea565b6040516307e0db1760e01b815261ffff821660048201527f00000000000000000000000000000000000000000000000000000000000000006001600160a01b0316906307e0db17906024015b600060405180830381600087803b15801561088557600080fd5b505af1158015610737573d6000803e3d6000fd5b6060600580546108a89061362e565b80601f01602080910402602001604051908101604052809291908181526020018280546108d49061362e565b80156109215780601f106108f657610100808354040283529160200191610921565b820191906000526020600020905b81548152906001019060200180831161090457829003601f168201915b50505050509050919050565b6000546001600160a01b031633146109575760405162461bcd60e51b8152600401610722906133ea565b6040516310ddb13760e01b815261ffff821660048201527f00000000000000000000000000000000000000000000000000000000000000006001600160a01b0316906310ddb1379060240161086b565b6001600160a01b0385163314806109c357506109c3853361052c565b610a2a5760405162461bcd60e51b815260206004820152603260248201527f455243313135353a207472616e736665722063616c6c6572206973206e6f74206044820152711bdddb995c881b9bdc88185c1c1c9bdd995960721b6064820152608401610722565b6107378585858585611550565b61ffff831660009081526001602052604081208054829190610a589061362e565b80601f0160208091040260200160405190810160405280929190818152602001828054610a849061362e565b8015610ad15780601f10610aa657610100808354040283529160200191610ad1565b820191906000526020600020905b815481529060010190602001808311610ab457829003601f168201915b505050505090508383604051610ae8929190613177565b60405180910390208180519060200120149150509392505050565b6000546001600160a01b03163314610b2d5760405162461bcd60e51b8152600401610722906133ea565b6040516342d65a8d60e01b81526001600160a01b037f000000000000000000000000000000000000000000000000000000000000000016906342d65a8d90610b7d908690869086906004016134af565b600060405180830381600087803b158015610b9757600080fd5b505af1158015610bab573d6000803e3d6000fd5b50505050505050565b610bc4888888888888888861170b565b5050505050505050565b610bc4888888610bdd89611939565b610be689611939565b88888861170b565b60608151835114610c535760405162461bcd60e51b815260206004820152602960248201527f455243313135353a206163636f756e747320616e6420696473206c656e677468604482015268040dad2e6dac2e8c6d60bb1b6064820152608401610722565b600083516001600160401b03811115610c7c57634e487b7160e01b600052604160045260246000fd5b604051908082528060200260200182016040528015610ca5578160200160208202803683370190505b50905060005b8451811015610d4757610d0c858281518110610cd757634e487b7160e01b600052603260045260246000fd5b6020026020010151858381518110610cff57634e487b7160e01b600052603260045260246000fd5b602002602001015161073e565b828281518110610d2c57634e487b7160e01b600052603260045260246000fd5b6020908102919091010152610d4081613695565b9050610cab565b509392505050565b333014610dad5760405162461bcd60e51b815260206004820152602660248201527f4e6f6e626c6f636b696e674c7a4170703a2063616c6c6572206d7573742062656044820152650204c7a4170760d41b6064820152608401610722565b610db984848484611992565b50505050565b6000546001600160a01b03163314610de95760405162461bcd60e51b8152600401610722906133ea565b610df36000611b07565b565b60016020526000908152604090208054610e0e9061362e565b80601f0160208091040260200160405190810160405280929190818152602001828054610e3a9061362e565b8015610e875780601f10610e5c57610100808354040283529160200191610e87565b820191906000526020600020905b815481529060010190602001808311610e6a57829003601f168201915b505050505081565b600080610eb08888610ea089611939565b610ea989611939565b8888610ece565b91509150965096945050505050565b610eca338383611b57565b5050565b6000806000878787604051602001610ee8939291906132d0565b60408051601f198184030181529082905263040a7bb160e41b825291506001600160a01b037f000000000000000000000000000000000000000000000000000000000000000016906340a7bb1090610f4c908c90309086908b908b90600401613467565b604080518083038186803b158015610f6357600080fd5b505afa158015610f77573d6000803e3d6000fd5b505050506040513d601f19601f82011682018060405250810190610f9b91906130a9565b9250925050965096945050505050565b6000546001600160a01b03163314610fd55760405162461bcd60e51b8152600401610722906133ea565b6040516332fb62e760e21b81526001600160a01b037f0000000000000000000000000000000000000000000000000000000000000000169063cbed8b9c906110299088908890889088908890600401613572565b600060405180830381600087803b15801561104357600080fd5b505af1158015611057573d6000803e3d6000fd5b505050505050505050565b61ffff84166000908152600260205260408082209051611083908690613187565b90815260408051602092819003830190206001600160401b038616600090815292529020549050806111035760405162461bcd60e51b815260206004820152602360248201527f4e6f6e626c6f636b696e674c7a4170703a206e6f2073746f726564206d65737360448201526261676560e81b6064820152608401610722565b8151602083012081146111625760405162461bcd60e51b815260206004820152602160248201527f4e6f6e626c6f636b696e674c7a4170703a20696e76616c6964207061796c6f616044820152601960fa1b6064820152608401610722565b61ffff85166000908152600260205260408082209051611183908790613187565b90815260408051602092819003830190206001600160401b0387166000908152925290205561073785858585611992565b6000546001600160a01b031633146111de5760405162461bcd60e51b8152600401610722906133ea565b61ffff831660009081526001602052604090206111fc9083836125b9565b507ffa41487ad5d6728f0b19276fa1eddc16558578f5109fc39d2dc33c3230470dab838383604051611230939291906134af565b60405180910390a1505050565b6001600160a01b0385163314806112595750611259853361052c565b6112b75760405162461bcd60e51b815260206004820152602960248201527f455243313135353a2063616c6c6572206973206e6f74206f776e6572206e6f7260448201526808185c1c1c9bdd995960ba1b6064820152608401610722565b6107378585858585611c38565b6000546001600160a01b031633146112ee5760405162461bcd60e51b8152600401610722906133ea565b6001600160a01b0381166113535760405162461bcd60e51b815260206004820152602660248201527f4f776e61626c653a206e6577206f776e657220697320746865207a65726f206160448201526564647265737360d01b6064820152608401610722565b61135c81611b07565b50565b604051633d7b2f6f60e21b815261ffff808616600483015284166024820152306044820152606481018290526060907f00000000000000000000000000000000000000000000000000000000000000006001600160a01b03169063f5ecbdbc9060840160006040518083038186803b1580156113da57600080fd5b505afa1580156113ee573d6000803e3d6000fd5b505050506040513d6000823e601f3d908101601f191682016040526114169190810190612ca3565b95945050505050565b604051633356ae4560e11b815230906366ad5c8a90611448908790879087908790600401613534565b600060405180830381600087803b15801561146257600080fd5b505af1925050508015611473575060015b610db9578080519060200120600260008661ffff1661ffff168152602001908152602001600020846040516114a89190613187565b9081526040805191829003602090810183206001600160401b0387166000908152915220919091557fe6f254030bcb01ffd20558175c13fcaed6d1520be7becee4c961b65f79243b0d90611503908690869086908690613534565b60405180910390a1610db9565b60006001600160e01b03198216636cdb3d1360e11b148061154157506001600160e01b031982166303a24d0760e21b145b806107ef57506107ef82611d59565b81518351146115715760405162461bcd60e51b81526004016107229061341f565b6001600160a01b0384166115975760405162461bcd60e51b81526004016107229061335b565b3360005b845181101561169d5760008582815181106115c657634e487b7160e01b600052603260045260246000fd5b6020026020010151905060008583815181106115f257634e487b7160e01b600052603260045260246000fd5b60209081029190910181015160008481526003835260408082206001600160a01b038e1683529093529190912054909150818110156116435760405162461bcd60e51b8152600401610722906133a0565b60008381526003602090815260408083206001600160a01b038e8116855292528083208585039055908b168252812080548492906116829084906135ea565b925050819055505050508061169690613695565b905061159b565b50846001600160a01b0316866001600160a01b0316826001600160a01b03167f4a39dc06d4c0dbc64b70af90fd698a233a518aa5d07e595d983b8c0526c8f7fb87876040516116ed929190613259565b60405180910390a4611703818787878787611d8e565b505050505050565b6117188888888888611ef9565b600086868660405160200161172f939291906132d0565b604051602081830303815290604052905061174d8882868686611f85565b604051630f428ae960e31b815261ffff891660048201523060248201526000907f00000000000000000000000000000000000000000000000000000000000000006001600160a01b031690637a1457489060440160206040518083038186803b1580156117b957600080fd5b505afa1580156117cd573d6000803e3d6000fd5b505050506040513d601f19601f820116820180604052508101906117f191906130cc565b90508651600114156118c2578760405161180b9190613187565b60405180910390208961ffff168b6001600160a01b03167f65f8f231660ef9add3da95eb0bbdae4c246f6c10e274fae37b17190637080d4c8a60008151811061186457634e487b7160e01b600052603260045260246000fd5b60200260200101518a60008151811061188d57634e487b7160e01b600052603260045260246000fd5b60209081029190910181015160408051938452918301526001600160401b0387169082015260600160405180910390a461192d565b60018751111561192d57876040516118da9190613187565b60405180910390208961ffff168b6001600160a01b03167f2d31495ecbe799a81d5475c03585aa019860601fed836229d70e335b732eab3d8a8a866040516119249392919061327e565b60405180910390a45b50505050505050505050565b6040805160018082528183019092526060916000919060208083019080368337019050509050828160008151811061198157634e487b7160e01b600052603260045260246000fd5b602090810291909101015292915050565b6000806000838060200190518101906119ab9190612cdd565b601483015192955090935091506119c48882858561211f565b825160011415611a9357806001600160a01b0316876040516119e69190613187565b60405180910390208961ffff167f330378e2f010257b2fbe836316fb7ab303af5ed8f2795b82bca60d1c8c909f7686600081518110611a3557634e487b7160e01b600052603260045260246000fd5b602002602001015186600081518110611a5e57634e487b7160e01b600052603260045260246000fd5b60209081029190910181015160408051938452918301526001600160401b038c169082015260600160405180910390a4610bc4565b600183511115610bc457806001600160a01b031687604051611ab59190613187565b60405180910390208961ffff167f5604161d52abb20dbe3d4a2230e585a0b230b3d18179a0e00917b173f5f9adab86868b604051611af59392919061327e565b60405180910390a45050505050505050565b600080546001600160a01b038381166001600160a01b0319831681178455604051919092169283917f8be0079c531659141344cd1fd0a4f28419497f9722a3daafe3b4186f6b6457e09190a35050565b816001600160a01b0316836001600160a01b03161415611bcb5760405162461bcd60e51b815260206004820152602960248201527f455243313135353a2073657474696e6720617070726f76616c20737461747573604482015268103337b91039b2b63360b91b6064820152608401610722565b6001600160a01b03838116600081815260046020908152604080832094871680845294825291829020805460ff191686151590811790915591519182527f17307eab39ab6107e8899845ad3d59bd9653f200f220920489ca2b5937696c31910160405180910390a3505050565b6001600160a01b038416611c5e5760405162461bcd60e51b81526004016107229061335b565b33611c77818787611c6e88611939565b61073788611939565b60008481526003602090815260408083206001600160a01b038a16845290915290205483811015611cba5760405162461bcd60e51b8152600401610722906133a0565b60008581526003602090815260408083206001600160a01b038b8116855292528083208785039055908816825281208054869290611cf99084906135ea565b909155505060408051868152602081018690526001600160a01b03808916928a821692918616917fc3d58168c5ae7397731d063d5bbf3d657854427343f4c083240f7aacaa2d0f62910160405180910390a4610bab82888888888861213a565b60006001600160e01b031982166319abbbbb60e11b14806107ef57506301ffc9a760e01b6001600160e01b03198316146107ef565b6001600160a01b0384163b156117035760405163bc197c8160e01b81526001600160a01b0385169063bc197c8190611dd290899089908890889088906004016131a3565b602060405180830381600087803b158015611dec57600080fd5b505af1925050508015611e1c575060408051601f3d908101601f19168201909252611e1991810190612c87565b60015b611ec957611e286136dc565b806308c379a01415611e625750611e3d6136f4565b80611e485750611e64565b8060405162461bcd60e51b815260040161072291906132bd565b505b60405162461bcd60e51b815260206004820152603460248201527f455243313135353a207472616e7366657220746f206e6f6e20455243313135356044820152732932b1b2b4bb32b91034b6b83632b6b2b73a32b960611b6064820152608401610722565b6001600160e01b0319811663bc197c8160e01b14610bab5760405162461bcd60e51b815260040161072290613313565b336001600160a01b038616811480611f165750611f16868261052c565b611f7a5760405162461bcd60e51b815260206004820152602f60248201527f4f4e4654313135353a2073656e642063616c6c6572206973206e6f74206f776e60448201526e195c881b9bdc88185c1c1c9bdd9959608a1b6064820152608401610722565b611703868484612204565b61ffff851660009081526001602052604081208054611fa39061362e565b80601f0160208091040260200160405190810160405280929190818152602001828054611fcf9061362e565b801561201c5780601f10611ff15761010080835404028352916020019161201c565b820191906000526020600020905b815481529060010190602001808311611fff57829003601f168201915b5050505050905080516000141561208e5760405162461bcd60e51b815260206004820152603060248201527f4c7a4170703a2064657374696e6174696f6e20636861696e206973206e6f742060448201526f61207472757374656420736f7572636560801b6064820152608401610722565b60405162c5803160e81b81526001600160a01b037f0000000000000000000000000000000000000000000000000000000000000000169063c58031009034906120e5908a9086908b908b908b908b906004016134cd565b6000604051808303818588803b1580156120fe57600080fd5b505af1158015612112573d6000803e3d6000fd5b5050505050505050505050565b610db983838360405180602001604052806000815250612417565b6001600160a01b0384163b156117035760405163f23a6e6160e01b81526001600160a01b0385169063f23a6e619061217e9089908990889088908890600401613201565b602060405180830381600087803b15801561219857600080fd5b505af19250505080156121c8575060408051601f3d908101601f191682019092526121c591810190612c87565b60015b6121d457611e286136dc565b6001600160e01b0319811663f23a6e6160e01b14610bab5760405162461bcd60e51b815260040161072290613313565b6001600160a01b0383166122665760405162461bcd60e51b815260206004820152602360248201527f455243313135353a206275726e2066726f6d20746865207a65726f206164647260448201526265737360e81b6064820152608401610722565b80518251146122875760405162461bcd60e51b81526004016107229061341f565b604080516020810190915260009081905233905b83518110156123b85760008482815181106122c657634e487b7160e01b600052603260045260246000fd5b6020026020010151905060008483815181106122f257634e487b7160e01b600052603260045260246000fd5b60209081029190910181015160008481526003835260408082206001600160a01b038c16835290935291909120549091508181101561237f5760405162461bcd60e51b8152602060048201526024808201527f455243313135353a206275726e20616d6f756e7420657863656564732062616c604482015263616e636560e01b6064820152608401610722565b60009283526003602090815260408085206001600160a01b038b16865290915290922091039055806123b081613695565b91505061229b565b5060006001600160a01b0316846001600160a01b0316826001600160a01b03167f4a39dc06d4c0dbc64b70af90fd698a233a518aa5d07e595d983b8c0526c8f7fb8686604051612409929190613259565b60405180910390a450505050565b6001600160a01b0384166124775760405162461bcd60e51b815260206004820152602160248201527f455243313135353a206d696e7420746f20746865207a65726f206164647265736044820152607360f81b6064820152608401610722565b81518351146124985760405162461bcd60e51b81526004016107229061341f565b3360005b8451811015612551578381815181106124c557634e487b7160e01b600052603260045260246000fd5b6020026020010151600360008784815181106124f157634e487b7160e01b600052603260045260246000fd5b602002602001015181526020019081526020016000206000886001600160a01b03166001600160a01b03168152602001908152602001600020600082825461253991906135ea565b9091555081905061254981613695565b91505061249c565b50846001600160a01b031660006001600160a01b0316826001600160a01b03167f4a39dc06d4c0dbc64b70af90fd698a233a518aa5d07e595d983b8c0526c8f7fb87876040516125a2929190613259565b60405180910390a461073781600087878787611d8e565b8280546125c59061362e565b90600052602060002090601f0160209004810192826125e7576000855561262d565b82601f106126005782800160ff1982351617855561262d565b8280016001018555821561262d579182015b8281111561262d578235825591602001919060010190612612565b5061263992915061263d565b5090565b5b80821115612639576000815560010161263e565b803561265d8161377d565b919050565b600082601f830112612672578081fd5b8135602061267f826135a0565b60405161268c8282613669565b8381528281019150858301600585901b870184018810156126ab578586fd5b855b858110156126c9578135845292840192908401906001016126ad565b5090979650505050505050565b600082601f8301126126e6578081fd5b815160206126f3826135a0565b6040516127008282613669565b8381528281019150858301600585901b8701840188101561271f578586fd5b855b858110156126c957815184529284019290840190600101612721565b8035801515811461265d57600080fd5b60008083601f84011261275e578182fd5b5081356001600160401b03811115612774578182fd5b60208301915083602082850101111561278c57600080fd5b9250929050565b600082601f8301126127a3578081fd5b81356127ae816135c3565b6040516127bb8282613669565b8281528560208487010111156127cf578384fd5b82602086016020830137918201602001929092529392505050565b600082601f8301126127fa578081fd5b8151612805816135c3565b6040516128128282613669565b828152856020848701011115612826578384fd5b611416836020830160208801613602565b803561ffff8116811461265d57600080fd5b60006020828403121561285a578081fd5b81356128658161377d565b9392505050565b6000806040838503121561287e578081fd5b82356128898161377d565b915060208301356128998161377d565b809150509250929050565b600080600080600060a086880312156128bb578081fd5b85356128c68161377d565b945060208601356128d68161377d565b935060408601356001600160401b03808211156128f1578283fd5b6128fd89838a01612662565b94506060880135915080821115612912578283fd5b61291e89838a01612662565b93506080880135915080821115612933578283fd5b5061294088828901612793565b9150509295509295909350565b600080600080600060a08688031215612964578081fd5b853561296f8161377d565b9450602086013561297f8161377d565b9350604086013592506060860135915060808601356001600160401b038111156129a7578182fd5b61294088828901612793565b600080604083850312156129c5578182fd5b82356129d08161377d565b91506129de6020840161273d565b90509250929050565b600080600080600080600080610100898b031215612a03578586fd5b612a0c89612652565b9750612a1a60208a01612837565b965060408901356001600160401b0380821115612a35578788fd5b612a418c838d01612793565b975060608b0135915080821115612a56578485fd5b612a628c838d01612662565b965060808b0135915080821115612a77578485fd5b612a838c838d01612662565b9550612a9160a08c01612652565b9450612a9f60c08c01612652565b935060e08b0135915080821115612ab4578283fd5b50612ac18b828c01612793565b9150509295985092959890939650565b600080600080600080600080610100898b031215612aed578182fd5b8835612af88161377d565b9750612b0660208a01612837565b965060408901356001600160401b0380821115612b21578384fd5b612b2d8c838d01612793565b975060608b0135965060808b0135955060a08b01359150612b4d8261377d565b90935060c08a013590612b5f8261377d565b90925060e08a01359080821115612ab4578283fd5b60008060408385031215612b86578182fd5b8235612b918161377d565b946020939093013593505050565b60008060408385031215612bb1578182fd5b82356001600160401b0380821115612bc7578384fd5b818501915085601f830112612bda578384fd5b81356020612be7826135a0565b604051612bf48282613669565b8381528281019150858301600585901b870184018b1015612c13578889fd5b8896505b84871015612c3e578035612c2a8161377d565b835260019690960195918301918301612c17565b5096505086013592505080821115612c54578283fd5b50612c6185828601612662565b9150509250929050565b600060208284031215612c7c578081fd5b813561286581613792565b600060208284031215612c98578081fd5b815161286581613792565b600060208284031215612cb4578081fd5b81516001600160401b03811115612cc9578182fd5b612cd5848285016127ea565b949350505050565b600080600060608486031215612cf1578081fd5b83516001600160401b0380821115612d07578283fd5b612d13878388016127ea565b94506020860151915080821115612d28578283fd5b612d34878388016126d6565b93506040860151915080821115612d49578283fd5b50612d56868287016126d6565b9150509250925092565b600060208284031215612d71578081fd5b61286582612837565b600080600060408486031215612d8e578081fd5b612d9784612837565b925060208401356001600160401b03811115612db1578182fd5b612dbd8682870161274d565b9497909650939450505050565b60008060008060008060c08789031215612de2578384fd5b612deb87612837565b955060208701356001600160401b0380821115612e06578586fd5b612e128a838b01612793565b96506040890135915080821115612e27578586fd5b612e338a838b01612662565b95506060890135915080821115612e48578384fd5b612e548a838b01612662565b9450612e6260808a0161273d565b935060a0890135915080821115612e77578283fd5b50612e8489828a01612793565b9150509295509295509295565b60008060008060008060c08789031215612ea9578384fd5b612eb287612837565b955060208701356001600160401b0380821115612ecd578586fd5b612ed98a838b01612793565b96506040890135955060608901359450612e6260808a0161273d565b600080600060608486031215612f09578081fd5b612f1284612837565b925060208401356001600160401b03811115612f2c578182fd5b612f3886828701612793565b9250506040840135612f49816137a8565b809150509250925092565b60008060008060808587031215612f69578182fd5b612f7285612837565b935060208501356001600160401b0380821115612f8d578384fd5b612f9988838901612793565b945060408701359150612fab826137a8565b90925060608601359080821115612fc0578283fd5b50612fcd87828801612793565b91505092959194509250565b60008060008060808587031215612fee578182fd5b612ff785612837565b935061300560208601612837565b925060408501356130158161377d565b9396929550929360600135925050565b60008060008060006080868803121561303c578283fd5b61304586612837565b945061305360208701612837565b93506040860135925060608601356001600160401b03811115613074578182fd5b6130808882890161274d565b969995985093965092949392505050565b6000602082840312156130a2578081fd5b5035919050565b600080604083850312156130bb578182fd5b505080516020909101519092909150565b6000602082840312156130dd578081fd5b8151612865816137a8565b6000815180845260208085019450808401835b83811015613117578151875295820195908201906001016130fb565b509495945050505050565b81835281816020850137506000828201602090810191909152601f909101601f19169091010190565b60008151808452613163816020860160208601613602565b601f01601f19169290920160200192915050565b8183823760009101908152919050565b60008251613199818460208701613602565b9190910192915050565b6001600160a01b0386811682528516602082015260a0604082018190526000906131cf908301866130e8565b82810360608401526131e181866130e8565b905082810360808401526131f5818561314b565b98975050505050505050565b6001600160a01b03868116825285166020820152604081018490526060810183905260a06080820181905260009061323b9083018461314b565b979650505050505050565b60208152600061286560208301846130e8565b60408152600061326c60408301856130e8565b828103602084015261141681856130e8565b60608152600061329160608301866130e8565b82810360208401526132a381866130e8565b9150506001600160401b0383166040830152949350505050565b602081526000612865602083018461314b565b6060815260006132e3606083018661314b565b82810360208401526132f581866130e8565b9050828103604084015261330981856130e8565b9695505050505050565b60208082526028908201527f455243313135353a204552433131353552656365697665722072656a656374656040820152676420746f6b656e7360c01b606082015260800190565b60208082526025908201527f455243313135353a207472616e7366657220746f20746865207a65726f206164604082015264647265737360d81b606082015260800190565b6020808252602a908201527f455243313135353a20696e73756666696369656e742062616c616e636520666f60408201526939103a3930b739b332b960b11b606082015260800190565b6020808252818101527f4f776e61626c653a2063616c6c6572206973206e6f7420746865206f776e6572604082015260600190565b60208082526028908201527f455243313135353a2069647320616e6420616d6f756e7473206c656e677468206040820152670dad2e6dac2e8c6d60c31b606082015260800190565b61ffff861681526001600160a01b038516602082015260a0604082018190526000906134959083018661314b565b841515606084015282810360808401526131f5818561314b565b61ffff84168152604060208201526000611416604083018486613122565b61ffff8716815260c0602082015260006134ea60c083018861314b565b82810360408401526134fc818861314b565b6001600160a01b0387811660608601528616608085015283810360a08501529050613527818561314b565b9998505050505050505050565b61ffff85168152608060208201526000613551608083018661314b565b6001600160401b0385166040840152828103606084015261323b818561314b565b600061ffff80881683528087166020840152508460408301526080606083015261323b608083018486613122565b60006001600160401b038211156135b9576135b96136c6565b5060051b60200190565b60006001600160401b038211156135dc576135dc6136c6565b50601f01601f191660200190565b600082198211156135fd576135fd6136b0565b500190565b60005b8381101561361d578181015183820152602001613605565b83811115610db95750506000910152565b600181811c9082168061364257607f821691505b6020821081141561366357634e487b7160e01b600052602260045260246000fd5b50919050565b601f8201601f191681016001600160401b038111828210171561368e5761368e6136c6565b6040525050565b60006000198214156136a9576136a96136b0565b5060010190565b634e487b7160e01b600052601160045260246000fd5b634e487b7160e01b600052604160045260246000fd5b600060033d11156136f157600481823e5160e01c5b90565b600060443d10156137025790565b6040516003193d81016004833e81513d6001600160401b03816024840111818411171561373157505050505090565b82850191508151818111156137495750505050505090565b843d87010160208285010111156137635750505050505090565b61377260208286010187613669565b509095945050505050565b6001600160a01b038116811461135c57600080fd5b6001600160e01b03198116811461135c57600080fd5b6001600160401b038116811461135c57600080fdfea2646970667358221220260e355a86082922ccb10139ae648442d96fc05a222c0de7dab674567a5a22d064736f6c63430008040033",
  "linkReferences": {},
  "deployedLinkReferences": {}
}