{
  "_format": "hh-sol-artifact-1",
  "contractName": "ProxyONFT721",
  "sourceName": "contracts/token/onft/extension/ProxyONFT721.sol",
  "abi": [
    {
      "inputs": [
        {
          "internalType": "address",
          "name": "_lzEndpoint",
          "type": "address"
        },
        {
          "internalType": "address",
          "name": "_proxyToken",
          "type": "address"
        }
      ],
      "stateMutability": "nonpayable",
      "type": "constructor"
    },
    {
      "anonymous": false,
      "inputs": [
        {
          "indexed": false,
          "internalType": "uint16",
          "name": "_srcChainId",
          "type": "uint16"
        },
        {
          "indexed": false,
          "internalType": "bytes",
          "name": "_srcAddress",
          "type": "bytes"
        },
        {
          "indexed": false,
          "internalType": "uint64",
          "name": "_nonce",
          "type": "uint64"
        },
        {
          "indexed": false,
          "internalType": "bytes",
          "name": "_payload",
          "type": "bytes"
        }
      ],
      "name": "MessageFailed",
      "type": "event"
    },
    {
      "anonymous": false,
      "inputs": [
        {
          "indexed": true,
          "internalType": "address",
          "name": "previousOwner",
          "type": "address"
        },
        {
          "indexed": true,
          "internalType": "address",
          "name": "newOwner",
          "type": "address"
        }
      ],
      "name": "OwnershipTransferred",
      "type": "event"
    },
    {
      "anonymous": false,
      "inputs": [
        {
          "indexed": true,
          "internalType": "uint16",
          "name": "_srcChainId",
          "type": "uint16"
        },
        {
          "indexed": true,
          "internalType": "bytes",
          "name": "_srcAddress",
          "type": "bytes"
        },
        {
          "indexed": true,
          "internalType": "address",
          "name": "_toAddress",
          "type": "address"
        },
        {
          "indexed": false,
          "internalType": "uint256",
          "name": "_tokenId",
          "type": "uint256"
        },
        {
          "indexed": false,
          "internalType": "uint64",
          "name": "_nonce",
          "type": "uint64"
        }
      ],
      "name": "ReceiveFromChain",
      "type": "event"
    },
    {
      "anonymous": false,
      "inputs": [
        {
          "indexed": true,
          "internalType": "address",
          "name": "_sender",
          "type": "address"
        },
        {
          "indexed": true,
          "internalType": "uint16",
          "name": "_dstChainId",
          "type": "uint16"
        },
        {
          "indexed": true,
          "internalType": "bytes",
          "name": "_toAddress",
          "type": "bytes"
        },
        {
          "indexed": false,
          "internalType": "uint256",
          "name": "_tokenId",
          "type": "uint256"
        },
        {
          "indexed": false,
          "internalType": "uint64",
          "name": "_nonce",
          "type": "uint64"
        }
      ],
      "name": "SendToChain",
      "type": "event"
    },
    {
      "anonymous": false,
      "inputs": [
        {
          "indexed": false,
          "internalType": "uint16",
          "name": "_srcChainId",
          "type": "uint16"
        },
        {
          "indexed": false,
          "internalType": "bytes",
          "name": "_srcAddress",
          "type": "bytes"
        }
      ],
      "name": "SetTrustedRemote",
      "type": "event"
    },
    {
      "inputs": [
        {
          "internalType": "uint16",
          "name": "_dstChainId",
          "type": "uint16"
        },
        {
          "internalType": "bytes",
          "name": "_toAddress",
          "type": "bytes"
        },
        {
          "internalType": "uint256",
          "name": "_tokenId",
          "type": "uint256"
        },
        {
          "internalType": "bool",
          "name": "_useZro",
          "type": "bool"
        },
        {
          "internalType": "bytes",
          "name": "_adapterParams",
          "type": "bytes"
        }
      ],
      "name": "estimateSendFee",
      "outputs": [
        {
          "internalType": "uint256",
          "name": "nativeFee",
          "type": "uint256"
        },
        {
          "internalType": "uint256",
          "name": "zroFee",
          "type": "uint256"
        }
      ],
      "stateMutability": "view",
      "type": "function"
    },
    {
      "inputs": [
        {
          "internalType": "uint16",
          "name": "",
          "type": "uint16"
        },
        {
          "internalType": "bytes",
          "name": "",
          "type": "bytes"
        },
        {
          "internalType": "uint64",
          "name": "",
          "type": "uint64"
        }
      ],
      "name": "failedMessages",
      "outputs": [
        {
          "internalType": "bytes32",
          "name": "",
          "type": "bytes32"
        }
      ],
      "stateMutability": "view",
      "type": "function"
    },
    {
      "inputs": [
        {
          "internalType": "uint16",
          "name": "_srcChainId",
          "type": "uint16"
        },
        {
          "internalType": "bytes",
          "name": "_srcAddress",
          "type": "bytes"
        }
      ],
      "name": "forceResumeReceive",
      "outputs": [],
      "stateMutability": "nonpayable",
      "type": "function"
    },
    {
      "inputs": [
        {
          "internalType": "uint16",
          "name": "_version",
          "type": "uint16"
        },
        {
          "internalType": "uint16",
          "name": "_chainId",
          "type": "uint16"
        },
        {
          "internalType": "address",
          "name": "",
          "type": "address"
        },
        {
          "internalType": "uint256",
          "name": "_configType",
          "type": "uint256"
        }
      ],
      "name": "getConfig",
      "outputs": [
        {
          "internalType": "bytes",
          "name": "",
          "type": "bytes"
        }
      ],
      "stateMutability": "view",
      "type": "function"
    },
    {
      "inputs": [
        {
          "internalType": "uint16",
          "name": "_srcChainId",
          "type": "uint16"
        },
        {
          "internalType": "bytes",
          "name": "_srcAddress",
          "type": "bytes"
        }
      ],
      "name": "isTrustedRemote",
      "outputs": [
        {
          "internalType": "bool",
          "name": "",
          "type": "bool"
        }
      ],
      "stateMutability": "view",
      "type": "function"
    },
    {
      "inputs": [],
      "name": "lzEndpoint",
      "outputs": [
        {
          "internalType": "contract ILayerZeroEndpoint",
          "name": "",
          "type": "address"
        }
      ],
      "stateMutability": "view",
      "type": "function"
    },
    {
      "inputs": [
        {
          "internalType": "uint16",
          "name": "_srcChainId",
          "type": "uint16"
        },
        {
          "internalType": "bytes",
          "name": "_srcAddress",
          "type": "bytes"
        },
        {
          "internalType": "uint64",
          "name": "_nonce",
          "type": "uint64"
        },
        {
          "internalType": "bytes",
          "name": "_payload",
          "type": "bytes"
        }
      ],
      "name": "lzReceive",
      "outputs": [],
      "stateMutability": "nonpayable",
      "type": "function"
    },
    {
      "inputs": [
        {
          "internalType": "uint16",
          "name": "_srcChainId",
          "type": "uint16"
        },
        {
          "internalType": "bytes",
          "name": "_srcAddress",
          "type": "bytes"
        },
        {
          "internalType": "uint64",
          "name": "_nonce",
          "type": "uint64"
        },
        {
          "internalType": "bytes",
          "name": "_payload",
          "type": "bytes"
        }
      ],
      "name": "nonblockingLzReceive",
      "outputs": [],
      "stateMutability": "nonpayable",
      "type": "function"
    },
    {
      "inputs": [
        {
          "internalType": "address",
          "name": "_operator",
          "type": "address"
        },
        {
          "internalType": "address",
          "name": "",
          "type": "address"
        },
        {
          "internalType": "uint256",
          "name": "",
          "type": "uint256"
        },
        {
          "internalType": "bytes",
          "name": "",
          "type": "bytes"
        }
      ],
      "name": "onERC721Received",
      "outputs": [
        {
          "internalType": "bytes4",
          "name": "",
          "type": "bytes4"
        }
      ],
      "stateMutability": "nonpayable",
      "type": "function"
    },
    {
      "inputs": [],
      "name": "owner",
      "outputs": [
        {
          "internalType": "address",
          "name": "",
          "type": "address"
        }
      ],
      "stateMutability": "view",
      "type": "function"
    },
    {
      "inputs": [],
      "name": "renounceOwnership",
      "outputs": [],
      "stateMutability": "nonpayable",
      "type": "function"
    },
    {
      "inputs": [
        {
          "internalType": "uint16",
          "name": "_srcChainId",
          "type": "uint16"
        },
        {
          "internalType": "bytes",
          "name": "_srcAddress",
          "type": "bytes"
        },
        {
          "internalType": "uint64",
          "name": "_nonce",
          "type": "uint64"
        },
        {
          "internalType": "bytes",
          "name": "_payload",
          "type": "bytes"
        }
      ],
      "name": "retryMessage",
      "outputs": [],
      "stateMutability": "payable",
      "type": "function"
    },
    {
      "inputs": [
        {
          "internalType": "address",
          "name": "_from",
          "type": "address"
        },
        {
          "internalType": "uint16",
          "name": "_dstChainId",
          "type": "uint16"
        },
        {
          "internalType": "bytes",
          "name": "_toAddress",
          "type": "bytes"
        },
        {
          "internalType": "uint256",
          "name": "_tokenId",
          "type": "uint256"
        },
        {
          "internalType": "address payable",
          "name": "_refundAddress",
          "type": "address"
        },
        {
          "internalType": "address",
          "name": "_zroPaymentAddress",
          "type": "address"
        },
        {
          "internalType": "bytes",
          "name": "_adapterParams",
          "type": "bytes"
        }
      ],
      "name": "sendFrom",
      "outputs": [],
      "stateMutability": "payable",
      "type": "function"
    },
    {
      "inputs": [
        {
          "internalType": "uint16",
          "name": "_version",
          "type": "uint16"
        },
        {
          "internalType": "uint16",
          "name": "_chainId",
          "type": "uint16"
        },
        {
          "internalType": "uint256",
          "name": "_configType",
          "type": "uint256"
        },
        {
          "internalType": "bytes",
          "name": "_config",
          "type": "bytes"
        }
      ],
      "name": "setConfig",
      "outputs": [],
      "stateMutability": "nonpayable",
      "type": "function"
    },
    {
      "inputs": [
        {
          "internalType": "uint16",
          "name": "_version",
          "type": "uint16"
        }
      ],
      "name": "setReceiveVersion",
      "outputs": [],
      "stateMutability": "nonpayable",
      "type": "function"
    },
    {
      "inputs": [
        {
          "internalType": "uint16",
          "name": "_version",
          "type": "uint16"
        }
      ],
      "name": "setSendVersion",
      "outputs": [],
      "stateMutability": "nonpayable",
      "type": "function"
    },
    {
      "inputs": [
        {
          "internalType": "uint16",
          "name": "_srcChainId",
          "type": "uint16"
        },
        {
          "internalType": "bytes",
          "name": "_srcAddress",
          "type": "bytes"
        }
      ],
      "name": "setTrustedRemote",
      "outputs": [],
      "stateMutability": "nonpayable",
      "type": "function"
    },
    {
      "inputs": [
        {
          "internalType": "bytes4",
          "name": "interfaceId",
          "type": "bytes4"
        }
      ],
      "name": "supportsInterface",
      "outputs": [
        {
          "internalType": "bool",
          "name": "",
          "type": "bool"
        }
      ],
      "stateMutability": "view",
      "type": "function"
    },
    {
      "inputs": [],
      "name": "token",
      "outputs": [
        {
          "internalType": "contract IERC721",
          "name": "",
          "type": "address"
        }
      ],
      "stateMutability": "view",
      "type": "function"
    },
    {
      "inputs": [
        {
          "internalType": "address",
          "name": "newOwner",
          "type": "address"
        }
      ],
      "name": "transferOwnership",
      "outputs": [],
      "stateMutability": "nonpayable",
      "type": "function"
    },
    {
      "inputs": [
        {
          "internalType": "uint16",
          "name": "",
          "type": "uint16"
        }
      ],
      "name": "trustedRemoteLookup",
      "outputs": [
        {
          "internalType": "bytes",
          "name": "",
          "type": "bytes"
        }
      ],
      "stateMutability": "view",
      "type": "function"
    }
  ],
  "bytecode": "0x60c06040523480156200001157600080fd5b50604051620023f9380380620023f98339810160408190526200003491620002b1565b8180806200004233620000f0565b60601b6001600160601b031916608052506200007d90506001600160a01b0382166380ac58cd60e01b62000140602090811b62000ede17901c565b620000d95760405162461bcd60e51b815260206004820152602260248201527f50726f78794f4e46543732313a20696e76616c69642045524337323120746f6b60448201526132b760f11b606482015260840160405180910390fd5b60601b6001600160601b03191660a052506200034d565b600080546001600160a01b038381166001600160a01b0319831681178455604051919092169283917f8be0079c531659141344cd1fd0a4f28419497f9722a3daafe3b4186f6b6457e09190a35050565b60006200014d836200016a565b8015620001615750620001618383620001a2565b90505b92915050565b60006200017f826301ffc9a760e01b620001a2565b80156200016457506200019b826001600160e01b0319620001a2565b1592915050565b604080516001600160e01b0319831660248083019190915282518083039091018152604490910182526020810180516001600160e01b03166301ffc9a760e01b179052905160009190829081906001600160a01b03871690617530906200020b90869062000311565b6000604051808303818686fa925050503d806000811462000249576040519150601f19603f3d011682016040523d82523d6000602084013e6200024e565b606091505b50915091506020815110156200026b576000935050505062000164565b8180156200028a5750808060200190518101906200028a9190620002e8565b9695505050505050565b80516001600160a01b0381168114620002ac57600080fd5b919050565b60008060408385031215620002c4578182fd5b620002cf8362000294565b9150620002df6020840162000294565b90509250929050565b600060208284031215620002fa578081fd5b815180151581146200030a578182fd5b9392505050565b60008251815b8181101562000333576020818601810151858301520162000317565b81811115620003425782828501525b509190910192915050565b60805160601c60a05160601c612033620003c6600039600081816104500152818161141801526116400152600081816103890152818161047501528181610644015281816106e80152818161078a0152818161093201528181610b3201528181610e4f01528181611088015261159901526120336000f3fe6080604052600436106101295760003560e01c806366ad5c8a116100ab578063cbed8b9c1161006f578063cbed8b9c146103ab578063d1deba1f146103cb578063eb8d72b7146103de578063f2fde38b146103fe578063f5ecbdbc1461041e578063fc0c546a1461043e57600080fd5b806366ad5c8a146102e3578063715018a6146103035780637533d788146103185780638da5cb5b14610345578063b353aaa71461037757600080fd5b80632a205e3d116100f25780632a205e3d146101fe5780633d8b38f61461023357806342d65a8d1461025357806351905636146102735780635b8c41e61461028657600080fd5b80621d35671461012e57806301ffc9a71461015057806307e0db171461018557806310ddb137146101a5578063150b7a02146101c5575b600080fd5b34801561013a57600080fd5b5061014e610149366004611b46565b610472565b005b34801561015c57600080fd5b5061017061016b366004611950565b6105d6565b60405190151581526020015b60405180910390f35b34801561019157600080fd5b5061014e6101a03660046119ee565b610601565b3480156101b157600080fd5b5061014e6101c03660046119ee565b6106a5565b3480156101d157600080fd5b506101e56101e0366004611815565b61071f565b6040516001600160e01b0319909116815260200161017c565b34801561020a57600080fd5b5061021e610219366004611a58565b61074b565b6040805192835260208301919091520161017c565b34801561023f57600080fd5b5061017061024e366004611a08565b610825565b34801561025f57600080fd5b5061014e61026e366004611a08565b6108f1565b61014e61028136600461187e565b6109a2565b34801561029257600080fd5b506102d56102a1366004611ae7565b6002602090815260009384526040808520845180860184018051928152908401958401959095209452929052825290205481565b60405190815260200161017c565b3480156102ef57600080fd5b5061014e6102fe366004611b46565b6109b1565b34801561030f57600080fd5b5061014e610a21565b34801561032457600080fd5b506103386103333660046119ee565b610a57565b60405161017c9190611d37565b34801561035157600080fd5b506000546001600160a01b03165b6040516001600160a01b03909116815260200161017c565b34801561038357600080fd5b5061035f7f000000000000000000000000000000000000000000000000000000000000000081565b3480156103b757600080fd5b5061014e6103c6366004611c0b565b610af1565b61014e6103d9366004611b46565b610ba8565b3480156103ea57600080fd5b5061014e6103f9366004611a08565b610cfa565b34801561040a57600080fd5b5061014e6104193660046117f9565b610d83565b34801561042a57600080fd5b50610338610439366004611bbf565b610e1e565b34801561044a57600080fd5b5061035f7f000000000000000000000000000000000000000000000000000000000000000081565b337f00000000000000000000000000000000000000000000000000000000000000006001600160a01b0316146104a757600080fd5b61ffff8416600090815260016020526040812080546104c590611f74565b80601f01602080910402602001604051908101604052809291908181526020018280546104f190611f74565b801561053e5780601f106105135761010080835404028352916020019161053e565b820191906000526020600020905b81548152906001019060200180831161052157829003601f168201915b5050505050905080518451148015610563575080805190602001208480519060200120145b6105c35760405162461bcd60e51b815260206004820152602660248201527f4c7a4170703a20696e76616c696420736f757263652073656e64696e6720636f6044820152651b9d1c9858dd60d21b60648201526084015b60405180910390fd5b6105cf85858585610f01565b5050505050565b60006001600160e01b03198216630a85bd0160e11b14806105fb57506105fb82610ff2565b92915050565b6000546001600160a01b0316331461062b5760405162461bcd60e51b81526004016105ba90611d6c565b6040516307e0db1760e01b815261ffff821660048201527f00000000000000000000000000000000000000000000000000000000000000006001600160a01b0316906307e0db17906024015b600060405180830381600087803b15801561069157600080fd5b505af11580156105cf573d6000803e3d6000fd5b6000546001600160a01b031633146106cf5760405162461bcd60e51b81526004016105ba90611d6c565b6040516310ddb13760e01b815261ffff821660048201527f00000000000000000000000000000000000000000000000000000000000000006001600160a01b0316906310ddb13790602401610677565b60006001600160a01b038516301461073957506000610743565b50630a85bd0160e11b5b949350505050565b60008060008686604051602001610763929190611d4a565b60408051601f198184030181529082905263040a7bb160e41b825291506001600160a01b037f000000000000000000000000000000000000000000000000000000000000000016906340a7bb10906107c7908b90309086908b908b90600401611da1565b604080518083038186803b1580156107de57600080fd5b505afa1580156107f2573d6000803e3d6000fd5b505050506040513d601f19601f820116820180604052508101906108169190611c77565b92509250509550959350505050565b61ffff83166000908152600160205260408120805482919061084690611f74565b80601f016020809104026020016040519081016040528092919081815260200182805461087290611f74565b80156108bf5780601f10610894576101008083540402835291602001916108bf565b820191906000526020600020905b8154815290600101906020018083116108a257829003601f168201915b5050505050905083836040516108d6929190611d0b565b60405180910390208180519060200120149150509392505050565b6000546001600160a01b0316331461091b5760405162461bcd60e51b81526004016105ba90611d6c565b6040516342d65a8d60e01b81526001600160a01b037f000000000000000000000000000000000000000000000000000000000000000016906342d65a8d9061096b90869086908690600401611df5565b600060405180830381600087803b15801561098557600080fd5b505af1158015610999573d6000803e3d6000fd5b50505050505050565b61099987878787878787611027565b333014610a0f5760405162461bcd60e51b815260206004820152602660248201527f4e6f6e626c6f636b696e674c7a4170703a2063616c6c6572206d7573742062656044820152650204c7a4170760d41b60648201526084016105ba565b610a1b8484848461117e565b50505050565b6000546001600160a01b03163314610a4b5760405162461bcd60e51b81526004016105ba90611d6c565b610a556000611219565b565b60016020526000908152604090208054610a7090611f74565b80601f0160208091040260200160405190810160405280929190818152602001828054610a9c90611f74565b8015610ae95780601f10610abe57610100808354040283529160200191610ae9565b820191906000526020600020905b815481529060010190602001808311610acc57829003601f168201915b505050505081565b6000546001600160a01b03163314610b1b5760405162461bcd60e51b81526004016105ba90611d6c565b6040516332fb62e760e21b81526001600160a01b037f0000000000000000000000000000000000000000000000000000000000000000169063cbed8b9c90610b6f9088908890889088908890600401611ec3565b600060405180830381600087803b158015610b8957600080fd5b505af1158015610b9d573d6000803e3d6000fd5b505050505050505050565b61ffff84166000908152600260205260408082209051610bc9908690611d1b565b90815260408051602092819003830190206001600160401b03861660009081529252902054905080610c495760405162461bcd60e51b815260206004820152602360248201527f4e6f6e626c6f636b696e674c7a4170703a206e6f2073746f726564206d65737360448201526261676560e81b60648201526084016105ba565b815160208301208114610ca85760405162461bcd60e51b815260206004820152602160248201527f4e6f6e626c6f636b696e674c7a4170703a20696e76616c6964207061796c6f616044820152601960fa1b60648201526084016105ba565b61ffff85166000908152600260205260408082209051610cc9908790611d1b565b90815260408051602092819003830190206001600160401b038716600090815292529020556105cf8585858561117e565b6000546001600160a01b03163314610d245760405162461bcd60e51b81526004016105ba90611d6c565b61ffff83166000908152600160205260409020610d4290838361166f565b507ffa41487ad5d6728f0b19276fa1eddc16558578f5109fc39d2dc33c3230470dab838383604051610d7693929190611df5565b60405180910390a1505050565b6000546001600160a01b03163314610dad5760405162461bcd60e51b81526004016105ba90611d6c565b6001600160a01b038116610e125760405162461bcd60e51b815260206004820152602660248201527f4f776e61626c653a206e6577206f776e657220697320746865207a65726f206160448201526564647265737360d01b60648201526084016105ba565b610e1b81611219565b50565b604051633d7b2f6f60e21b815261ffff808616600483015284166024820152306044820152606481018290526060907f00000000000000000000000000000000000000000000000000000000000000006001600160a01b03169063f5ecbdbc9060840160006040518083038186803b158015610e9957600080fd5b505afa158015610ead573d6000803e3d6000fd5b505050506040513d6000823e601f3d908101601f19168201604052610ed59190810190611978565b95945050505050565b6000610ee983611269565b8015610efa5750610efa838361129c565b9392505050565b604051633356ae4560e11b815230906366ad5c8a90610f2a908790879087908790600401611e7a565b600060405180830381600087803b158015610f4457600080fd5b505af1925050508015610f55575060015b610a1b578080519060200120600260008661ffff1661ffff16815260200190815260200160002084604051610f8a9190611d1b565b9081526040805191829003602090810183206001600160401b0387166000908152915220919091557fe6f254030bcb01ffd20558175c13fcaed6d1520be7becee4c961b65f79243b0d90610fe5908690869086908690611e7a565b60405180910390a1610a1b565b60006001600160e01b03198216637bb0080b60e01b14806105fb57506301ffc9a760e01b6001600160e01b03198316146105fb565b61103387878787611385565b60008585604051602001611048929190611d4a565b6040516020818303038152906040529050611066878286868661147a565b604051630f428ae960e31b815261ffff881660048201523060248201526000907f00000000000000000000000000000000000000000000000000000000000000006001600160a01b031690637a1457489060440160206040518083038186803b1580156110d257600080fd5b505afa1580156110e6573d6000803e3d6000fd5b505050506040513d601f19601f8201168201806040525081019061110a9190611c9a565b90508660405161111a9190611d1b565b604080519182900382208883526001600160401b03841660208401529161ffff8b16916001600160a01b038d16917f024797cc77ce15dc717112d54fb1df125fdfd8c81344fb046c5e074427ce1543910160405180910390a4505050505050505050565b6000808280602001905181019061119591906119aa565b601482015191935091506111aa878284611614565b806001600160a01b0316866040516111c29190611d1b565b604080519182900382208583526001600160401b03891660208401529161ffff8b16917f64e10c37f404d128982dce114f5d233c14c5c7f6d8db93099e3d99dacb9e27ba910160405180910390a450505050505050565b600080546001600160a01b038381166001600160a01b0319831681178455604051919092169283917f8be0079c531659141344cd1fd0a4f28419497f9722a3daafe3b4186f6b6457e09190a35050565b600061127c826301ffc9a760e01b61129c565b80156105fb5750611295826001600160e01b031961129c565b1592915050565b604080516001600160e01b0319831660248083019190915282518083039091018152604490910182526020810180516001600160e01b03166301ffc9a760e01b179052905160009190829081906001600160a01b0387169061753090611303908690611d1b565b6000604051808303818686fa925050503d806000811461133f576040519150601f19603f3d011682016040523d82523d6000602084013e611344565b606091505b509150915060208151101561135f57600093505050506105fb565b81801561137b57508080602001905181019061137b9190611934565b9695505050505050565b6001600160a01b03841633146113ec5760405162461bcd60e51b815260206004820152602660248201527f50726f78794f4e46543732313a206f776e6572206973206e6f742073656e642060448201526531b0b63632b960d11b60648201526084016105ba565b604051632142170760e11b81526001600160a01b038581166004830152306024830152604482018390527f000000000000000000000000000000000000000000000000000000000000000016906342842e0e90606401600060405180830381600087803b15801561145c57600080fd5b505af1158015611470573d6000803e3d6000fd5b5050505050505050565b61ffff85166000908152600160205260408120805461149890611f74565b80601f01602080910402602001604051908101604052809291908181526020018280546114c490611f74565b80156115115780601f106114e657610100808354040283529160200191611511565b820191906000526020600020905b8154815290600101906020018083116114f457829003601f168201915b505050505090508051600014156115835760405162461bcd60e51b815260206004820152603060248201527f4c7a4170703a2064657374696e6174696f6e20636861696e206973206e6f742060448201526f61207472757374656420736f7572636560801b60648201526084016105ba565b60405162c5803160e81b81526001600160a01b037f0000000000000000000000000000000000000000000000000000000000000000169063c58031009034906115da908a9086908b908b908b908b90600401611e13565b6000604051808303818588803b1580156115f357600080fd5b505af1158015611607573d6000803e3d6000fd5b5050505050505050505050565b604051632142170760e11b81523060048201526001600160a01b038381166024830152604482018390527f000000000000000000000000000000000000000000000000000000000000000016906342842e0e9060640161096b565b82805461167b90611f74565b90600052602060002090601f01602090048101928261169d57600085556116e3565b82601f106116b65782800160ff198235161785556116e3565b828001600101855582156116e3579182015b828111156116e35782358255916020019190600101906116c8565b506116ef9291506116f3565b5090565b5b808211156116ef57600081556001016116f4565b60008083601f840112611719578182fd5b5081356001600160401b0381111561172f578182fd5b60208301915083602082850101111561174757600080fd5b9250929050565b600082601f83011261175e578081fd5b813561177161176c82611f21565b611ef1565b818152846020838601011115611785578283fd5b816020850160208301379081016020019190915292915050565b600082601f8301126117af578081fd5b81516117bd61176c82611f21565b8181528460208386010111156117d1578283fd5b610743826020830160208701611f48565b803561ffff811681146117f457600080fd5b919050565b60006020828403121561180a578081fd5b8135610efa81611fc5565b6000806000806080858703121561182a578283fd5b843561183581611fc5565b9350602085013561184581611fc5565b92506040850135915060608501356001600160401b03811115611866578182fd5b6118728782880161174e565b91505092959194509250565b600080600080600080600060e0888a031215611898578283fd5b87356118a381611fc5565b96506118b1602089016117e2565b955060408801356001600160401b03808211156118cc578485fd5b6118d88b838c0161174e565b965060608a0135955060808a013591506118f182611fc5565b90935060a08901359061190382611fc5565b90925060c08901359080821115611918578283fd5b506119258a828b0161174e565b91505092959891949750929550565b600060208284031215611945578081fd5b8151610efa81611fda565b600060208284031215611961578081fd5b81356001600160e01b031981168114610efa578182fd5b600060208284031215611989578081fd5b81516001600160401b0381111561199e578182fd5b6107438482850161179f565b600080604083850312156119bc578182fd5b82516001600160401b038111156119d1578283fd5b6119dd8582860161179f565b925050602083015190509250929050565b6000602082840312156119ff578081fd5b610efa826117e2565b600080600060408486031215611a1c578283fd5b611a25846117e2565b925060208401356001600160401b03811115611a3f578283fd5b611a4b86828701611708565b9497909650939450505050565b600080600080600060a08688031215611a6f578081fd5b611a78866117e2565b945060208601356001600160401b0380821115611a93578283fd5b611a9f89838a0161174e565b95506040880135945060608801359150611ab882611fda565b90925060808701359080821115611acd578283fd5b50611ada8882890161174e565b9150509295509295909350565b600080600060608486031215611afb578081fd5b611b04846117e2565b925060208401356001600160401b03811115611b1e578182fd5b611b2a8682870161174e565b9250506040840135611b3b81611fe8565b809150509250925092565b60008060008060808587031215611b5b578182fd5b611b64856117e2565b935060208501356001600160401b0380821115611b7f578384fd5b611b8b8883890161174e565b945060408701359150611b9d82611fe8565b90925060608601359080821115611bb2578283fd5b506118728782880161174e565b60008060008060808587031215611bd4578182fd5b611bdd856117e2565b9350611beb602086016117e2565b92506040850135611bfb81611fc5565b9396929550929360600135925050565b600080600080600060808688031215611c22578283fd5b611c2b866117e2565b9450611c39602087016117e2565b93506040860135925060608601356001600160401b03811115611c5a578182fd5b611c6688828901611708565b969995985093965092949392505050565b60008060408385031215611c89578182fd5b505080516020909101519092909150565b600060208284031215611cab578081fd5b8151610efa81611fe8565b81835281816020850137506000828201602090810191909152601f909101601f19169091010190565b60008151808452611cf7816020860160208601611f48565b601f01601f19169290920160200192915050565b8183823760009101908152919050565b60008251611d2d818460208701611f48565b9190910192915050565b602081526000610efa6020830184611cdf565b604081526000611d5d6040830185611cdf565b90508260208301529392505050565b6020808252818101527f4f776e61626c653a2063616c6c6572206973206e6f7420746865206f776e6572604082015260600190565b61ffff861681526001600160a01b038516602082015260a060408201819052600090611dcf90830186611cdf565b84151560608401528281036080840152611de98185611cdf565b98975050505050505050565b61ffff84168152604060208201526000610ed5604083018486611cb6565b61ffff8716815260c060208201526000611e3060c0830188611cdf565b8281036040840152611e428188611cdf565b6001600160a01b0387811660608601528616608085015283810360a08501529050611e6d8185611cdf565b9998505050505050505050565b61ffff85168152608060208201526000611e976080830186611cdf565b6001600160401b03851660408401528281036060840152611eb88185611cdf565b979650505050505050565b600061ffff808816835280871660208401525084604083015260806060830152611eb8608083018486611cb6565b604051601f8201601f191681016001600160401b0381118282101715611f1957611f19611faf565b604052919050565b60006001600160401b03821115611f3a57611f3a611faf565b50601f01601f191660200190565b60005b83811015611f63578181015183820152602001611f4b565b83811115610a1b5750506000910152565b600181811c90821680611f8857607f821691505b60208210811415611fa957634e487b7160e01b600052602260045260246000fd5b50919050565b634e487b7160e01b600052604160045260246000fd5b6001600160a01b0381168114610e1b57600080fd5b8015158114610e1b57600080fd5b6001600160401b0381168114610e1b57600080fdfea2646970667358221220032019aca8b878161357431ba39f144d2345245ed2e1b6220132dac49c54113164736f6c63430008040033",
  "linkReferences": {},
  "deployedLinkReferences": {}
}