{
  "_format": "hh-sol-artifact-1",
  "contractName": "ONFT721",
  "sourceName": "contracts/token/onft/ONFT721.sol",
  "abi": [
    {
      "inputs": [
        {
          "internalType": "string",
          "name": "_name",
          "type": "string"
        },
        {
          "internalType": "string",
          "name": "_symbol",
          "type": "string"
        },
        {
          "internalType": "address",
          "name": "_lzEndpoint",
          "type": "address"
        }
      ],
      "stateMutability": "nonpayable",
      "type": "constructor"
    },
    {
      "anonymous": false,
      "inputs": [
        {
          "indexed": true,
          "internalType": "address",
          "name": "owner",
          "type": "address"
        },
        {
          "indexed": true,
          "internalType": "address",
          "name": "approved",
          "type": "address"
        },
        {
          "indexed": true,
          "internalType": "uint256",
          "name": "tokenId",
          "type": "uint256"
        }
      ],
      "name": "Approval",
      "type": "event"
    },
    {
      "anonymous": false,
      "inputs": [
        {
          "indexed": true,
          "internalType": "address",
          "name": "owner",
          "type": "address"
        },
        {
          "indexed": true,
          "internalType": "address",
          "name": "operator",
          "type": "address"
        },
        {
          "indexed": false,
          "internalType": "bool",
          "name": "approved",
          "type": "bool"
        }
      ],
      "name": "ApprovalForAll",
      "type": "event"
    },
    {
      "anonymous": false,
      "inputs": [
        {
          "indexed": false,
          "internalType": "uint16",
          "name": "_srcChainId",
          "type": "uint16"
        },
        {
          "indexed": false,
          "internalType": "bytes",
          "name": "_srcAddress",
          "type": "bytes"
        },
        {
          "indexed": false,
          "internalType": "uint64",
          "name": "_nonce",
          "type": "uint64"
        },
        {
          "indexed": false,
          "internalType": "bytes",
          "name": "_payload",
          "type": "bytes"
        }
      ],
      "name": "MessageFailed",
      "type": "event"
    },
    {
      "anonymous": false,
      "inputs": [
        {
          "indexed": true,
          "internalType": "address",
          "name": "previousOwner",
          "type": "address"
        },
        {
          "indexed": true,
          "internalType": "address",
          "name": "newOwner",
          "type": "address"
        }
      ],
      "name": "OwnershipTransferred",
      "type": "event"
    },
    {
      "anonymous": false,
      "inputs": [
        {
          "indexed": true,
          "internalType": "uint16",
          "name": "_srcChainId",
          "type": "uint16"
        },
        {
          "indexed": true,
          "internalType": "bytes",
          "name": "_srcAddress",
          "type": "bytes"
        },
        {
          "indexed": true,
          "internalType": "address",
          "name": "_toAddress",
          "type": "address"
        },
        {
          "indexed": false,
          "internalType": "uint256",
          "name": "_tokenId",
          "type": "uint256"
        },
        {
          "indexed": false,
          "internalType": "uint64",
          "name": "_nonce",
          "type": "uint64"
        }
      ],
      "name": "ReceiveFromChain",
      "type": "event"
    },
    {
      "anonymous": false,
      "inputs": [
        {
          "indexed": true,
          "internalType": "address",
          "name": "_sender",
          "type": "address"
        },
        {
          "indexed": true,
          "internalType": "uint16",
          "name": "_dstChainId",
          "type": "uint16"
        },
        {
          "indexed": true,
          "internalType": "bytes",
          "name": "_toAddress",
          "type": "bytes"
        },
        {
          "indexed": false,
          "internalType": "uint256",
          "name": "_tokenId",
          "type": "uint256"
        },
        {
          "indexed": false,
          "internalType": "uint64",
          "name": "_nonce",
          "type": "uint64"
        }
      ],
      "name": "SendToChain",
      "type": "event"
    },
    {
      "anonymous": false,
      "inputs": [
        {
          "indexed": false,
          "internalType": "uint16",
          "name": "_srcChainId",
          "type": "uint16"
        },
        {
          "indexed": false,
          "internalType": "bytes",
          "name": "_srcAddress",
          "type": "bytes"
        }
      ],
      "name": "SetTrustedRemote",
      "type": "event"
    },
    {
      "anonymous": false,
      "inputs": [
        {
          "indexed": true,
          "internalType": "address",
          "name": "from",
          "type": "address"
        },
        {
          "indexed": true,
          "internalType": "address",
          "name": "to",
          "type": "address"
        },
        {
          "indexed": true,
          "internalType": "uint256",
          "name": "tokenId",
          "type": "uint256"
        }
      ],
      "name": "Transfer",
      "type": "event"
    },
    {
      "inputs": [
        {
          "internalType": "address",
          "name": "to",
          "type": "address"
        },
        {
          "internalType": "uint256",
          "name": "tokenId",
          "type": "uint256"
        }
      ],
      "name": "approve",
      "outputs": [],
      "stateMutability": "nonpayable",
      "type": "function"
    },
    {
      "inputs": [
        {
          "internalType": "address",
          "name": "owner",
          "type": "address"
        }
      ],
      "name": "balanceOf",
      "outputs": [
        {
          "internalType": "uint256",
          "name": "",
          "type": "uint256"
        }
      ],
      "stateMutability": "view",
      "type": "function"
    },
    {
      "inputs": [
        {
          "internalType": "uint16",
          "name": "_dstChainId",
          "type": "uint16"
        },
        {
          "internalType": "bytes",
          "name": "_toAddress",
          "type": "bytes"
        },
        {
          "internalType": "uint256",
          "name": "_tokenId",
          "type": "uint256"
        },
        {
          "internalType": "bool",
          "name": "_useZro",
          "type": "bool"
        },
        {
          "internalType": "bytes",
          "name": "_adapterParams",
          "type": "bytes"
        }
      ],
      "name": "estimateSendFee",
      "outputs": [
        {
          "internalType": "uint256",
          "name": "nativeFee",
          "type": "uint256"
        },
        {
          "internalType": "uint256",
          "name": "zroFee",
          "type": "uint256"
        }
      ],
      "stateMutability": "view",
      "type": "function"
    },
    {
      "inputs": [
        {
          "internalType": "uint16",
          "name": "",
          "type": "uint16"
        },
        {
          "internalType": "bytes",
          "name": "",
          "type": "bytes"
        },
        {
          "internalType": "uint64",
          "name": "",
          "type": "uint64"
        }
      ],
      "name": "failedMessages",
      "outputs": [
        {
          "internalType": "bytes32",
          "name": "",
          "type": "bytes32"
        }
      ],
      "stateMutability": "view",
      "type": "function"
    },
    {
      "inputs": [
        {
          "internalType": "uint16",
          "name": "_srcChainId",
          "type": "uint16"
        },
        {
          "internalType": "bytes",
          "name": "_srcAddress",
          "type": "bytes"
        }
      ],
      "name": "forceResumeReceive",
      "outputs": [],
      "stateMutability": "nonpayable",
      "type": "function"
    },
    {
      "inputs": [
        {
          "internalType": "uint256",
          "name": "tokenId",
          "type": "uint256"
        }
      ],
      "name": "getApproved",
      "outputs": [
        {
          "internalType": "address",
          "name": "",
          "type": "address"
        }
      ],
      "stateMutability": "view",
      "type": "function"
    },
    {
      "inputs": [
        {
          "internalType": "uint16",
          "name": "_version",
          "type": "uint16"
        },
        {
          "internalType": "uint16",
          "name": "_chainId",
          "type": "uint16"
        },
        {
          "internalType": "address",
          "name": "",
          "type": "address"
        },
        {
          "internalType": "uint256",
          "name": "_configType",
          "type": "uint256"
        }
      ],
      "name": "getConfig",
      "outputs": [
        {
          "internalType": "bytes",
          "name": "",
          "type": "bytes"
        }
      ],
      "stateMutability": "view",
      "type": "function"
    },
    {
      "inputs": [
        {
          "internalType": "address",
          "name": "owner",
          "type": "address"
        },
        {
          "internalType": "address",
          "name": "operator",
          "type": "address"
        }
      ],
      "name": "isApprovedForAll",
      "outputs": [
        {
          "internalType": "bool",
          "name": "",
          "type": "bool"
        }
      ],
      "stateMutability": "view",
      "type": "function"
    },
    {
      "inputs": [
        {
          "internalType": "uint16",
          "name": "_srcChainId",
          "type": "uint16"
        },
        {
          "internalType": "bytes",
          "name": "_srcAddress",
          "type": "bytes"
        }
      ],
      "name": "isTrustedRemote",
      "outputs": [
        {
          "internalType": "bool",
          "name": "",
          "type": "bool"
        }
      ],
      "stateMutability": "view",
      "type": "function"
    },
    {
      "inputs": [],
      "name": "lzEndpoint",
      "outputs": [
        {
          "internalType": "contract ILayerZeroEndpoint",
          "name": "",
          "type": "address"
        }
      ],
      "stateMutability": "view",
      "type": "function"
    },
    {
      "inputs": [
        {
          "internalType": "uint16",
          "name": "_srcChainId",
          "type": "uint16"
        },
        {
          "internalType": "bytes",
          "name": "_srcAddress",
          "type": "bytes"
        },
        {
          "internalType": "uint64",
          "name": "_nonce",
          "type": "uint64"
        },
        {
          "internalType": "bytes",
          "name": "_payload",
          "type": "bytes"
        }
      ],
      "name": "lzReceive",
      "outputs": [],
      "stateMutability": "nonpayable",
      "type": "function"
    },
    {
      "inputs": [],
      "name": "name",
      "outputs": [
        {
          "internalType": "string",
          "name": "",
          "type": "string"
        }
      ],
      "stateMutability": "view",
      "type": "function"
    },
    {
      "inputs": [
        {
          "internalType": "uint16",
          "name": "_srcChainId",
          "type": "uint16"
        },
        {
          "internalType": "bytes",
          "name": "_srcAddress",
          "type": "bytes"
        },
        {
          "internalType": "uint64",
          "name": "_nonce",
          "type": "uint64"
        },
        {
          "internalType": "bytes",
          "name": "_payload",
          "type": "bytes"
        }
      ],
      "name": "nonblockingLzReceive",
      "outputs": [],
      "stateMutability": "nonpayable",
      "type": "function"
    },
    {
      "inputs": [],
      "name": "owner",
      "outputs": [
        {
          "internalType": "address",
          "name": "",
          "type": "address"
        }
      ],
      "stateMutability": "view",
      "type": "function"
    },
    {
      "inputs": [
        {
          "internalType": "uint256",
          "name": "tokenId",
          "type": "uint256"
        }
      ],
      "name": "ownerOf",
      "outputs": [
        {
          "internalType": "address",
          "name": "",
          "type": "address"
        }
      ],
      "stateMutability": "view",
      "type": "function"
    },
    {
      "inputs": [],
      "name": "renounceOwnership",
      "outputs": [],
      "stateMutability": "nonpayable",
      "type": "function"
    },
    {
      "inputs": [
        {
          "internalType": "uint16",
          "name": "_srcChainId",
          "type": "uint16"
        },
        {
          "internalType": "bytes",
          "name": "_srcAddress",
          "type": "bytes"
        },
        {
          "internalType": "uint64",
          "name": "_nonce",
          "type": "uint64"
        },
        {
          "internalType": "bytes",
          "name": "_payload",
          "type": "bytes"
        }
      ],
      "name": "retryMessage",
      "outputs": [],
      "stateMutability": "payable",
      "type": "function"
    },
    {
      "inputs": [
        {
          "internalType": "address",
          "name": "from",
          "type": "address"
        },
        {
          "internalType": "address",
          "name": "to",
          "type": "address"
        },
        {
          "internalType": "uint256",
          "name": "tokenId",
          "type": "uint256"
        }
      ],
      "name": "safeTransferFrom",
      "outputs": [],
      "stateMutability": "nonpayable",
      "type": "function"
    },
    {
      "inputs": [
        {
          "internalType": "address",
          "name": "from",
          "type": "address"
        },
        {
          "internalType": "address",
          "name": "to",
          "type": "address"
        },
        {
          "internalType": "uint256",
          "name": "tokenId",
          "type": "uint256"
        },
        {
          "internalType": "bytes",
          "name": "_data",
          "type": "bytes"
        }
      ],
      "name": "safeTransferFrom",
      "outputs": [],
      "stateMutability": "nonpayable",
      "type": "function"
    },
    {
      "inputs": [
        {
          "internalType": "address",
          "name": "_from",
          "type": "address"
        },
        {
          "internalType": "uint16",
          "name": "_dstChainId",
          "type": "uint16"
        },
        {
          "internalType": "bytes",
          "name": "_toAddress",
          "type": "bytes"
        },
        {
          "internalType": "uint256",
          "name": "_tokenId",
          "type": "uint256"
        },
        {
          "internalType": "address payable",
          "name": "_refundAddress",
          "type": "address"
        },
        {
          "internalType": "address",
          "name": "_zroPaymentAddress",
          "type": "address"
        },
        {
          "internalType": "bytes",
          "name": "_adapterParams",
          "type": "bytes"
        }
      ],
      "name": "sendFrom",
      "outputs": [],
      "stateMutability": "payable",
      "type": "function"
    },
    {
      "inputs": [
        {
          "internalType": "address",
          "name": "operator",
          "type": "address"
        },
        {
          "internalType": "bool",
          "name": "approved",
          "type": "bool"
        }
      ],
      "name": "setApprovalForAll",
      "outputs": [],
      "stateMutability": "nonpayable",
      "type": "function"
    },
    {
      "inputs": [
        {
          "internalType": "uint16",
          "name": "_version",
          "type": "uint16"
        },
        {
          "internalType": "uint16",
          "name": "_chainId",
          "type": "uint16"
        },
        {
          "internalType": "uint256",
          "name": "_configType",
          "type": "uint256"
        },
        {
          "internalType": "bytes",
          "name": "_config",
          "type": "bytes"
        }
      ],
      "name": "setConfig",
      "outputs": [],
      "stateMutability": "nonpayable",
      "type": "function"
    },
    {
      "inputs": [
        {
          "internalType": "uint16",
          "name": "_version",
          "type": "uint16"
        }
      ],
      "name": "setReceiveVersion",
      "outputs": [],
      "stateMutability": "nonpayable",
      "type": "function"
    },
    {
      "inputs": [
        {
          "internalType": "uint16",
          "name": "_version",
          "type": "uint16"
        }
      ],
      "name": "setSendVersion",
      "outputs": [],
      "stateMutability": "nonpayable",
      "type": "function"
    },
    {
      "inputs": [
        {
          "internalType": "uint16",
          "name": "_srcChainId",
          "type": "uint16"
        },
        {
          "internalType": "bytes",
          "name": "_srcAddress",
          "type": "bytes"
        }
      ],
      "name": "setTrustedRemote",
      "outputs": [],
      "stateMutability": "nonpayable",
      "type": "function"
    },
    {
      "inputs": [
        {
          "internalType": "bytes4",
          "name": "interfaceId",
          "type": "bytes4"
        }
      ],
      "name": "supportsInterface",
      "outputs": [
        {
          "internalType": "bool",
          "name": "",
          "type": "bool"
        }
      ],
      "stateMutability": "view",
      "type": "function"
    },
    {
      "inputs": [],
      "name": "symbol",
      "outputs": [
        {
          "internalType": "string",
          "name": "",
          "type": "string"
        }
      ],
      "stateMutability": "view",
      "type": "function"
    },
    {
      "inputs": [
        {
          "internalType": "uint256",
          "name": "tokenId",
          "type": "uint256"
        }
      ],
      "name": "tokenURI",
      "outputs": [
        {
          "internalType": "string",
          "name": "",
          "type": "string"
        }
      ],
      "stateMutability": "view",
      "type": "function"
    },
    {
      "inputs": [
        {
          "internalType": "address",
          "name": "from",
          "type": "address"
        },
        {
          "internalType": "address",
          "name": "to",
          "type": "address"
        },
        {
          "internalType": "uint256",
          "name": "tokenId",
          "type": "uint256"
        }
      ],
      "name": "transferFrom",
      "outputs": [],
      "stateMutability": "nonpayable",
      "type": "function"
    },
    {
      "inputs": [
        {
          "internalType": "address",
          "name": "newOwner",
          "type": "address"
        }
      ],
      "name": "transferOwnership",
      "outputs": [],
      "stateMutability": "nonpayable",
      "type": "function"
    },
    {
      "inputs": [
        {
          "internalType": "uint16",
          "name": "",
          "type": "uint16"
        }
      ],
      "name": "trustedRemoteLookup",
      "outputs": [
        {
          "internalType": "bytes",
          "name": "",
          "type": "bytes"
        }
      ],
      "stateMutability": "view",
      "type": "function"
    }
  ],
  "bytecode": "0x60a06040523480156200001157600080fd5b506040516200339838038062003398833981016040819052620000349162000236565b828282808062000044336200008d565b60601b6001600160601b031916608052505081516200006b906003906020850190620000dd565b50805162000081906004906020840190620000dd565b50505050505062000312565b600080546001600160a01b038381166001600160a01b0319831681178455604051919092169283917f8be0079c531659141344cd1fd0a4f28419497f9722a3daafe3b4186f6b6457e09190a35050565b828054620000eb90620002bf565b90600052602060002090601f0160209004810192826200010f57600085556200015a565b82601f106200012a57805160ff19168380011785556200015a565b828001600101855582156200015a579182015b828111156200015a5782518255916020019190600101906200013d565b50620001689291506200016c565b5090565b5b808211156200016857600081556001016200016d565b600082601f83011262000194578081fd5b81516001600160401b0380821115620001b157620001b1620002fc565b604051601f8301601f19908116603f01168101908282118183101715620001dc57620001dc620002fc565b81604052838152602092508683858801011115620001f8578485fd5b8491505b838210156200021b5785820183015181830184015290820190620001fc565b838211156200022c57848385830101525b9695505050505050565b6000806000606084860312156200024b578283fd5b83516001600160401b038082111562000262578485fd5b620002708783880162000183565b9450602086015191508082111562000286578384fd5b50620002958682870162000183565b604086015190935090506001600160a01b0381168114620002b4578182fd5b809150509250925092565b600181811c90821680620002d457607f821691505b60208210811415620002f657634e487b7160e01b600052602260045260246000fd5b50919050565b634e487b7160e01b600052604160045260246000fd5b60805160601c613028620003706000396000818161050c0152818161064d015281816108a601528181610af501528181610b9d01528181610d6001528181611196015281816114b3015281816119d3015261200c01526130286000f3fe6080604052600436106101d75760003560e01c806366ad5c8a11610102578063b88d4fde11610095578063e985e9c511610064578063e985e9c5146105a1578063eb8d72b7146105ea578063f2fde38b1461060a578063f5ecbdbc1461062a57600080fd5b8063b88d4fde1461052e578063c87b56dd1461054e578063cbed8b9c1461056e578063d1deba1f1461058e57600080fd5b80638da5cb5b116100d15780638da5cb5b146104a757806395d89b41146104c5578063a22cb465146104da578063b353aaa7146104fa57600080fd5b806366ad5c8a1461043257806370a0823114610452578063715018a6146104725780637533d7881461048757600080fd5b806323b872dd1161017a57806342d65a8d1161014957806342d65a8d1461038257806351905636146103a25780635b8c41e6146103b55780636352211e1461041257600080fd5b806323b872dd146102ed5780632a205e3d1461030d5780633d8b38f61461034257806342842e0e1461036257600080fd5b806307e0db17116101b657806307e0db1714610255578063081812fc14610275578063095ea7b3146102ad57806310ddb137146102cd57600080fd5b80621d3567146101dc57806301ffc9a7146101fe57806306fdde0314610233575b600080fd5b3480156101e857600080fd5b506101fc6101f736600461296e565b61064a565b005b34801561020a57600080fd5b5061021e61021936600461276c565b6107ae565b60405190151581526020015b60405180910390f35b34801561023f57600080fd5b506102486107d1565b60405161022a9190612be3565b34801561026157600080fd5b506101fc61027036600461281a565b610863565b34801561028157600080fd5b50610295610290366004612a9f565b610907565b6040516001600160a01b03909116815260200161022a565b3480156102b957600080fd5b506101fc6102c8366004612741565b61099c565b3480156102d957600080fd5b506101fc6102e836600461281a565b610ab2565b3480156102f957600080fd5b506101fc6103083660046125ae565b610b2c565b34801561031957600080fd5b5061032d610328366004612884565b610b5e565b6040805192835260208301919091520161022a565b34801561034e57600080fd5b5061021e61035d366004612834565b610c38565b34801561036e57600080fd5b506101fc61037d3660046125ae565b610d04565b34801561038e57600080fd5b506101fc61039d366004612834565b610d1f565b6101fc6103b036600461268b565b610dd0565b3480156103c157600080fd5b506104046103d036600461290f565b6002602090815260009384526040808520845180860184018051928152908401958401959095209452929052825290205481565b60405190815260200161022a565b34801561041e57600080fd5b5061029561042d366004612a9f565b610ddf565b34801561043e57600080fd5b506101fc61044d36600461296e565b610e56565b34801561045e57600080fd5b5061040461046d36600461255a565b610ec6565b34801561047e57600080fd5b506101fc610f4d565b34801561049357600080fd5b506102486104a236600461281a565b610f83565b3480156104b357600080fd5b506000546001600160a01b0316610295565b3480156104d157600080fd5b5061024861101d565b3480156104e657600080fd5b506101fc6104f5366004612657565b61102c565b34801561050657600080fd5b506102957f000000000000000000000000000000000000000000000000000000000000000081565b34801561053a57600080fd5b506101fc6105493660046125ee565b61103b565b34801561055a57600080fd5b50610248610569366004612a9f565b61106d565b34801561057a57600080fd5b506101fc610589366004612a33565b611155565b6101fc61059c36600461296e565b61120c565b3480156105ad57600080fd5b5061021e6105bc366004612576565b6001600160a01b03918216600090815260086020908152604080832093909416825291909152205460ff1690565b3480156105f657600080fd5b506101fc610605366004612834565b61135e565b34801561061657600080fd5b506101fc61062536600461255a565b6113e7565b34801561063657600080fd5b506102486106453660046129e7565b611482565b337f00000000000000000000000000000000000000000000000000000000000000006001600160a01b03161461067f57600080fd5b61ffff84166000908152600160205260408120805461069d90612f06565b80601f01602080910402602001604051908101604052809291908181526020018280546106c990612f06565b80156107165780601f106106eb57610100808354040283529160200191610716565b820191906000526020600020905b8154815290600101906020018083116106f957829003601f168201915b505050505090508051845114801561073b575080805190602001208480519060200120145b61079b5760405162461bcd60e51b815260206004820152602660248201527f4c7a4170703a20696e76616c696420736f757263652073656e64696e6720636f6044820152651b9d1c9858dd60d21b60648201526084015b60405180910390fd5b6107a785858585611544565b5050505050565b60006001600160e01b0319821615806107cb57506107cb82611635565b92915050565b6060600380546107e090612f06565b80601f016020809104026020016040519081016040528092919081815260200182805461080c90612f06565b80156108595780601f1061082e57610100808354040283529160200191610859565b820191906000526020600020905b81548152906001019060200180831161083c57829003601f168201915b5050505050905090565b6000546001600160a01b0316331461088d5760405162461bcd60e51b815260040161079290612c6a565b6040516307e0db1760e01b815261ffff821660048201527f00000000000000000000000000000000000000000000000000000000000000006001600160a01b0316906307e0db17906024015b600060405180830381600087803b1580156108f357600080fd5b505af11580156107a7573d6000803e3d6000fd5b6000818152600560205260408120546001600160a01b03166109805760405162461bcd60e51b815260206004820152602c60248201527f4552433732313a20617070726f76656420717565727920666f72206e6f6e657860448201526b34b9ba32b73a103a37b5b2b760a11b6064820152608401610792565b506000908152600760205260409020546001600160a01b031690565b60006109a782610ddf565b9050806001600160a01b0316836001600160a01b03161415610a155760405162461bcd60e51b815260206004820152602160248201527f4552433732313a20617070726f76616c20746f2063757272656e74206f776e656044820152603960f91b6064820152608401610792565b336001600160a01b0382161480610a315750610a3181336105bc565b610aa35760405162461bcd60e51b815260206004820152603860248201527f4552433732313a20617070726f76652063616c6c6572206973206e6f74206f7760448201527f6e6572206e6f7220617070726f76656420666f7220616c6c00000000000000006064820152608401610792565b610aad8383611675565b505050565b6000546001600160a01b03163314610adc5760405162461bcd60e51b815260040161079290612c6a565b6040516310ddb13760e01b815261ffff821660048201527f00000000000000000000000000000000000000000000000000000000000000006001600160a01b0316906310ddb137906024016108d9565b610b37335b826116e3565b610b535760405162461bcd60e51b815260040161079290612c9f565b610aad8383836117d6565b60008060008686604051602001610b76929190612bf6565b60408051601f198184030181529082905263040a7bb160e41b825291506001600160a01b037f000000000000000000000000000000000000000000000000000000000000000016906340a7bb1090610bda908b90309086908b908b90600401612cf0565b604080518083038186803b158015610bf157600080fd5b505afa158015610c05573d6000803e3d6000fd5b505050506040513d601f19601f82011682018060405250810190610c299190612ab7565b92509250509550959350505050565b61ffff831660009081526001602052604081208054829190610c5990612f06565b80601f0160208091040260200160405190810160405280929190818152602001828054610c8590612f06565b8015610cd25780601f10610ca757610100808354040283529160200191610cd2565b820191906000526020600020905b815481529060010190602001808311610cb557829003601f168201915b505050505090508383604051610ce9929190612b4b565b60405180910390208180519060200120149150509392505050565b610aad8383836040518060200160405280600081525061103b565b6000546001600160a01b03163314610d495760405162461bcd60e51b815260040161079290612c6a565b6040516342d65a8d60e01b81526001600160a01b037f000000000000000000000000000000000000000000000000000000000000000016906342d65a8d90610d9990869086908690600401612d44565b600060405180830381600087803b158015610db357600080fd5b505af1158015610dc7573d6000803e3d6000fd5b50505050505050565b610dc787878787878787611972565b6000818152600560205260408120546001600160a01b0316806107cb5760405162461bcd60e51b815260206004820152602960248201527f4552433732313a206f776e657220717565727920666f72206e6f6e657869737460448201526832b73a103a37b5b2b760b91b6064820152608401610792565b333014610eb45760405162461bcd60e51b815260206004820152602660248201527f4e6f6e626c6f636b696e674c7a4170703a2063616c6c6572206d7573742062656044820152650204c7a4170760d41b6064820152608401610792565b610ec084848484611ac9565b50505050565b60006001600160a01b038216610f315760405162461bcd60e51b815260206004820152602a60248201527f4552433732313a2062616c616e636520717565727920666f7220746865207a65604482015269726f206164647265737360b01b6064820152608401610792565b506001600160a01b031660009081526006602052604090205490565b6000546001600160a01b03163314610f775760405162461bcd60e51b815260040161079290612c6a565b610f816000611b64565b565b60016020526000908152604090208054610f9c90612f06565b80601f0160208091040260200160405190810160405280929190818152602001828054610fc890612f06565b80156110155780601f10610fea57610100808354040283529160200191611015565b820191906000526020600020905b815481529060010190602001808311610ff857829003601f168201915b505050505081565b6060600480546107e090612f06565b611037338383611bb4565b5050565b61104533836116e3565b6110615760405162461bcd60e51b815260040161079290612c9f565b610ec084848484611c83565b6000818152600560205260409020546060906001600160a01b03166110ec5760405162461bcd60e51b815260206004820152602f60248201527f4552433732314d657461646174613a2055524920717565727920666f72206e6f60448201526e3732bc34b9ba32b73a103a37b5b2b760891b6064820152608401610792565b600061110360408051602081019091526000815290565b90506000815111611123576040518060200160405280600081525061114e565b8061112d84611cb6565b60405160200161113e929190612b77565b6040516020818303038152906040525b9392505050565b6000546001600160a01b0316331461117f5760405162461bcd60e51b815260040161079290612c6a565b6040516332fb62e760e21b81526001600160a01b037f0000000000000000000000000000000000000000000000000000000000000000169063cbed8b9c906111d39088908890889088908890600401612e12565b600060405180830381600087803b1580156111ed57600080fd5b505af1158015611201573d6000803e3d6000fd5b505050505050505050565b61ffff8416600090815260026020526040808220905161122d908690612b5b565b90815260408051602092819003830190206001600160401b038616600090815292529020549050806112ad5760405162461bcd60e51b815260206004820152602360248201527f4e6f6e626c6f636b696e674c7a4170703a206e6f2073746f726564206d65737360448201526261676560e81b6064820152608401610792565b81516020830120811461130c5760405162461bcd60e51b815260206004820152602160248201527f4e6f6e626c6f636b696e674c7a4170703a20696e76616c6964207061796c6f616044820152601960fa1b6064820152608401610792565b61ffff8516600090815260026020526040808220905161132d908790612b5b565b90815260408051602092819003830190206001600160401b038716600090815292529020556107a785858585611ac9565b6000546001600160a01b031633146113885760405162461bcd60e51b815260040161079290612c6a565b61ffff831660009081526001602052604090206113a69083836123c0565b507ffa41487ad5d6728f0b19276fa1eddc16558578f5109fc39d2dc33c3230470dab8383836040516113da93929190612d44565b60405180910390a1505050565b6000546001600160a01b031633146114115760405162461bcd60e51b815260040161079290612c6a565b6001600160a01b0381166114765760405162461bcd60e51b815260206004820152602660248201527f4f776e61626c653a206e6577206f776e657220697320746865207a65726f206160448201526564647265737360d01b6064820152608401610792565b61147f81611b64565b50565b604051633d7b2f6f60e21b815261ffff808616600483015284166024820152306044820152606481018290526060907f00000000000000000000000000000000000000000000000000000000000000006001600160a01b03169063f5ecbdbc9060840160006040518083038186803b1580156114fd57600080fd5b505afa158015611511573d6000803e3d6000fd5b505050506040513d6000823e601f3d908101601f1916820160405261153991908101906127a4565b90505b949350505050565b604051633356ae4560e11b815230906366ad5c8a9061156d908790879087908790600401612dc9565b600060405180830381600087803b15801561158757600080fd5b505af1925050508015611598575060015b610ec0578080519060200120600260008661ffff1661ffff168152602001908152602001600020846040516115cd9190612b5b565b9081526040805191829003602090810183206001600160401b0387166000908152915220919091557fe6f254030bcb01ffd20558175c13fcaed6d1520be7becee4c961b65f79243b0d90611628908690869086908690612dc9565b60405180910390a1610ec0565b60006001600160e01b031982166380ac58cd60e01b148061166657506001600160e01b03198216635b5e139f60e01b145b806107cb57506107cb82611dcf565b600081815260076020526040902080546001600160a01b0319166001600160a01b03841690811790915581906116aa82610ddf565b6001600160a01b03167f8c5be1e5ebec7d5bd14f71427d1e84f3dd0314c0f7b2291e5b200ac8c7c3b92560405160405180910390a45050565b6000818152600560205260408120546001600160a01b031661175c5760405162461bcd60e51b815260206004820152602c60248201527f4552433732313a206f70657261746f7220717565727920666f72206e6f6e657860448201526b34b9ba32b73a103a37b5b2b760a11b6064820152608401610792565b600061176783610ddf565b9050806001600160a01b0316846001600160a01b031614806117a25750836001600160a01b031661179784610907565b6001600160a01b0316145b8061153c57506001600160a01b0380821660009081526008602090815260408083209388168352929052205460ff1661153c565b826001600160a01b03166117e982610ddf565b6001600160a01b03161461184d5760405162461bcd60e51b815260206004820152602560248201527f4552433732313a207472616e736665722066726f6d20696e636f72726563742060448201526437bbb732b960d91b6064820152608401610792565b6001600160a01b0382166118af5760405162461bcd60e51b8152602060048201526024808201527f4552433732313a207472616e7366657220746f20746865207a65726f206164646044820152637265737360e01b6064820152608401610792565b6118ba600082611675565b6001600160a01b03831660009081526006602052604081208054600192906118e3908490612ec3565b90915550506001600160a01b0382166000908152600660205260408120805460019290611911908490612e97565b909155505060008181526005602052604080822080546001600160a01b0319166001600160a01b0386811691821790925591518493918716917fddf252ad1be2c89b69c2b068fc378daa952ba7f163c4a11628f55a4df523b3ef91a4505050565b61197e87878787611e04565b60008585604051602001611993929190612bf6565b60405160208183030381529060405290506119b18782868686611eed565b604051630f428ae960e31b815261ffff881660048201523060248201526000907f00000000000000000000000000000000000000000000000000000000000000006001600160a01b031690637a1457489060440160206040518083038186803b158015611a1d57600080fd5b505afa158015611a31573d6000803e3d6000fd5b505050506040513d601f19601f82011682018060405250810190611a559190612ada565b905086604051611a659190612b5b565b604080519182900382208883526001600160401b03841660208401529161ffff8b16916001600160a01b038d16917f024797cc77ce15dc717112d54fb1df125fdfd8c81344fb046c5e074427ce1543910160405180910390a4505050505050505050565b60008082806020019051810190611ae091906127d6565b60148201519193509150611af5878284612087565b806001600160a01b031686604051611b0d9190612b5b565b604080519182900382208583526001600160401b03891660208401529161ffff8b16917f64e10c37f404d128982dce114f5d233c14c5c7f6d8db93099e3d99dacb9e27ba910160405180910390a450505050505050565b600080546001600160a01b038381166001600160a01b0319831681178455604051919092169283917f8be0079c531659141344cd1fd0a4f28419497f9722a3daafe3b4186f6b6457e09190a35050565b816001600160a01b0316836001600160a01b03161415611c165760405162461bcd60e51b815260206004820152601960248201527f4552433732313a20617070726f766520746f2063616c6c6572000000000000006044820152606401610792565b6001600160a01b03838116600081815260086020908152604080832094871680845294825291829020805460ff191686151590811790915591519182527f17307eab39ab6107e8899845ad3d59bd9653f200f220920489ca2b5937696c31910160405180910390a3505050565b611c8e8484846117d6565b611c9a84848484612091565b610ec05760405162461bcd60e51b815260040161079290612c18565b606081611cda5750506040805180820190915260018152600360fc1b602082015290565b8160005b8115611d045780611cee81612f41565b9150611cfd9050600a83612eaf565b9150611cde565b6000816001600160401b03811115611d2c57634e487b7160e01b600052604160045260246000fd5b6040519080825280601f01601f191660200182016040528015611d56576020820181803683370190505b5090505b841561153c57611d6b600183612ec3565b9150611d78600a86612f5c565b611d83906030612e97565b60f81b818381518110611da657634e487b7160e01b600052603260045260246000fd5b60200101906001600160f81b031916908160001a905350611dc8600a86612eaf565b9450611d5a565b60006001600160e01b03198216637bb0080b60e01b14806107cb57506301ffc9a760e01b6001600160e01b03198316146107cb565b611e0d33610b31565b611e705760405162461bcd60e51b815260206004820152602e60248201527f4f4e46543732313a2073656e642063616c6c6572206973206e6f74206f776e6560448201526d1c881b9bdc88185c1c1c9bdd995960921b6064820152608401610792565b836001600160a01b0316611e8382610ddf565b6001600160a01b031614611ee45760405162461bcd60e51b815260206004820152602260248201527f4f4e46543732313a2073656e642066726f6d20696e636f7272656374206f776e60448201526132b960f11b6064820152608401610792565b610ec08161219b565b61ffff851660009081526001602052604081208054611f0b90612f06565b80601f0160208091040260200160405190810160405280929190818152602001828054611f3790612f06565b8015611f845780601f10611f5957610100808354040283529160200191611f84565b820191906000526020600020905b815481529060010190602001808311611f6757829003601f168201915b50505050509050805160001415611ff65760405162461bcd60e51b815260206004820152603060248201527f4c7a4170703a2064657374696e6174696f6e20636861696e206973206e6f742060448201526f61207472757374656420736f7572636560801b6064820152608401610792565b60405162c5803160e81b81526001600160a01b037f0000000000000000000000000000000000000000000000000000000000000000169063c580310090349061204d908a9086908b908b908b908b90600401612d62565b6000604051808303818588803b15801561206657600080fd5b505af115801561207a573d6000803e3d6000fd5b5050505050505050505050565b610aad8282612236565b60006001600160a01b0384163b1561219357604051630a85bd0160e11b81526001600160a01b0385169063150b7a02906120d5903390899088908890600401612ba6565b602060405180830381600087803b1580156120ef57600080fd5b505af192505050801561211f575060408051601f3d908101601f1916820190925261211c91810190612788565b60015b612179573d80801561214d576040519150601f19603f3d011682016040523d82523d6000602084013e612152565b606091505b5080516121715760405162461bcd60e51b815260040161079290612c18565b805181602001fd5b6001600160e01b031916630a85bd0160e11b14905061153c565b50600161153c565b60006121a682610ddf565b90506121b3600083611675565b6001600160a01b03811660009081526006602052604081208054600192906121dc908490612ec3565b909155505060008281526005602052604080822080546001600160a01b0319169055518391906001600160a01b038416907fddf252ad1be2c89b69c2b068fc378daa952ba7f163c4a11628f55a4df523b3ef908390a45050565b611037828260405180602001604052806000815250612255838361227e565b6122626000848484612091565b610aad5760405162461bcd60e51b815260040161079290612c18565b6001600160a01b0382166122d45760405162461bcd60e51b815260206004820181905260248201527f4552433732313a206d696e7420746f20746865207a65726f20616464726573736044820152606401610792565b6000818152600560205260409020546001600160a01b0316156123395760405162461bcd60e51b815260206004820152601c60248201527f4552433732313a20746f6b656e20616c7265616479206d696e746564000000006044820152606401610792565b6001600160a01b0382166000908152600660205260408120805460019290612362908490612e97565b909155505060008181526005602052604080822080546001600160a01b0319166001600160a01b03861690811790915590518392907fddf252ad1be2c89b69c2b068fc378daa952ba7f163c4a11628f55a4df523b3ef908290a45050565b8280546123cc90612f06565b90600052602060002090601f0160209004810192826123ee5760008555612434565b82601f106124075782800160ff19823516178555612434565b82800160010185558215612434579182015b82811115612434578235825591602001919060010190612419565b50612440929150612444565b5090565b5b808211156124405760008155600101612445565b8035801515811461246957600080fd5b919050565b60008083601f84011261247f578182fd5b5081356001600160401b03811115612495578182fd5b6020830191508360208285010111156124ad57600080fd5b9250929050565b600082601f8301126124c4578081fd5b81356124d76124d282612e70565b612e40565b8181528460208386010111156124eb578283fd5b816020850160208301379081016020019190915292915050565b600082601f830112612515578081fd5b81516125236124d282612e70565b818152846020838601011115612537578283fd5b61153c826020830160208701612eda565b803561ffff8116811461246957600080fd5b60006020828403121561256b578081fd5b813561114e81612fb2565b60008060408385031215612588578081fd5b823561259381612fb2565b915060208301356125a381612fb2565b809150509250929050565b6000806000606084860312156125c2578081fd5b83356125cd81612fb2565b925060208401356125dd81612fb2565b929592945050506040919091013590565b60008060008060808587031215612603578081fd5b843561260e81612fb2565b9350602085013561261e81612fb2565b92506040850135915060608501356001600160401b0381111561263f578182fd5b61264b878288016124b4565b91505092959194509250565b60008060408385031215612669578182fd5b823561267481612fb2565b915061268260208401612459565b90509250929050565b600080600080600080600060e0888a0312156126a5578283fd5b87356126b081612fb2565b96506126be60208901612548565b955060408801356001600160401b03808211156126d9578485fd5b6126e58b838c016124b4565b965060608a0135955060808a013591506126fe82612fb2565b90935060a08901359061271082612fb2565b90925060c08901359080821115612725578283fd5b506127328a828b016124b4565b91505092959891949750929550565b60008060408385031215612753578182fd5b823561275e81612fb2565b946020939093013593505050565b60006020828403121561277d578081fd5b813561114e81612fc7565b600060208284031215612799578081fd5b815161114e81612fc7565b6000602082840312156127b5578081fd5b81516001600160401b038111156127ca578182fd5b61153c84828501612505565b600080604083850312156127e8578182fd5b82516001600160401b038111156127fd578283fd5b61280985828601612505565b925050602083015190509250929050565b60006020828403121561282b578081fd5b61114e82612548565b600080600060408486031215612848578081fd5b61285184612548565b925060208401356001600160401b0381111561286b578182fd5b6128778682870161246e565b9497909650939450505050565b600080600080600060a0868803121561289b578283fd5b6128a486612548565b945060208601356001600160401b03808211156128bf578485fd5b6128cb89838a016124b4565b9550604088013594506128e060608901612459565b935060808801359150808211156128f5578283fd5b50612902888289016124b4565b9150509295509295909350565b600080600060608486031215612923578081fd5b61292c84612548565b925060208401356001600160401b03811115612946578182fd5b612952868287016124b4565b925050604084013561296381612fdd565b809150509250925092565b60008060008060808587031215612983578182fd5b61298c85612548565b935060208501356001600160401b03808211156129a7578384fd5b6129b3888389016124b4565b9450604087013591506129c582612fdd565b909250606086013590808211156129da578283fd5b5061264b878288016124b4565b600080600080608085870312156129fc578182fd5b612a0585612548565b9350612a1360208601612548565b92506040850135612a2381612fb2565b9396929550929360600135925050565b600080600080600060808688031215612a4a578283fd5b612a5386612548565b9450612a6160208701612548565b93506040860135925060608601356001600160401b03811115612a82578182fd5b612a8e8882890161246e565b969995985093965092949392505050565b600060208284031215612ab0578081fd5b5035919050565b60008060408385031215612ac9578182fd5b505080516020909101519092909150565b600060208284031215612aeb578081fd5b815161114e81612fdd565b81835281816020850137506000828201602090810191909152601f909101601f19169091010190565b60008151808452612b37816020860160208601612eda565b601f01601f19169290920160200192915050565b8183823760009101908152919050565b60008251612b6d818460208701612eda565b9190910192915050565b60008351612b89818460208801612eda565b835190830190612b9d818360208801612eda565b01949350505050565b6001600160a01b0385811682528416602082015260408101839052608060608201819052600090612bd990830184612b1f565b9695505050505050565b60208152600061114e6020830184612b1f565b604081526000612c096040830185612b1f565b90508260208301529392505050565b60208082526032908201527f4552433732313a207472616e7366657220746f206e6f6e20455243373231526560408201527131b2b4bb32b91034b6b83632b6b2b73a32b960711b606082015260800190565b6020808252818101527f4f776e61626c653a2063616c6c6572206973206e6f7420746865206f776e6572604082015260600190565b60208082526031908201527f4552433732313a207472616e736665722063616c6c6572206973206e6f74206f6040820152701ddb995c881b9bdc88185c1c1c9bdd9959607a1b606082015260800190565b61ffff861681526001600160a01b038516602082015260a060408201819052600090612d1e90830186612b1f565b84151560608401528281036080840152612d388185612b1f565b98975050505050505050565b61ffff84168152604060208201526000611539604083018486612af6565b61ffff8716815260c060208201526000612d7f60c0830188612b1f565b8281036040840152612d918188612b1f565b6001600160a01b0387811660608601528616608085015283810360a08501529050612dbc8185612b1f565b9998505050505050505050565b61ffff85168152608060208201526000612de66080830186612b1f565b6001600160401b03851660408401528281036060840152612e078185612b1f565b979650505050505050565b600061ffff808816835280871660208401525084604083015260806060830152612e07608083018486612af6565b604051601f8201601f191681016001600160401b0381118282101715612e6857612e68612f9c565b604052919050565b60006001600160401b03821115612e8957612e89612f9c565b50601f01601f191660200190565b60008219821115612eaa57612eaa612f70565b500190565b600082612ebe57612ebe612f86565b500490565b600082821015612ed557612ed5612f70565b500390565b60005b83811015612ef5578181015183820152602001612edd565b83811115610ec05750506000910152565b600181811c90821680612f1a57607f821691505b60208210811415612f3b57634e487b7160e01b600052602260045260246000fd5b50919050565b6000600019821415612f5557612f55612f70565b5060010190565b600082612f6b57612f6b612f86565b500690565b634e487b7160e01b600052601160045260246000fd5b634e487b7160e01b600052601260045260246000fd5b634e487b7160e01b600052604160045260246000fd5b6001600160a01b038116811461147f57600080fd5b6001600160e01b03198116811461147f57600080fd5b6001600160401b038116811461147f57600080fdfea2646970667358221220477a82962d2e98ef52399b80b9353c3c506147d613c85c95d9c09d540a8be2ff64736f6c63430008040033",
  "linkReferences": {},
  "deployedLinkReferences": {}
}