{
  "_format": "hh-sol-artifact-1",
  "contractName": "ProxyONFT1155",
  "sourceName": "contracts/token/onft/extension/ProxyONFT1155.sol",
  "abi": [
    {
      "inputs": [
        {
          "internalType": "address",
          "name": "_lzEndpoint",
          "type": "address"
        },
        {
          "internalType": "address",
          "name": "_proxyToken",
          "type": "address"
        }
      ],
      "stateMutability": "nonpayable",
      "type": "constructor"
    },
    {
      "anonymous": false,
      "inputs": [
        {
          "indexed": false,
          "internalType": "uint16",
          "name": "_srcChainId",
          "type": "uint16"
        },
        {
          "indexed": false,
          "internalType": "bytes",
          "name": "_srcAddress",
          "type": "bytes"
        },
        {
          "indexed": false,
          "internalType": "uint64",
          "name": "_nonce",
          "type": "uint64"
        },
        {
          "indexed": false,
          "internalType": "bytes",
          "name": "_payload",
          "type": "bytes"
        }
      ],
      "name": "MessageFailed",
      "type": "event"
    },
    {
      "anonymous": false,
      "inputs": [
        {
          "indexed": true,
          "internalType": "address",
          "name": "previousOwner",
          "type": "address"
        },
        {
          "indexed": true,
          "internalType": "address",
          "name": "newOwner",
          "type": "address"
        }
      ],
      "name": "OwnershipTransferred",
      "type": "event"
    },
    {
      "anonymous": false,
      "inputs": [
        {
          "indexed": true,
          "internalType": "uint16",
          "name": "_srcChainId",
          "type": "uint16"
        },
        {
          "indexed": true,
          "internalType": "bytes",
          "name": "_srcAddress",
          "type": "bytes"
        },
        {
          "indexed": true,
          "internalType": "address",
          "name": "_toAddress",
          "type": "address"
        },
        {
          "indexed": false,
          "internalType": "uint256[]",
          "name": "_tokenIds",
          "type": "uint256[]"
        },
        {
          "indexed": false,
          "internalType": "uint256[]",
          "name": "_amounts",
          "type": "uint256[]"
        },
        {
          "indexed": false,
          "internalType": "uint64",
          "name": "_nonce",
          "type": "uint64"
        }
      ],
      "name": "ReceiveBatchFromChain",
      "type": "event"
    },
    {
      "anonymous": false,
      "inputs": [
        {
          "indexed": true,
          "internalType": "uint16",
          "name": "_srcChainId",
          "type": "uint16"
        },
        {
          "indexed": true,
          "internalType": "bytes",
          "name": "_srcAddress",
          "type": "bytes"
        },
        {
          "indexed": true,
          "internalType": "address",
          "name": "_toAddress",
          "type": "address"
        },
        {
          "indexed": false,
          "internalType": "uint256",
          "name": "_tokenId",
          "type": "uint256"
        },
        {
          "indexed": false,
          "internalType": "uint256",
          "name": "_amount",
          "type": "uint256"
        },
        {
          "indexed": false,
          "internalType": "uint64",
          "name": "_nonce",
          "type": "uint64"
        }
      ],
      "name": "ReceiveFromChain",
      "type": "event"
    },
    {
      "anonymous": false,
      "inputs": [
        {
          "indexed": true,
          "internalType": "address",
          "name": "_sender",
          "type": "address"
        },
        {
          "indexed": true,
          "internalType": "uint16",
          "name": "_dstChainId",
          "type": "uint16"
        },
        {
          "indexed": true,
          "internalType": "bytes",
          "name": "_toAddress",
          "type": "bytes"
        },
        {
          "indexed": false,
          "internalType": "uint256[]",
          "name": "_tokenIds",
          "type": "uint256[]"
        },
        {
          "indexed": false,
          "internalType": "uint256[]",
          "name": "_amounts",
          "type": "uint256[]"
        },
        {
          "indexed": false,
          "internalType": "uint64",
          "name": "_nonce",
          "type": "uint64"
        }
      ],
      "name": "SendBatchToChain",
      "type": "event"
    },
    {
      "anonymous": false,
      "inputs": [
        {
          "indexed": true,
          "internalType": "address",
          "name": "_sender",
          "type": "address"
        },
        {
          "indexed": true,
          "internalType": "uint16",
          "name": "_dstChainId",
          "type": "uint16"
        },
        {
          "indexed": true,
          "internalType": "bytes",
          "name": "_toAddress",
          "type": "bytes"
        },
        {
          "indexed": false,
          "internalType": "uint256",
          "name": "_tokenId",
          "type": "uint256"
        },
        {
          "indexed": false,
          "internalType": "uint256",
          "name": "_amount",
          "type": "uint256"
        },
        {
          "indexed": false,
          "internalType": "uint64",
          "name": "_nonce",
          "type": "uint64"
        }
      ],
      "name": "SendToChain",
      "type": "event"
    },
    {
      "anonymous": false,
      "inputs": [
        {
          "indexed": false,
          "internalType": "uint16",
          "name": "_srcChainId",
          "type": "uint16"
        },
        {
          "indexed": false,
          "internalType": "bytes",
          "name": "_srcAddress",
          "type": "bytes"
        }
      ],
      "name": "SetTrustedRemote",
      "type": "event"
    },
    {
      "inputs": [
        {
          "internalType": "uint16",
          "name": "_dstChainId",
          "type": "uint16"
        },
        {
          "internalType": "bytes",
          "name": "_toAddress",
          "type": "bytes"
        },
        {
          "internalType": "uint256[]",
          "name": "_tokenIds",
          "type": "uint256[]"
        },
        {
          "internalType": "uint256[]",
          "name": "_amounts",
          "type": "uint256[]"
        },
        {
          "internalType": "bool",
          "name": "_useZro",
          "type": "bool"
        },
        {
          "internalType": "bytes",
          "name": "_adapterParams",
          "type": "bytes"
        }
      ],
      "name": "estimateSendBatchFee",
      "outputs": [
        {
          "internalType": "uint256",
          "name": "nativeFee",
          "type": "uint256"
        },
        {
          "internalType": "uint256",
          "name": "zroFee",
          "type": "uint256"
        }
      ],
      "stateMutability": "view",
      "type": "function"
    },
    {
      "inputs": [
        {
          "internalType": "uint16",
          "name": "_dstChainId",
          "type": "uint16"
        },
        {
          "internalType": "bytes",
          "name": "_toAddress",
          "type": "bytes"
        },
        {
          "internalType": "uint256",
          "name": "_tokenId",
          "type": "uint256"
        },
        {
          "internalType": "uint256",
          "name": "_amount",
          "type": "uint256"
        },
        {
          "internalType": "bool",
          "name": "_useZro",
          "type": "bool"
        },
        {
          "internalType": "bytes",
          "name": "_adapterParams",
          "type": "bytes"
        }
      ],
      "name": "estimateSendFee",
      "outputs": [
        {
          "internalType": "uint256",
          "name": "nativeFee",
          "type": "uint256"
        },
        {
          "internalType": "uint256",
          "name": "zroFee",
          "type": "uint256"
        }
      ],
      "stateMutability": "view",
      "type": "function"
    },
    {
      "inputs": [
        {
          "internalType": "uint16",
          "name": "",
          "type": "uint16"
        },
        {
          "internalType": "bytes",
          "name": "",
          "type": "bytes"
        },
        {
          "internalType": "uint64",
          "name": "",
          "type": "uint64"
        }
      ],
      "name": "failedMessages",
      "outputs": [
        {
          "internalType": "bytes32",
          "name": "",
          "type": "bytes32"
        }
      ],
      "stateMutability": "view",
      "type": "function"
    },
    {
      "inputs": [
        {
          "internalType": "uint16",
          "name": "_srcChainId",
          "type": "uint16"
        },
        {
          "internalType": "bytes",
          "name": "_srcAddress",
          "type": "bytes"
        }
      ],
      "name": "forceResumeReceive",
      "outputs": [],
      "stateMutability": "nonpayable",
      "type": "function"
    },
    {
      "inputs": [
        {
          "internalType": "uint16",
          "name": "_version",
          "type": "uint16"
        },
        {
          "internalType": "uint16",
          "name": "_chainId",
          "type": "uint16"
        },
        {
          "internalType": "address",
          "name": "",
          "type": "address"
        },
        {
          "internalType": "uint256",
          "name": "_configType",
          "type": "uint256"
        }
      ],
      "name": "getConfig",
      "outputs": [
        {
          "internalType": "bytes",
          "name": "",
          "type": "bytes"
        }
      ],
      "stateMutability": "view",
      "type": "function"
    },
    {
      "inputs": [
        {
          "internalType": "uint16",
          "name": "_srcChainId",
          "type": "uint16"
        },
        {
          "internalType": "bytes",
          "name": "_srcAddress",
          "type": "bytes"
        }
      ],
      "name": "isTrustedRemote",
      "outputs": [
        {
          "internalType": "bool",
          "name": "",
          "type": "bool"
        }
      ],
      "stateMutability": "view",
      "type": "function"
    },
    {
      "inputs": [],
      "name": "lzEndpoint",
      "outputs": [
        {
          "internalType": "contract ILayerZeroEndpoint",
          "name": "",
          "type": "address"
        }
      ],
      "stateMutability": "view",
      "type": "function"
    },
    {
      "inputs": [
        {
          "internalType": "uint16",
          "name": "_srcChainId",
          "type": "uint16"
        },
        {
          "internalType": "bytes",
          "name": "_srcAddress",
          "type": "bytes"
        },
        {
          "internalType": "uint64",
          "name": "_nonce",
          "type": "uint64"
        },
        {
          "internalType": "bytes",
          "name": "_payload",
          "type": "bytes"
        }
      ],
      "name": "lzReceive",
      "outputs": [],
      "stateMutability": "nonpayable",
      "type": "function"
    },
    {
      "inputs": [
        {
          "internalType": "uint16",
          "name": "_srcChainId",
          "type": "uint16"
        },
        {
          "internalType": "bytes",
          "name": "_srcAddress",
          "type": "bytes"
        },
        {
          "internalType": "uint64",
          "name": "_nonce",
          "type": "uint64"
        },
        {
          "internalType": "bytes",
          "name": "_payload",
          "type": "bytes"
        }
      ],
      "name": "nonblockingLzReceive",
      "outputs": [],
      "stateMutability": "nonpayable",
      "type": "function"
    },
    {
      "inputs": [
        {
          "internalType": "address",
          "name": "_operator",
          "type": "address"
        },
        {
          "internalType": "address",
          "name": "",
          "type": "address"
        },
        {
          "internalType": "uint256[]",
          "name": "",
          "type": "uint256[]"
        },
        {
          "internalType": "uint256[]",
          "name": "",
          "type": "uint256[]"
        },
        {
          "internalType": "bytes",
          "name": "",
          "type": "bytes"
        }
      ],
      "name": "onERC1155BatchReceived",
      "outputs": [
        {
          "internalType": "bytes4",
          "name": "",
          "type": "bytes4"
        }
      ],
      "stateMutability": "nonpayable",
      "type": "function"
    },
    {
      "inputs": [
        {
          "internalType": "address",
          "name": "_operator",
          "type": "address"
        },
        {
          "internalType": "address",
          "name": "",
          "type": "address"
        },
        {
          "internalType": "uint256",
          "name": "",
          "type": "uint256"
        },
        {
          "internalType": "uint256",
          "name": "",
          "type": "uint256"
        },
        {
          "internalType": "bytes",
          "name": "",
          "type": "bytes"
        }
      ],
      "name": "onERC1155Received",
      "outputs": [
        {
          "internalType": "bytes4",
          "name": "",
          "type": "bytes4"
        }
      ],
      "stateMutability": "nonpayable",
      "type": "function"
    },
    {
      "inputs": [],
      "name": "owner",
      "outputs": [
        {
          "internalType": "address",
          "name": "",
          "type": "address"
        }
      ],
      "stateMutability": "view",
      "type": "function"
    },
    {
      "inputs": [],
      "name": "renounceOwnership",
      "outputs": [],
      "stateMutability": "nonpayable",
      "type": "function"
    },
    {
      "inputs": [
        {
          "internalType": "uint16",
          "name": "_srcChainId",
          "type": "uint16"
        },
        {
          "internalType": "bytes",
          "name": "_srcAddress",
          "type": "bytes"
        },
        {
          "internalType": "uint64",
          "name": "_nonce",
          "type": "uint64"
        },
        {
          "internalType": "bytes",
          "name": "_payload",
          "type": "bytes"
        }
      ],
      "name": "retryMessage",
      "outputs": [],
      "stateMutability": "payable",
      "type": "function"
    },
    {
      "inputs": [
        {
          "internalType": "address",
          "name": "_from",
          "type": "address"
        },
        {
          "internalType": "uint16",
          "name": "_dstChainId",
          "type": "uint16"
        },
        {
          "internalType": "bytes",
          "name": "_toAddress",
          "type": "bytes"
        },
        {
          "internalType": "uint256[]",
          "name": "_tokenIds",
          "type": "uint256[]"
        },
        {
          "internalType": "uint256[]",
          "name": "_amounts",
          "type": "uint256[]"
        },
        {
          "internalType": "address payable",
          "name": "_refundAddress",
          "type": "address"
        },
        {
          "internalType": "address",
          "name": "_zroPaymentAddress",
          "type": "address"
        },
        {
          "internalType": "bytes",
          "name": "_adapterParams",
          "type": "bytes"
        }
      ],
      "name": "sendBatchFrom",
      "outputs": [],
      "stateMutability": "payable",
      "type": "function"
    },
    {
      "inputs": [
        {
          "internalType": "address",
          "name": "_from",
          "type": "address"
        },
        {
          "internalType": "uint16",
          "name": "_dstChainId",
          "type": "uint16"
        },
        {
          "internalType": "bytes",
          "name": "_toAddress",
          "type": "bytes"
        },
        {
          "internalType": "uint256",
          "name": "_tokenId",
          "type": "uint256"
        },
        {
          "internalType": "uint256",
          "name": "_amount",
          "type": "uint256"
        },
        {
          "internalType": "address payable",
          "name": "_refundAddress",
          "type": "address"
        },
        {
          "internalType": "address",
          "name": "_zroPaymentAddress",
          "type": "address"
        },
        {
          "internalType": "bytes",
          "name": "_adapterParams",
          "type": "bytes"
        }
      ],
      "name": "sendFrom",
      "outputs": [],
      "stateMutability": "payable",
      "type": "function"
    },
    {
      "inputs": [
        {
          "internalType": "uint16",
          "name": "_version",
          "type": "uint16"
        },
        {
          "internalType": "uint16",
          "name": "_chainId",
          "type": "uint16"
        },
        {
          "internalType": "uint256",
          "name": "_configType",
          "type": "uint256"
        },
        {
          "internalType": "bytes",
          "name": "_config",
          "type": "bytes"
        }
      ],
      "name": "setConfig",
      "outputs": [],
      "stateMutability": "nonpayable",
      "type": "function"
    },
    {
      "inputs": [
        {
          "internalType": "uint16",
          "name": "_version",
          "type": "uint16"
        }
      ],
      "name": "setReceiveVersion",
      "outputs": [],
      "stateMutability": "nonpayable",
      "type": "function"
    },
    {
      "inputs": [
        {
          "internalType": "uint16",
          "name": "_version",
          "type": "uint16"
        }
      ],
      "name": "setSendVersion",
      "outputs": [],
      "stateMutability": "nonpayable",
      "type": "function"
    },
    {
      "inputs": [
        {
          "internalType": "uint16",
          "name": "_srcChainId",
          "type": "uint16"
        },
        {
          "internalType": "bytes",
          "name": "_srcAddress",
          "type": "bytes"
        }
      ],
      "name": "setTrustedRemote",
      "outputs": [],
      "stateMutability": "nonpayable",
      "type": "function"
    },
    {
      "inputs": [
        {
          "internalType": "bytes4",
          "name": "interfaceId",
          "type": "bytes4"
        }
      ],
      "name": "supportsInterface",
      "outputs": [
        {
          "internalType": "bool",
          "name": "",
          "type": "bool"
        }
      ],
      "stateMutability": "view",
      "type": "function"
    },
    {
      "inputs": [],
      "name": "token",
      "outputs": [
        {
          "internalType": "contract IERC1155",
          "name": "",
          "type": "address"
        }
      ],
      "stateMutability": "view",
      "type": "function"
    },
    {
      "inputs": [
        {
          "internalType": "address",
          "name": "newOwner",
          "type": "address"
        }
      ],
      "name": "transferOwnership",
      "outputs": [],
      "stateMutability": "nonpayable",
      "type": "function"
    },
    {
      "inputs": [
        {
          "internalType": "uint16",
          "name": "",
          "type": "uint16"
        }
      ],
      "name": "trustedRemoteLookup",
      "outputs": [
        {
          "internalType": "bytes",
          "name": "",
          "type": "bytes"
        }
      ],
      "stateMutability": "view",
      "type": "function"
    }
  ],
  "bytecode": "0x60c06040523480156200001157600080fd5b5060405162002b5138038062002b518339810160408190526200003491620002b2565b8180806200004233620000f1565b60601b6001600160601b031916608052506200007d90506001600160a01b038216636cdb3d1360e11b62000141602090811b62000fd417901c565b620000da5760405162461bcd60e51b8152602060048201526024808201527f50726f78794f4e4654313135353a20696e76616c69642045524331313535207460448201526337b5b2b760e11b606482015260840160405180910390fd5b60601b6001600160601b03191660a052506200034e565b600080546001600160a01b038381166001600160a01b0319831681178455604051919092169283917f8be0079c531659141344cd1fd0a4f28419497f9722a3daafe3b4186f6b6457e09190a35050565b60006200014e836200016b565b8015620001625750620001628383620001a3565b90505b92915050565b600062000180826301ffc9a760e01b620001a3565b80156200016557506200019c826001600160e01b0319620001a3565b1592915050565b604080516001600160e01b0319831660248083019190915282518083039091018152604490910182526020810180516001600160e01b03166301ffc9a760e01b179052905160009190829081906001600160a01b03871690617530906200020c90869062000312565b6000604051808303818686fa925050503d80600081146200024a576040519150601f19603f3d011682016040523d82523d6000602084013e6200024f565b606091505b50915091506020815110156200026c576000935050505062000165565b8180156200028b5750808060200190518101906200028b9190620002e9565b9695505050505050565b80516001600160a01b0381168114620002ad57600080fd5b919050565b60008060408385031215620002c5578182fd5b620002d08362000295565b9150620002e06020840162000295565b90509250929050565b600060208284031215620002fb578081fd5b815180151581146200030b578182fd5b9392505050565b60008251815b8181101562000334576020818601810151858301520162000318565b81811115620003435782828501525b509190910192915050565b60805160601c60a05160601c61278a620003c7600039600081816104c40152818161170401526118f00152600081816103a4015281816104e9015281816106b80152818161075c015281816108a001528181610afb01528181610c0501528181610f4e01528181611181015261185e015261278a6000f3fe60806040526004361061014a5760003560e01c80638608e5f8116100b6578063d1deba1f1161006f578063d1deba1f1461041f578063eb8d72b714610432578063f23a6e6114610452578063f2fde38b14610472578063f5ecbdbc14610492578063fc0c546a146104b257600080fd5b80638608e5f81461030b5780638da5cb5b14610340578063b253566314610372578063b353aaa714610392578063bc197c81146103c6578063cbed8b9c146103ff57600080fd5b80634ab4e687116101085780634ab4e687146102265780634db8226a146102395780635b8c41e61461024c57806366ad5c8a146102a9578063715018a6146102c95780637533d788146102de57600080fd5b80621d35671461014f57806301ffc9a71461017157806307e0db17146101a657806310ddb137146101c65780633d8b38f6146101e657806342d65a8d14610206575b600080fd5b34801561015b57600080fd5b5061016f61016a366004612186565b6104e6565b005b34801561017d57600080fd5b5061019161018c366004611e9c565b61064a565b60405190151581526020015b60405180910390f35b3480156101b257600080fd5b5061016f6101c1366004611f79565b610675565b3480156101d257600080fd5b5061016f6101e1366004611f79565b610719565b3480156101f257600080fd5b50610191610201366004611f93565b610793565b34801561021257600080fd5b5061016f610221366004611f93565b61085f565b61016f610234366004611cf3565b610910565b61016f610247366004611ddd565b61092a565b34801561025857600080fd5b5061029b610267366004612127565b6002602090815260009384526040808520845180860184018051928152908401958401959095209452929052825290205481565b60405190815260200161019d565b3480156102b557600080fd5b5061016f6102c4366004612186565b61094a565b3480156102d557600080fd5b5061016f6109ba565b3480156102ea57600080fd5b506102fe6102f9366004611f79565b6109f0565b60405161019d9190612454565b34801561031757600080fd5b5061032b6103263660046120aa565b610a8a565b6040805192835260208301919091520161019d565b34801561034c57600080fd5b506000546001600160a01b03165b6040516001600160a01b03909116815260200161019d565b34801561037e57600080fd5b5061032b61038d366004611fe3565b610aba565b34801561039e57600080fd5b5061035a7f000000000000000000000000000000000000000000000000000000000000000081565b3480156103d257600080fd5b506103e66103e1366004611be4565b610b97565b6040516001600160e01b0319909116815260200161019d565b34801561040b57600080fd5b5061016f61041a366004612257565b610bc4565b61016f61042d366004612186565b610c7b565b34801561043e57600080fd5b5061016f61044d366004611f93565b610dcd565b34801561045e57600080fd5b506103e661046d366004611c8d565b610e56565b34801561047e57600080fd5b5061016f61048d366004611bc8565b610e82565b34801561049e57600080fd5b506102fe6104ad36600461220b565b610f1d565b3480156104be57600080fd5b5061035a7f000000000000000000000000000000000000000000000000000000000000000081565b337f00000000000000000000000000000000000000000000000000000000000000006001600160a01b03161461051b57600080fd5b61ffff841660009081526001602052604081208054610539906126cb565b80601f0160208091040260200160405190810160405280929190818152602001828054610565906126cb565b80156105b25780601f10610587576101008083540402835291602001916105b2565b820191906000526020600020905b81548152906001019060200180831161059557829003601f168201915b50505050509050805184511480156105d7575080805190602001208480519060200120145b6106375760405162461bcd60e51b815260206004820152602660248201527f4c7a4170703a20696e76616c696420736f757263652073656e64696e6720636f6044820152651b9d1c9858dd60d21b60648201526084015b60405180910390fd5b61064385858585610ff7565b5050505050565b60006001600160e01b03198216630271189760e51b148061066f575061066f826110e8565b92915050565b6000546001600160a01b0316331461069f5760405162461bcd60e51b815260040161062e906124a0565b6040516307e0db1760e01b815261ffff821660048201527f00000000000000000000000000000000000000000000000000000000000000006001600160a01b0316906307e0db17906024015b600060405180830381600087803b15801561070557600080fd5b505af1158015610643573d6000803e3d6000fd5b6000546001600160a01b031633146107435760405162461bcd60e51b815260040161062e906124a0565b6040516310ddb13760e01b815261ffff821660048201527f00000000000000000000000000000000000000000000000000000000000000006001600160a01b0316906310ddb137906024016106eb565b61ffff8316600090815260016020526040812080548291906107b4906126cb565b80601f01602080910402602001604051908101604052809291908181526020018280546107e0906126cb565b801561082d5780601f106108025761010080835404028352916020019161082d565b820191906000526020600020905b81548152906001019060200180831161081057829003601f168201915b505050505090508383604051610844929190612391565b60405180910390208180519060200120149150509392505050565b6000546001600160a01b031633146108895760405162461bcd60e51b815260040161062e906124a0565b6040516342d65a8d60e01b81526001600160a01b037f000000000000000000000000000000000000000000000000000000000000000016906342d65a8d906108d990869086908690600401612529565b600060405180830381600087803b1580156108f357600080fd5b505af1158015610907573d6000803e3d6000fd5b50505050505050565b610920888888888888888861111d565b5050505050505050565b6109208888886109398961134b565b6109428961134b565b88888861111d565b3330146109a85760405162461bcd60e51b815260206004820152602660248201527f4e6f6e626c6f636b696e674c7a4170703a2063616c6c6572206d7573742062656044820152650204c7a4170760d41b606482015260840161062e565b6109b4848484846113a4565b50505050565b6000546001600160a01b031633146109e45760405162461bcd60e51b815260040161062e906124a0565b6109ee6000611519565b565b60016020526000908152604090208054610a09906126cb565b80601f0160208091040260200160405190810160405280929190818152602001828054610a35906126cb565b8015610a825780601f10610a5757610100808354040283529160200191610a82565b820191906000526020600020905b815481529060010190602001808311610a6557829003601f168201915b505050505081565b600080610aab8888610a9b8961134b565b610aa48961134b565b8888610aba565b91509150965096945050505050565b6000806000878787604051602001610ad493929190612467565b60408051601f198184030181529082905263040a7bb160e41b825291506001600160a01b037f000000000000000000000000000000000000000000000000000000000000000016906340a7bb1090610b38908c90309086908b908b906004016124d5565b604080518083038186803b158015610b4f57600080fd5b505afa158015610b63573d6000803e3d6000fd5b505050506040513d601f19601f82011682018060405250810190610b8791906122c3565b9250925050965096945050505050565b60006001600160a01b0386163014610bb157506000610bbb565b5063bc197c8160e01b5b95945050505050565b6000546001600160a01b03163314610bee5760405162461bcd60e51b815260040161062e906124a0565b6040516332fb62e760e21b81526001600160a01b037f0000000000000000000000000000000000000000000000000000000000000000169063cbed8b9c90610c4290889088908890889088906004016125f7565b600060405180830381600087803b158015610c5c57600080fd5b505af1158015610c70573d6000803e3d6000fd5b505050505050505050565b61ffff84166000908152600260205260408082209051610c9c9086906123a1565b90815260408051602092819003830190206001600160401b03861660009081529252902054905080610d1c5760405162461bcd60e51b815260206004820152602360248201527f4e6f6e626c6f636b696e674c7a4170703a206e6f2073746f726564206d65737360448201526261676560e81b606482015260840161062e565b815160208301208114610d7b5760405162461bcd60e51b815260206004820152602160248201527f4e6f6e626c6f636b696e674c7a4170703a20696e76616c6964207061796c6f616044820152601960fa1b606482015260840161062e565b61ffff85166000908152600260205260408082209051610d9c9087906123a1565b90815260408051602092819003830190206001600160401b03871660009081529252902055610643858585856113a4565b6000546001600160a01b03163314610df75760405162461bcd60e51b815260040161062e906124a0565b61ffff83166000908152600160205260409020610e15908383611959565b507ffa41487ad5d6728f0b19276fa1eddc16558578f5109fc39d2dc33c3230470dab838383604051610e4993929190612529565b60405180910390a1505050565b60006001600160a01b0386163014610e7057506000610bbb565b5063f23a6e6160e01b95945050505050565b6000546001600160a01b03163314610eac5760405162461bcd60e51b815260040161062e906124a0565b6001600160a01b038116610f115760405162461bcd60e51b815260206004820152602660248201527f4f776e61626c653a206e6577206f776e657220697320746865207a65726f206160448201526564647265737360d01b606482015260840161062e565b610f1a81611519565b50565b604051633d7b2f6f60e21b815261ffff808616600483015284166024820152306044820152606481018290526060907f00000000000000000000000000000000000000000000000000000000000000006001600160a01b03169063f5ecbdbc9060840160006040518083038186803b158015610f9857600080fd5b505afa158015610fac573d6000803e3d6000fd5b505050506040513d6000823e601f3d908101601f19168201604052610bbb9190810190611ec4565b6000610fdf83611569565b8015610ff05750610ff0838361159c565b9392505050565b604051633356ae4560e11b815230906366ad5c8a906110209087908790879087906004016125ae565b600060405180830381600087803b15801561103a57600080fd5b505af192505050801561104b575060015b6109b4578080519060200120600260008661ffff1661ffff1681526020019081526020016000208460405161108091906123a1565b9081526040805191829003602090810183206001600160401b0387166000908152915220919091557fe6f254030bcb01ffd20558175c13fcaed6d1520be7becee4c961b65f79243b0d906110db9086908690869086906125ae565b60405180910390a16109b4565b60006001600160e01b031982166319abbbbb60e11b148061066f57506301ffc9a760e01b6001600160e01b031983161461066f565b61112a8888888888611685565b600086868660405160200161114193929190612467565b604051602081830303815290604052905061115f888286868661173f565b604051630f428ae960e31b815261ffff891660048201523060248201526000907f00000000000000000000000000000000000000000000000000000000000000006001600160a01b031690637a1457489060440160206040518083038186803b1580156111cb57600080fd5b505afa1580156111df573d6000803e3d6000fd5b505050506040513d601f19601f8201168201806040525081019061120391906122e6565b90508651600114156112d4578760405161121d91906123a1565b60405180910390208961ffff168b6001600160a01b03167f65f8f231660ef9add3da95eb0bbdae4c246f6c10e274fae37b17190637080d4c8a60008151811061127657634e487b7160e01b600052603260045260246000fd5b60200260200101518a60008151811061129f57634e487b7160e01b600052603260045260246000fd5b60209081029190910181015160408051938452918301526001600160401b0387169082015260600160405180910390a461133f565b60018751111561133f57876040516112ec91906123a1565b60405180910390208961ffff168b6001600160a01b03167f2d31495ecbe799a81d5475c03585aa019860601fed836229d70e335b732eab3d8a8a8660405161133693929190612415565b60405180910390a45b50505050505050505050565b6040805160018082528183019092526060916000919060208083019080368337019050509050828160008151811061139357634e487b7160e01b600052603260045260246000fd5b602090810291909101015292915050565b6000806000838060200190518101906113bd9190611ef6565b601483015192955090935091506113d6888285856118d9565b8251600114156114a557806001600160a01b0316876040516113f891906123a1565b60405180910390208961ffff167f330378e2f010257b2fbe836316fb7ab303af5ed8f2795b82bca60d1c8c909f768660008151811061144757634e487b7160e01b600052603260045260246000fd5b60200260200101518660008151811061147057634e487b7160e01b600052603260045260246000fd5b60209081029190910181015160408051938452918301526001600160401b038c169082015260600160405180910390a4610920565b60018351111561092057806001600160a01b0316876040516114c791906123a1565b60405180910390208961ffff167f5604161d52abb20dbe3d4a2230e585a0b230b3d18179a0e00917b173f5f9adab86868b60405161150793929190612415565b60405180910390a45050505050505050565b600080546001600160a01b038381166001600160a01b0319831681178455604051919092169283917f8be0079c531659141344cd1fd0a4f28419497f9722a3daafe3b4186f6b6457e09190a35050565b600061157c826301ffc9a760e01b61159c565b801561066f5750611595826001600160e01b031961159c565b1592915050565b604080516001600160e01b0319831660248083019190915282518083039091018152604490910182526020810180516001600160e01b03166301ffc9a760e01b179052905160009190829081906001600160a01b03871690617530906116039086906123a1565b6000604051808303818686fa925050503d806000811461163f576040519150601f19603f3d011682016040523d82523d6000602084013e611644565b606091505b509150915060208151101561165f576000935050505061066f565b81801561167b57508080602001905181019061167b9190611e80565b9695505050505050565b6001600160a01b03851633146116ed5760405162461bcd60e51b815260206004820152602760248201527f50726f78794f4e4654313135353a206f776e6572206973206e6f742073656e646044820152661031b0b63632b960c91b606482015260840161062e565b604051631759616b60e11b81526001600160a01b037f00000000000000000000000000000000000000000000000000000000000000001690632eb2c2d690610c429088903090879087906004016123bd565b61ffff85166000908152600160205260408120805461175d906126cb565b80601f0160208091040260200160405190810160405280929190818152602001828054611789906126cb565b80156117d65780601f106117ab576101008083540402835291602001916117d6565b820191906000526020600020905b8154815290600101906020018083116117b957829003601f168201915b505050505090508051600014156118485760405162461bcd60e51b815260206004820152603060248201527f4c7a4170703a2064657374696e6174696f6e20636861696e206973206e6f742060448201526f61207472757374656420736f7572636560801b606482015260840161062e565b60405162c5803160e81b81526001600160a01b037f0000000000000000000000000000000000000000000000000000000000000000169063c580310090349061189f908a9086908b908b908b908b90600401612547565b6000604051808303818588803b1580156118b857600080fd5b505af11580156118cc573d6000803e3d6000fd5b5050505050505050505050565b604051631759616b60e11b81526001600160a01b037f00000000000000000000000000000000000000000000000000000000000000001690632eb2c2d69061192b9030908790879087906004016123bd565b600060405180830381600087803b15801561194557600080fd5b505af1158015610920573d6000803e3d6000fd5b828054611965906126cb565b90600052602060002090601f01602090048101928261198757600085556119cd565b82601f106119a05782800160ff198235161785556119cd565b828001600101855582156119cd579182015b828111156119cd5782358255916020019190600101906119b2565b506119d99291506119dd565b5090565b5b808211156119d957600081556001016119de565b80356119fd8161271c565b919050565b600082601f830112611a12578081fd5b81356020611a27611a2283612655565b612625565b80838252828201915082860187848660051b8901011115611a46578586fd5b855b85811015611a6457813584529284019290840190600101611a48565b5090979650505050505050565b600082601f830112611a81578081fd5b81516020611a91611a2283612655565b80838252828201915082860187848660051b8901011115611ab0578586fd5b855b85811015611a6457815184529284019290840190600101611ab2565b80356119fd81612731565b60008083601f840112611aea578182fd5b5081356001600160401b03811115611b00578182fd5b602083019150836020828501011115611b1857600080fd5b9250929050565b600082601f830112611b2f578081fd5b8135611b3d611a2282612678565b818152846020838601011115611b51578283fd5b816020850160208301379081016020019190915292915050565b600082601f830112611b7b578081fd5b8151611b89611a2282612678565b818152846020838601011115611b9d578283fd5b611bae82602083016020870161269f565b949350505050565b803561ffff811681146119fd57600080fd5b600060208284031215611bd9578081fd5b8135610ff08161271c565b600080600080600060a08688031215611bfb578081fd5b8535611c068161271c565b94506020860135611c168161271c565b935060408601356001600160401b0380821115611c31578283fd5b611c3d89838a01611a02565b94506060880135915080821115611c52578283fd5b611c5e89838a01611a02565b93506080880135915080821115611c73578283fd5b50611c8088828901611b1f565b9150509295509295909350565b600080600080600060a08688031215611ca4578081fd5b8535611caf8161271c565b94506020860135611cbf8161271c565b9350604086013592506060860135915060808601356001600160401b03811115611ce7578182fd5b611c8088828901611b1f565b600080600080600080600080610100898b031215611d0f578283fd5b611d18896119f2565b9750611d2660208a01611bb6565b965060408901356001600160401b0380821115611d41578485fd5b611d4d8c838d01611b1f565b975060608b0135915080821115611d62578485fd5b611d6e8c838d01611a02565b965060808b0135915080821115611d83578485fd5b611d8f8c838d01611a02565b9550611d9d60a08c016119f2565b9450611dab60c08c016119f2565b935060e08b0135915080821115611dc0578283fd5b50611dcd8b828c01611b1f565b9150509295985092959890939650565b600080600080600080600080610100898b031215611df9578182fd5b8835611e048161271c565b9750611e1260208a01611bb6565b965060408901356001600160401b0380821115611e2d578384fd5b611e398c838d01611b1f565b975060608b0135965060808b0135955060a08b01359150611e598261271c565b90935060c08a013590611e6b8261271c565b90925060e08a01359080821115611dc0578283fd5b600060208284031215611e91578081fd5b8151610ff081612731565b600060208284031215611ead578081fd5b81356001600160e01b031981168114610ff0578182fd5b600060208284031215611ed5578081fd5b81516001600160401b03811115611eea578182fd5b611bae84828501611b6b565b600080600060608486031215611f0a578081fd5b83516001600160401b0380821115611f20578283fd5b611f2c87838801611b6b565b94506020860151915080821115611f41578283fd5b611f4d87838801611a71565b93506040860151915080821115611f62578283fd5b50611f6f86828701611a71565b9150509250925092565b600060208284031215611f8a578081fd5b610ff082611bb6565b600080600060408486031215611fa7578081fd5b611fb084611bb6565b925060208401356001600160401b03811115611fca578182fd5b611fd686828701611ad9565b9497909650939450505050565b60008060008060008060c08789031215611ffb578384fd5b61200487611bb6565b955060208701356001600160401b038082111561201f578586fd5b61202b8a838b01611b1f565b96506040890135915080821115612040578586fd5b61204c8a838b01611a02565b95506060890135915080821115612061578384fd5b61206d8a838b01611a02565b945061207b60808a01611ace565b935060a0890135915080821115612090578283fd5b5061209d89828a01611b1f565b9150509295509295509295565b60008060008060008060c087890312156120c2578384fd5b6120cb87611bb6565b955060208701356001600160401b03808211156120e6578586fd5b6120f28a838b01611b1f565b965060408901359550606089013594506080890135915061211282612731565b90925060a08801359080821115612090578283fd5b60008060006060848603121561213b578081fd5b61214484611bb6565b925060208401356001600160401b0381111561215e578182fd5b61216a86828701611b1f565b925050604084013561217b8161273f565b809150509250925092565b6000806000806080858703121561219b578182fd5b6121a485611bb6565b935060208501356001600160401b03808211156121bf578384fd5b6121cb88838901611b1f565b9450604087013591506121dd8261273f565b909250606086013590808211156121f2578283fd5b506121ff87828801611b1f565b91505092959194509250565b60008060008060808587031215612220578182fd5b61222985611bb6565b935061223760208601611bb6565b925060408501356122478161271c565b9396929550929360600135925050565b60008060008060006080868803121561226e578283fd5b61227786611bb6565b945061228560208701611bb6565b93506040860135925060608601356001600160401b038111156122a6578182fd5b6122b288828901611ad9565b969995985093965092949392505050565b600080604083850312156122d5578182fd5b505080516020909101519092909150565b6000602082840312156122f7578081fd5b8151610ff08161273f565b6000815180845260208085019450808401835b8381101561233157815187529582019590820190600101612315565b509495945050505050565b81835281816020850137506000828201602090810191909152601f909101601f19169091010190565b6000815180845261237d81602086016020860161269f565b601f01601f19169290920160200192915050565b8183823760009101908152919050565b600082516123b381846020870161269f565b9190910192915050565b6001600160a01b0385811682528416602082015260a0604082018190526000906123e990830185612302565b82810360608401526123fb8185612302565b838103608090940193909352508152602001949350505050565b6060815260006124286060830186612302565b828103602084015261243a8186612302565b9150506001600160401b0383166040830152949350505050565b602081526000610ff06020830184612365565b60608152600061247a6060830186612365565b828103602084015261248c8186612302565b9050828103604084015261167b8185612302565b6020808252818101527f4f776e61626c653a2063616c6c6572206973206e6f7420746865206f776e6572604082015260600190565b61ffff861681526001600160a01b038516602082015260a06040820181905260009061250390830186612365565b8415156060840152828103608084015261251d8185612365565b98975050505050505050565b61ffff84168152604060208201526000610bbb60408301848661233c565b61ffff8716815260c06020820152600061256460c0830188612365565b82810360408401526125768188612365565b6001600160a01b0387811660608601528616608085015283810360a085015290506125a18185612365565b9998505050505050505050565b61ffff851681526080602082015260006125cb6080830186612365565b6001600160401b038516604084015282810360608401526125ec8185612365565b979650505050505050565b600061ffff8088168352808716602084015250846040830152608060608301526125ec60808301848661233c565b604051601f8201601f191681016001600160401b038111828210171561264d5761264d612706565b604052919050565b60006001600160401b0382111561266e5761266e612706565b5060051b60200190565b60006001600160401b0382111561269157612691612706565b50601f01601f191660200190565b60005b838110156126ba5781810151838201526020016126a2565b838111156109b45750506000910152565b600181811c908216806126df57607f821691505b6020821081141561270057634e487b7160e01b600052602260045260246000fd5b50919050565b634e487b7160e01b600052604160045260246000fd5b6001600160a01b0381168114610f1a57600080fd5b8015158114610f1a57600080fd5b6001600160401b0381168114610f1a57600080fdfea26469706673582212206d0c268332bee0d2425b81c147d7dcc0654313e76ddd80b3c4207af92e7a5a4f64736f6c63430008040033",
  "linkReferences": {},
  "deployedLinkReferences": {}
}