{
  "_format": "hh-sol-artifact-1",
  "contractName": "ERC721Mock",
  "sourceName": "contracts/mocks/ERC721Mock.sol",
  "abi": [
    {
      "inputs": [
        {
          "internalType": "string",
          "name": "_name",
          "type": "string"
        },
        {
          "internalType": "string",
          "name": "_symbol",
          "type": "string"
        }
      ],
      "stateMutability": "nonpayable",
      "type": "constructor"
    },
    {
      "anonymous": false,
      "inputs": [
        {
          "indexed": true,
          "internalType": "address",
          "name": "owner",
          "type": "address"
        },
        {
          "indexed": true,
          "internalType": "address",
          "name": "approved",
          "type": "address"
        },
        {
          "indexed": true,
          "internalType": "uint256",
          "name": "tokenId",
          "type": "uint256"
        }
      ],
      "name": "Approval",
      "type": "event"
    },
    {
      "anonymous": false,
      "inputs": [
        {
          "indexed": true,
          "internalType": "address",
          "name": "owner",
          "type": "address"
        },
        {
          "indexed": true,
          "internalType": "address",
          "name": "operator",
          "type": "address"
        },
        {
          "indexed": false,
          "internalType": "bool",
          "name": "approved",
          "type": "bool"
        }
      ],
      "name": "ApprovalForAll",
      "type": "event"
    },
    {
      "anonymous": false,
      "inputs": [
        {
          "indexed": true,
          "internalType": "address",
          "name": "from",
          "type": "address"
        },
        {
          "indexed": true,
          "internalType": "address",
          "name": "to",
          "type": "address"
        },
        {
          "indexed": true,
          "internalType": "uint256",
          "name": "tokenId",
          "type": "uint256"
        }
      ],
      "name": "Transfer",
      "type": "event"
    },
    {
      "inputs": [
        {
          "internalType": "address",
          "name": "to",
          "type": "address"
        },
        {
          "internalType": "uint256",
          "name": "tokenId",
          "type": "uint256"
        }
      ],
      "name": "approve",
      "outputs": [],
      "stateMutability": "nonpayable",
      "type": "function"
    },
    {
      "inputs": [
        {
          "internalType": "address",
          "name": "owner",
          "type": "address"
        }
      ],
      "name": "balanceOf",
      "outputs": [
        {
          "internalType": "uint256",
          "name": "",
          "type": "uint256"
        }
      ],
      "stateMutability": "view",
      "type": "function"
    },
    {
      "inputs": [],
      "name": "baseTokenURI",
      "outputs": [
        {
          "internalType": "string",
          "name": "",
          "type": "string"
        }
      ],
      "stateMutability": "view",
      "type": "function"
    },
    {
      "inputs": [
        {
          "internalType": "uint256",
          "name": "tokenId",
          "type": "uint256"
        }
      ],
      "name": "getApproved",
      "outputs": [
        {
          "internalType": "address",
          "name": "",
          "type": "address"
        }
      ],
      "stateMutability": "view",
      "type": "function"
    },
    {
      "inputs": [
        {
          "internalType": "address",
          "name": "owner",
          "type": "address"
        },
        {
          "internalType": "address",
          "name": "operator",
          "type": "address"
        }
      ],
      "name": "isApprovedForAll",
      "outputs": [
        {
          "internalType": "bool",
          "name": "",
          "type": "bool"
        }
      ],
      "stateMutability": "view",
      "type": "function"
    },
    {
      "inputs": [
        {
          "internalType": "address",
          "name": "spender",
          "type": "address"
        },
        {
          "internalType": "uint256",
          "name": "tokenId",
          "type": "uint256"
        }
      ],
      "name": "isApprovedOrOwner",
      "outputs": [
        {
          "internalType": "bool",
          "name": "",
          "type": "bool"
        }
      ],
      "stateMutability": "view",
      "type": "function"
    },
    {
      "inputs": [
        {
          "internalType": "address",
          "name": "to",
          "type": "address"
        },
        {
          "internalType": "uint256",
          "name": "tokenId",
          "type": "uint256"
        }
      ],
      "name": "mint",
      "outputs": [],
      "stateMutability": "nonpayable",
      "type": "function"
    },
    {
      "inputs": [],
      "name": "name",
      "outputs": [
        {
          "internalType": "string",
          "name": "",
          "type": "string"
        }
      ],
      "stateMutability": "view",
      "type": "function"
    },
    {
      "inputs": [
        {
          "internalType": "uint256",
          "name": "tokenId",
          "type": "uint256"
        }
      ],
      "name": "ownerOf",
      "outputs": [
        {
          "internalType": "address",
          "name": "",
          "type": "address"
        }
      ],
      "stateMutability": "view",
      "type": "function"
    },
    {
      "inputs": [
        {
          "internalType": "address",
          "name": "from",
          "type": "address"
        },
        {
          "internalType": "address",
          "name": "to",
          "type": "address"
        },
        {
          "internalType": "uint256",
          "name": "tokenId",
          "type": "uint256"
        }
      ],
      "name": "safeTransferFrom",
      "outputs": [],
      "stateMutability": "nonpayable",
      "type": "function"
    },
    {
      "inputs": [
        {
          "internalType": "address",
          "name": "from",
          "type": "address"
        },
        {
          "internalType": "address",
          "name": "to",
          "type": "address"
        },
        {
          "internalType": "uint256",
          "name": "tokenId",
          "type": "uint256"
        },
        {
          "internalType": "bytes",
          "name": "_data",
          "type": "bytes"
        }
      ],
      "name": "safeTransferFrom",
      "outputs": [],
      "stateMutability": "nonpayable",
      "type": "function"
    },
    {
      "inputs": [
        {
          "internalType": "address",
          "name": "operator",
          "type": "address"
        },
        {
          "internalType": "bool",
          "name": "approved",
          "type": "bool"
        }
      ],
      "name": "setApprovalForAll",
      "outputs": [],
      "stateMutability": "nonpayable",
      "type": "function"
    },
    {
      "inputs": [
        {
          "internalType": "bytes4",
          "name": "interfaceId",
          "type": "bytes4"
        }
      ],
      "name": "supportsInterface",
      "outputs": [
        {
          "internalType": "bool",
          "name": "",
          "type": "bool"
        }
      ],
      "stateMutability": "view",
      "type": "function"
    },
    {
      "inputs": [],
      "name": "symbol",
      "outputs": [
        {
          "internalType": "string",
          "name": "",
          "type": "string"
        }
      ],
      "stateMutability": "view",
      "type": "function"
    },
    {
      "inputs": [
        {
          "internalType": "uint256",
          "name": "tokenId",
          "type": "uint256"
        }
      ],
      "name": "tokenURI",
      "outputs": [
        {
          "internalType": "string",
          "name": "",
          "type": "string"
        }
      ],
      "stateMutability": "view",
      "type": "function"
    },
    {
      "inputs": [
        {
          "internalType": "address",
          "name": "to",
          "type": "address"
        },
        {
          "internalType": "uint256",
          "name": "tokenId",
          "type": "uint256"
        }
      ],
      "name": "transfer",
      "outputs": [],
      "stateMutability": "nonpayable",
      "type": "function"
    },
    {
      "inputs": [
        {
          "internalType": "address",
          "name": "from",
          "type": "address"
        },
        {
          "internalType": "address",
          "name": "to",
          "type": "address"
        },
        {
          "internalType": "uint256",
          "name": "tokenId",
          "type": "uint256"
        }
      ],
      "name": "transferFrom",
      "outputs": [],
      "stateMutability": "nonpayable",
      "type": "function"
    }
  ],
  "bytecode": "0x60806040523480156200001157600080fd5b50604051620017a9380380620017a98339810160408190526200003491620001c7565b8151829082906200004d9060009060208501906200006e565b508051620000639060019060208401906200006e565b505050505062000281565b8280546200007c906200022e565b90600052602060002090601f016020900481019282620000a05760008555620000eb565b82601f10620000bb57805160ff1916838001178555620000eb565b82800160010185558215620000eb579182015b82811115620000eb578251825591602001919060010190620000ce565b50620000f9929150620000fd565b5090565b5b80821115620000f95760008155600101620000fe565b600082601f83011262000125578081fd5b81516001600160401b03808211156200014257620001426200026b565b604051601f8301601f19908116603f011681019082821181831017156200016d576200016d6200026b565b8160405283815260209250868385880101111562000189578485fd5b8491505b83821015620001ac57858201830151818301840152908201906200018d565b83821115620001bd57848385830101525b9695505050505050565b60008060408385031215620001da578182fd5b82516001600160401b0380821115620001f1578384fd5b620001ff8683870162000114565b9350602085015191508082111562000215578283fd5b50620002248582860162000114565b9150509250929050565b600181811c908216806200024357607f821691505b602082108114156200026557634e487b7160e01b600052602260045260246000fd5b50919050565b634e487b7160e01b600052604160045260246000fd5b61151880620002916000396000f3fe608060405234801561001057600080fd5b506004361061010b5760003560e01c80636352211e116100a2578063a9059cbb11610071578063a9059cbb14610228578063b88d4fde1461023b578063c87b56dd1461024e578063d547cfb714610261578063e985e9c51461026957600080fd5b80636352211e146101d957806370a08231146101ec57806395d89b411461020d578063a22cb4651461021557600080fd5b806323b872dd116100de57806323b872dd1461018d57806340c10f19146101a057806342842e0e146101b3578063430c2081146101c657600080fd5b806301ffc9a71461011057806306fdde0314610138578063081812fc1461014d578063095ea7b314610178575b600080fd5b61012361011e366004611210565b6102a5565b60405190151581526020015b60405180910390f35b6101406102f7565b60405161012f91906112f8565b61016061015b366004611248565b610389565b6040516001600160a01b03909116815260200161012f565b61018b6101863660046111e7565b610423565b005b61018b61019b36600461109d565b610539565b61018b6101ae3660046111e7565b61056a565b61018b6101c136600461109d565b610588565b6101236101d43660046111e7565b6105a3565b6101606101e7366004611248565b6105b6565b6101ff6101fa366004611051565b61062d565b60405190815260200161012f565b6101406106b4565b61018b6102233660046111ad565b6106c3565b61018b6102363660046111e7565b6106ce565b61018b6102493660046110d8565b6106e9565b61014061025c366004611248565b610721565b610140610808565b61012361027736600461106b565b6001600160a01b03918216600090815260056020908152604080832093909416825291909152205460ff1690565b60006001600160e01b031982166380ac58cd60e01b14806102d657506001600160e01b03198216635b5e139f60e01b145b806102f157506301ffc9a760e01b6001600160e01b03198316145b92915050565b6060600080546103069061141d565b80601f01602080910402602001604051908101604052809291908181526020018280546103329061141d565b801561037f5780601f106103545761010080835404028352916020019161037f565b820191906000526020600020905b81548152906001019060200180831161036257829003601f168201915b5050505050905090565b6000818152600260205260408120546001600160a01b03166104075760405162461bcd60e51b815260206004820152602c60248201527f4552433732313a20617070726f76656420717565727920666f72206e6f6e657860448201526b34b9ba32b73a103a37b5b2b760a11b60648201526084015b60405180910390fd5b506000908152600460205260409020546001600160a01b031690565b600061042e826105b6565b9050806001600160a01b0316836001600160a01b0316141561049c5760405162461bcd60e51b815260206004820152602160248201527f4552433732313a20617070726f76616c20746f2063757272656e74206f776e656044820152603960f91b60648201526084016103fe565b336001600160a01b03821614806104b857506104b88133610277565b61052a5760405162461bcd60e51b815260206004820152603860248201527f4552433732313a20617070726f76652063616c6c6572206973206e6f74206f7760448201527f6e6572206e6f7220617070726f76656420666f7220616c6c000000000000000060648201526084016103fe565b6105348383610896565b505050565b6105433382610904565b61055f5760405162461bcd60e51b81526004016103fe9061135d565b6105348383836109fb565b610584828260405180602001604052806000815250610b97565b5050565b610534838383604051806020016040528060008152506106e9565b60006105af8383610904565b9392505050565b6000818152600260205260408120546001600160a01b0316806102f15760405162461bcd60e51b815260206004820152602960248201527f4552433732313a206f776e657220717565727920666f72206e6f6e657869737460448201526832b73a103a37b5b2b760b91b60648201526084016103fe565b60006001600160a01b0382166106985760405162461bcd60e51b815260206004820152602a60248201527f4552433732313a2062616c616e636520717565727920666f7220746865207a65604482015269726f206164647265737360b01b60648201526084016103fe565b506001600160a01b031660009081526003602052604090205490565b6060600180546103069061141d565b610584338383610bca565b61058433838360405180602001604052806000815250610c99565b6106f33383610904565b61070f5760405162461bcd60e51b81526004016103fe9061135d565b61071b84848484610c99565b50505050565b6000818152600260205260409020546060906001600160a01b03166107a05760405162461bcd60e51b815260206004820152602f60248201527f4552433732314d657461646174613a2055524920717565727920666f72206e6f60448201526e3732bc34b9ba32b73a103a37b5b2b760891b60648201526084016103fe565b60006107b760408051602081019091526000815290565b905060008151116107d757604051806020016040528060008152506105af565b806107e184610ccc565b6040516020016107f292919061128c565b6040516020818303038152906040529392505050565b600680546108159061141d565b80601f01602080910402602001604051908101604052809291908181526020018280546108419061141d565b801561088e5780601f106108635761010080835404028352916020019161088e565b820191906000526020600020905b81548152906001019060200180831161087157829003601f168201915b505050505081565b600081815260046020526040902080546001600160a01b0319166001600160a01b03841690811790915581906108cb826105b6565b6001600160a01b03167f8c5be1e5ebec7d5bd14f71427d1e84f3dd0314c0f7b2291e5b200ac8c7c3b92560405160405180910390a45050565b6000818152600260205260408120546001600160a01b031661097d5760405162461bcd60e51b815260206004820152602c60248201527f4552433732313a206f70657261746f7220717565727920666f72206e6f6e657860448201526b34b9ba32b73a103a37b5b2b760a11b60648201526084016103fe565b6000610988836105b6565b9050806001600160a01b0316846001600160a01b031614806109c35750836001600160a01b03166109b884610389565b6001600160a01b0316145b806109f357506001600160a01b0380821660009081526005602090815260408083209388168352929052205460ff165b949350505050565b826001600160a01b0316610a0e826105b6565b6001600160a01b031614610a725760405162461bcd60e51b815260206004820152602560248201527f4552433732313a207472616e736665722066726f6d20696e636f72726563742060448201526437bbb732b960d91b60648201526084016103fe565b6001600160a01b038216610ad45760405162461bcd60e51b8152602060048201526024808201527f4552433732313a207472616e7366657220746f20746865207a65726f206164646044820152637265737360e01b60648201526084016103fe565b610adf600082610896565b6001600160a01b0383166000908152600360205260408120805460019290610b089084906113da565b90915550506001600160a01b0382166000908152600360205260408120805460019290610b369084906113ae565b909155505060008181526002602052604080822080546001600160a01b0319166001600160a01b0386811691821790925591518493918716917fddf252ad1be2c89b69c2b068fc378daa952ba7f163c4a11628f55a4df523b3ef91a4505050565b610ba18383610de6565b610bae6000848484610f28565b6105345760405162461bcd60e51b81526004016103fe9061130b565b816001600160a01b0316836001600160a01b03161415610c2c5760405162461bcd60e51b815260206004820152601960248201527f4552433732313a20617070726f766520746f2063616c6c65720000000000000060448201526064016103fe565b6001600160a01b03838116600081815260056020908152604080832094871680845294825291829020805460ff191686151590811790915591519182527f17307eab39ab6107e8899845ad3d59bd9653f200f220920489ca2b5937696c31910160405180910390a3505050565b610ca48484846109fb565b610cb084848484610f28565b61071b5760405162461bcd60e51b81526004016103fe9061130b565b606081610cf05750506040805180820190915260018152600360fc1b602082015290565b8160005b8115610d1a5780610d0481611458565b9150610d139050600a836113c6565b9150610cf4565b60008167ffffffffffffffff811115610d4357634e487b7160e01b600052604160045260246000fd5b6040519080825280601f01601f191660200182016040528015610d6d576020820181803683370190505b5090505b84156109f357610d826001836113da565b9150610d8f600a86611473565b610d9a9060306113ae565b60f81b818381518110610dbd57634e487b7160e01b600052603260045260246000fd5b60200101906001600160f81b031916908160001a905350610ddf600a866113c6565b9450610d71565b6001600160a01b038216610e3c5760405162461bcd60e51b815260206004820181905260248201527f4552433732313a206d696e7420746f20746865207a65726f206164647265737360448201526064016103fe565b6000818152600260205260409020546001600160a01b031615610ea15760405162461bcd60e51b815260206004820152601c60248201527f4552433732313a20746f6b656e20616c7265616479206d696e7465640000000060448201526064016103fe565b6001600160a01b0382166000908152600360205260408120805460019290610eca9084906113ae565b909155505060008181526002602052604080822080546001600160a01b0319166001600160a01b03861690811790915590518392907fddf252ad1be2c89b69c2b068fc378daa952ba7f163c4a11628f55a4df523b3ef908290a45050565b60006001600160a01b0384163b1561102a57604051630a85bd0160e11b81526001600160a01b0385169063150b7a0290610f6c9033908990889088906004016112bb565b602060405180830381600087803b158015610f8657600080fd5b505af1925050508015610fb6575060408051601f3d908101601f19168201909252610fb39181019061122c565b60015b611010573d808015610fe4576040519150601f19603f3d011682016040523d82523d6000602084013e610fe9565b606091505b5080516110085760405162461bcd60e51b81526004016103fe9061130b565b805181602001fd5b6001600160e01b031916630a85bd0160e11b1490506109f3565b506001949350505050565b80356001600160a01b038116811461104c57600080fd5b919050565b600060208284031215611062578081fd5b6105af82611035565b6000806040838503121561107d578081fd5b61108683611035565b915061109460208401611035565b90509250929050565b6000806000606084860312156110b1578081fd5b6110ba84611035565b92506110c860208501611035565b9150604084013590509250925092565b600080600080608085870312156110ed578081fd5b6110f685611035565b935061110460208601611035565b925060408501359150606085013567ffffffffffffffff80821115611127578283fd5b818701915087601f83011261113a578283fd5b81358181111561114c5761114c6114b3565b604051601f8201601f19908116603f01168101908382118183101715611174576111746114b3565b816040528281528a602084870101111561118c578586fd5b82602086016020830137918201602001949094529598949750929550505050565b600080604083850312156111bf578182fd5b6111c883611035565b9150602083013580151581146111dc578182fd5b809150509250929050565b600080604083850312156111f9578182fd5b61120283611035565b946020939093013593505050565b600060208284031215611221578081fd5b81356105af816114c9565b60006020828403121561123d578081fd5b81516105af816114c9565b600060208284031215611259578081fd5b5035919050565b600081518084526112788160208601602086016113f1565b601f01601f19169290920160200192915050565b6000835161129e8184602088016113f1565b8351908301906112b28183602088016113f1565b01949350505050565b6001600160a01b03858116825284166020820152604081018390526080606082018190526000906112ee90830184611260565b9695505050505050565b6020815260006105af6020830184611260565b60208082526032908201527f4552433732313a207472616e7366657220746f206e6f6e20455243373231526560408201527131b2b4bb32b91034b6b83632b6b2b73a32b960711b606082015260800190565b60208082526031908201527f4552433732313a207472616e736665722063616c6c6572206973206e6f74206f6040820152701ddb995c881b9bdc88185c1c1c9bdd9959607a1b606082015260800190565b600082198211156113c1576113c1611487565b500190565b6000826113d5576113d561149d565b500490565b6000828210156113ec576113ec611487565b500390565b60005b8381101561140c5781810151838201526020016113f4565b8381111561071b5750506000910152565b600181811c9082168061143157607f821691505b6020821081141561145257634e487b7160e01b600052602260045260246000fd5b50919050565b600060001982141561146c5761146c611487565b5060010190565b6000826114825761148261149d565b500690565b634e487b7160e01b600052601160045260246000fd5b634e487b7160e01b600052601260045260246000fd5b634e487b7160e01b600052604160045260246000fd5b6001600160e01b0319811681146114df57600080fd5b5056fea26469706673582212208615ab3b37fa567037f2b93ac9fbbc0b72d2486a1bf1dac2733bbeb48d56733864736f6c63430008040033",
  "linkReferences": {},
  "deployedLinkReferences": {}
}