{
  "_format": "hh-sol-artifact-1",
  "contractName": "LZEndpointMock",
  "sourceName": "contracts/mocks/LZEndpointMock.sol",
  "abi": [
    {
      "inputs": [
        {
          "internalType": "uint16",
          "name": "_chainId",
          "type": "uint16"
        }
      ],
      "stateMutability": "nonpayable",
      "type": "constructor"
    },
    {
      "anonymous": false,
      "inputs": [
        {
          "indexed": false,
          "internalType": "uint16",
          "name": "srcChainId",
          "type": "uint16"
        },
        {
          "indexed": false,
          "internalType": "bytes",
          "name": "srcAddress",
          "type": "bytes"
        },
        {
          "indexed": false,
          "internalType": "uint64",
          "name": "nonce",
          "type": "uint64"
        },
        {
          "indexed": false,
          "internalType": "address",
          "name": "dstAddress",
          "type": "address"
        }
      ],
      "name": "PayloadCleared",
      "type": "event"
    },
    {
      "anonymous": false,
      "inputs": [
        {
          "indexed": false,
          "internalType": "uint16",
          "name": "srcChainId",
          "type": "uint16"
        },
        {
          "indexed": false,
          "internalType": "bytes",
          "name": "srcAddress",
          "type": "bytes"
        },
        {
          "indexed": false,
          "internalType": "address",
          "name": "dstAddress",
          "type": "address"
        },
        {
          "indexed": false,
          "internalType": "uint64",
          "name": "nonce",
          "type": "uint64"
        },
        {
          "indexed": false,
          "internalType": "bytes",
          "name": "payload",
          "type": "bytes"
        },
        {
          "indexed": false,
          "internalType": "bytes",
          "name": "reason",
          "type": "bytes"
        }
      ],
      "name": "PayloadStored",
      "type": "event"
    },
    {
      "anonymous": false,
      "inputs": [
        {
          "indexed": false,
          "internalType": "uint16",
          "name": "chainId",
          "type": "uint16"
        },
        {
          "indexed": false,
          "internalType": "bytes",
          "name": "srcAddress",
          "type": "bytes"
        }
      ],
      "name": "UaForceResumeReceive",
      "type": "event"
    },
    {
      "inputs": [
        {
          "internalType": "address",
          "name": "_a",
          "type": "address"
        }
      ],
      "name": "addrToPackedBytes",
      "outputs": [
        {
          "internalType": "bytes",
          "name": "",
          "type": "bytes"
        }
      ],
      "stateMutability": "pure",
      "type": "function"
    },
    {
      "inputs": [],
      "name": "blockNextMsg",
      "outputs": [],
      "stateMutability": "nonpayable",
      "type": "function"
    },
    {
      "inputs": [
        {
          "internalType": "uint16",
          "name": "",
          "type": "uint16"
        },
        {
          "internalType": "address",
          "name": "",
          "type": "address"
        },
        {
          "internalType": "bytes",
          "name": "_payload",
          "type": "bytes"
        },
        {
          "internalType": "bool",
          "name": "",
          "type": "bool"
        },
        {
          "internalType": "bytes",
          "name": "",
          "type": "bytes"
        }
      ],
      "name": "estimateFees",
      "outputs": [
        {
          "internalType": "uint256",
          "name": "_nativeFee",
          "type": "uint256"
        },
        {
          "internalType": "uint256",
          "name": "_zroFee",
          "type": "uint256"
        }
      ],
      "stateMutability": "view",
      "type": "function"
    },
    {
      "inputs": [
        {
          "internalType": "uint16",
          "name": "_srcChainId",
          "type": "uint16"
        },
        {
          "internalType": "bytes",
          "name": "_srcAddress",
          "type": "bytes"
        }
      ],
      "name": "forceResumeReceive",
      "outputs": [],
      "stateMutability": "nonpayable",
      "type": "function"
    },
    {
      "inputs": [],
      "name": "getChainId",
      "outputs": [
        {
          "internalType": "uint16",
          "name": "",
          "type": "uint16"
        }
      ],
      "stateMutability": "view",
      "type": "function"
    },
    {
      "inputs": [
        {
          "internalType": "uint16",
          "name": "",
          "type": "uint16"
        },
        {
          "internalType": "uint16",
          "name": "",
          "type": "uint16"
        },
        {
          "internalType": "address",
          "name": "",
          "type": "address"
        },
        {
          "internalType": "uint256",
          "name": "",
          "type": "uint256"
        }
      ],
      "name": "getConfig",
      "outputs": [
        {
          "internalType": "bytes",
          "name": "",
          "type": "bytes"
        }
      ],
      "stateMutability": "pure",
      "type": "function"
    },
    {
      "inputs": [
        {
          "internalType": "uint16",
          "name": "_chainID",
          "type": "uint16"
        },
        {
          "internalType": "bytes",
          "name": "_srcAddress",
          "type": "bytes"
        }
      ],
      "name": "getInboundNonce",
      "outputs": [
        {
          "internalType": "uint64",
          "name": "",
          "type": "uint64"
        }
      ],
      "stateMutability": "view",
      "type": "function"
    },
    {
      "inputs": [
        {
          "internalType": "uint16",
          "name": "_srcChainId",
          "type": "uint16"
        },
        {
          "internalType": "bytes",
          "name": "_srcAddress",
          "type": "bytes"
        }
      ],
      "name": "getLengthOfQueue",
      "outputs": [
        {
          "internalType": "uint256",
          "name": "",
          "type": "uint256"
        }
      ],
      "stateMutability": "view",
      "type": "function"
    },
    {
      "inputs": [
        {
          "internalType": "uint16",
          "name": "_chainID",
          "type": "uint16"
        },
        {
          "internalType": "address",
          "name": "_srcAddress",
          "type": "address"
        }
      ],
      "name": "getOutboundNonce",
      "outputs": [
        {
          "internalType": "uint64",
          "name": "",
          "type": "uint64"
        }
      ],
      "stateMutability": "view",
      "type": "function"
    },
    {
      "inputs": [
        {
          "internalType": "address",
          "name": "",
          "type": "address"
        }
      ],
      "name": "getReceiveLibraryAddress",
      "outputs": [
        {
          "internalType": "address",
          "name": "",
          "type": "address"
        }
      ],
      "stateMutability": "view",
      "type": "function"
    },
    {
      "inputs": [
        {
          "internalType": "address",
          "name": "",
          "type": "address"
        }
      ],
      "name": "getReceiveVersion",
      "outputs": [
        {
          "internalType": "uint16",
          "name": "",
          "type": "uint16"
        }
      ],
      "stateMutability": "pure",
      "type": "function"
    },
    {
      "inputs": [
        {
          "internalType": "address",
          "name": "",
          "type": "address"
        }
      ],
      "name": "getSendLibraryAddress",
      "outputs": [
        {
          "internalType": "address",
          "name": "",
          "type": "address"
        }
      ],
      "stateMutability": "view",
      "type": "function"
    },
    {
      "inputs": [
        {
          "internalType": "address",
          "name": "",
          "type": "address"
        }
      ],
      "name": "getSendVersion",
      "outputs": [
        {
          "internalType": "uint16",
          "name": "",
          "type": "uint16"
        }
      ],
      "stateMutability": "pure",
      "type": "function"
    },
    {
      "inputs": [
        {
          "internalType": "uint16",
          "name": "_srcChainId",
          "type": "uint16"
        },
        {
          "internalType": "bytes",
          "name": "_srcAddress",
          "type": "bytes"
        }
      ],
      "name": "hasStoredPayload",
      "outputs": [
        {
          "internalType": "bool",
          "name": "",
          "type": "bool"
        }
      ],
      "stateMutability": "view",
      "type": "function"
    },
    {
      "inputs": [
        {
          "internalType": "uint16",
          "name": "",
          "type": "uint16"
        },
        {
          "internalType": "bytes",
          "name": "",
          "type": "bytes"
        }
      ],
      "name": "inboundNonce",
      "outputs": [
        {
          "internalType": "uint64",
          "name": "",
          "type": "uint64"
        }
      ],
      "stateMutability": "view",
      "type": "function"
    },
    {
      "inputs": [],
      "name": "isReceivingPayload",
      "outputs": [
        {
          "internalType": "bool",
          "name": "",
          "type": "bool"
        }
      ],
      "stateMutability": "pure",
      "type": "function"
    },
    {
      "inputs": [],
      "name": "isSendingPayload",
      "outputs": [
        {
          "internalType": "bool",
          "name": "",
          "type": "bool"
        }
      ],
      "stateMutability": "pure",
      "type": "function"
    },
    {
      "inputs": [
        {
          "internalType": "address",
          "name": "",
          "type": "address"
        }
      ],
      "name": "lzEndpointLookup",
      "outputs": [
        {
          "internalType": "address",
          "name": "",
          "type": "address"
        }
      ],
      "stateMutability": "view",
      "type": "function"
    },
    {
      "inputs": [],
      "name": "mockBlockConfirmations",
      "outputs": [
        {
          "internalType": "uint256",
          "name": "",
          "type": "uint256"
        }
      ],
      "stateMutability": "view",
      "type": "function"
    },
    {
      "inputs": [],
      "name": "mockChainId",
      "outputs": [
        {
          "internalType": "uint16",
          "name": "",
          "type": "uint16"
        }
      ],
      "stateMutability": "view",
      "type": "function"
    },
    {
      "inputs": [],
      "name": "mockLayerZeroVersion",
      "outputs": [
        {
          "internalType": "uint16",
          "name": "",
          "type": "uint16"
        }
      ],
      "stateMutability": "view",
      "type": "function"
    },
    {
      "inputs": [],
      "name": "mockLibraryVersion",
      "outputs": [
        {
          "internalType": "uint16",
          "name": "",
          "type": "uint16"
        }
      ],
      "stateMutability": "view",
      "type": "function"
    },
    {
      "inputs": [],
      "name": "mockOracle",
      "outputs": [
        {
          "internalType": "address payable",
          "name": "",
          "type": "address"
        }
      ],
      "stateMutability": "view",
      "type": "function"
    },
    {
      "inputs": [],
      "name": "mockRelayer",
      "outputs": [
        {
          "internalType": "address payable",
          "name": "",
          "type": "address"
        }
      ],
      "stateMutability": "view",
      "type": "function"
    },
    {
      "inputs": [],
      "name": "mockStaticNativeFee",
      "outputs": [
        {
          "internalType": "uint256",
          "name": "",
          "type": "uint256"
        }
      ],
      "stateMutability": "view",
      "type": "function"
    },
    {
      "inputs": [
        {
          "internalType": "uint16",
          "name": "",
          "type": "uint16"
        },
        {
          "internalType": "bytes",
          "name": "",
          "type": "bytes"
        },
        {
          "internalType": "uint256",
          "name": "",
          "type": "uint256"
        }
      ],
      "name": "msgsToDeliver",
      "outputs": [
        {
          "internalType": "address",
          "name": "dstAddress",
          "type": "address"
        },
        {
          "internalType": "uint64",
          "name": "nonce",
          "type": "uint64"
        },
        {
          "internalType": "bytes",
          "name": "payload",
          "type": "bytes"
        }
      ],
      "stateMutability": "view",
      "type": "function"
    },
    {
      "inputs": [],
      "name": "nativeFee",
      "outputs": [
        {
          "internalType": "uint256",
          "name": "",
          "type": "uint256"
        }
      ],
      "stateMutability": "view",
      "type": "function"
    },
    {
      "inputs": [
        {
          "internalType": "uint16",
          "name": "",
          "type": "uint16"
        },
        {
          "internalType": "address",
          "name": "",
          "type": "address"
        }
      ],
      "name": "outboundNonce",
      "outputs": [
        {
          "internalType": "uint64",
          "name": "",
          "type": "uint64"
        }
      ],
      "stateMutability": "view",
      "type": "function"
    },
    {
      "inputs": [
        {
          "internalType": "bytes",
          "name": "_b",
          "type": "bytes"
        }
      ],
      "name": "packedBytesToAddr",
      "outputs": [
        {
          "internalType": "address",
          "name": "",
          "type": "address"
        }
      ],
      "stateMutability": "pure",
      "type": "function"
    },
    {
      "inputs": [
        {
          "internalType": "uint16",
          "name": "_srcChainId",
          "type": "uint16"
        },
        {
          "internalType": "bytes",
          "name": "_srcAddress",
          "type": "bytes"
        },
        {
          "internalType": "address",
          "name": "_dstAddress",
          "type": "address"
        },
        {
          "internalType": "uint64",
          "name": "_nonce",
          "type": "uint64"
        },
        {
          "internalType": "uint256",
          "name": "",
          "type": "uint256"
        },
        {
          "internalType": "bytes",
          "name": "_payload",
          "type": "bytes"
        }
      ],
      "name": "receivePayload",
      "outputs": [],
      "stateMutability": "nonpayable",
      "type": "function"
    },
    {
      "inputs": [
        {
          "internalType": "uint16",
          "name": "_srcChainId",
          "type": "uint16"
        },
        {
          "internalType": "bytes",
          "name": "_srcAddress",
          "type": "bytes"
        },
        {
          "internalType": "bytes",
          "name": "_payload",
          "type": "bytes"
        }
      ],
      "name": "retryPayload",
      "outputs": [],
      "stateMutability": "nonpayable",
      "type": "function"
    },
    {
      "inputs": [
        {
          "internalType": "uint16",
          "name": "_chainId",
          "type": "uint16"
        },
        {
          "internalType": "bytes",
          "name": "_destination",
          "type": "bytes"
        },
        {
          "internalType": "bytes",
          "name": "_payload",
          "type": "bytes"
        },
        {
          "internalType": "address payable",
          "name": "",
          "type": "address"
        },
        {
          "internalType": "address",
          "name": "",
          "type": "address"
        },
        {
          "internalType": "bytes",
          "name": "_adapterParams",
          "type": "bytes"
        }
      ],
      "name": "send",
      "outputs": [],
      "stateMutability": "payable",
      "type": "function"
    },
    {
      "inputs": [
        {
          "internalType": "uint16",
          "name": "",
          "type": "uint16"
        },
        {
          "internalType": "uint16",
          "name": "",
          "type": "uint16"
        },
        {
          "internalType": "uint256",
          "name": "",
          "type": "uint256"
        },
        {
          "internalType": "bytes",
          "name": "",
          "type": "bytes"
        }
      ],
      "name": "setConfig",
      "outputs": [],
      "stateMutability": "nonpayable",
      "type": "function"
    },
    {
      "inputs": [
        {
          "internalType": "address",
          "name": "destAddr",
          "type": "address"
        },
        {
          "internalType": "address",
          "name": "lzEndpointAddr",
          "type": "address"
        }
      ],
      "name": "setDestLzEndpoint",
      "outputs": [],
      "stateMutability": "nonpayable",
      "type": "function"
    },
    {
      "inputs": [
        {
          "internalType": "uint256",
          "name": "_nativeFee",
          "type": "uint256"
        },
        {
          "internalType": "uint256",
          "name": "_zroFee",
          "type": "uint256"
        }
      ],
      "name": "setEstimatedFees",
      "outputs": [],
      "stateMutability": "nonpayable",
      "type": "function"
    },
    {
      "inputs": [
        {
          "internalType": "uint16",
          "name": "",
          "type": "uint16"
        }
      ],
      "name": "setReceiveVersion",
      "outputs": [],
      "stateMutability": "nonpayable",
      "type": "function"
    },
    {
      "inputs": [
        {
          "internalType": "uint16",
          "name": "",
          "type": "uint16"
        }
      ],
      "name": "setSendVersion",
      "outputs": [],
      "stateMutability": "nonpayable",
      "type": "function"
    },
    {
      "inputs": [
        {
          "internalType": "uint16",
          "name": "",
          "type": "uint16"
        },
        {
          "internalType": "bytes",
          "name": "",
          "type": "bytes"
        }
      ],
      "name": "storedPayload",
      "outputs": [
        {
          "internalType": "uint64",
          "name": "payloadLength",
          "type": "uint64"
        },
        {
          "internalType": "address",
          "name": "dstAddress",
          "type": "address"
        },
        {
          "internalType": "bytes32",
          "name": "payloadHash",
          "type": "bytes32"
        }
      ],
      "stateMutability": "view",
      "type": "function"
    },
    {
      "inputs": [],
      "name": "zroFee",
      "outputs": [
        {
          "internalType": "uint256",
          "name": "",
          "type": "uint256"
        }
      ],
      "stateMutability": "view",
      "type": "function"
    }
  ],
  "bytecode": "0x608060405234801561001057600080fd5b5060405162002356380380620023568339810160408190526100319161005d565b602a60055560068054600161ffff19918216811790925581541661ffff92909216919091179055610086565b60006020828403121561006e578081fd5b815161ffff8116811461007f578182fd5b9392505050565b6122c080620000966000396000f3fe6080604052600436106102305760003560e01c8063996f79c01161012e578063ca066b35116100ab578063db14f3051161006f578063db14f305146107ae578063e961a952146107c9578063e97a448a14610734578063f5ecbdbc146107df578063fdc07c701461081157600080fd5b8063ca066b3514610734578063cbed8b9c14610748578063d23104f114610769578063da1a7c9a14610288578063dab312771461078857600080fd5b8063b2086499116100f2578063b208649914610641578063c08f15a114610682578063c2fa4813146106cb578063c5803100146106eb578063c81b383a146106fe57600080fd5b8063996f79c0146105da5780639c729da114610445578063aaff5f16146105f0578063af406aa514610610578063b12107701461062657600080fd5b806340a7bb10116101bc57806371ba2fd61161018057806371ba2fd61461044557806376a386dc146104655780637a145748146104fe5780637f6df8e6146105685780639924d33b1461058857600080fd5b806340a7bb101461037f57806342d65a8d146103b45780634f055b04146103d45780635952c4ec146103f45780635b3011351461041857600080fd5b80630eaf6ea6116102035780630eaf6ea6146102e157806310ddb1371461026857806312a9ee6b146103115780632646af08146103405780633408e4701461036657600080fd5b806305bc710f1461023557806307e0db1714610268578063096568f61461028857806309eddf54146102a9575b600080fd5b34801561024157600080fd5b506004546102509061ffff1681565b60405161ffff90911681526020015b60405180910390f35b34801561027457600080fd5b50610286610283366004611a4d565b50565b005b34801561029457600080fd5b506102506102a33660046119b3565b50600190565b3480156102b557600080fd5b506102c96102c4366004611a0e565b610831565b6040516001600160a01b03909116815260200161025f565b3480156102ed57600080fd5b506103016102fc366004611b1e565b61084e565b604051901515815260200161025f565b34801561031d57600080fd5b5061033161032c366004611db1565b610893565b60405161025f93929190611f5b565b34801561034c57600080fd5b5061028661035b366004611eb6565b600791909155600855565b34801561037257600080fd5b5060015461ffff16610250565b34801561038b57600080fd5b5061039f61039a366004611a82565b610990565b6040805192835260208301919091520161025f565b3480156103c057600080fd5b506102866103cf366004611b1e565b6109b3565b3480156103e057600080fd5b506002546102c9906001600160a01b031681565b34801561040057600080fd5b5061040a60035481565b60405190815260200161025f565b34801561042457600080fd5b506104386104333660046119b3565b610afa565b60405161025f9190611f97565b34801561045157600080fd5b506102c96104603660046119b3565b503090565b34801561047157600080fd5b506104d1610480366004611d66565b600c6020908152600092835260409092208151808301840180519281529084019290930191909120915280546001909101546001600160401b03821691600160401b90046001600160a01b03169083565b604080516001600160401b0390941684526001600160a01b0390921660208401529082015260600161025f565b34801561050a57600080fd5b50610550610519366004611a67565b61ffff82166000908152600b602090815260408083206001600160a01b03851684529091529020546001600160401b031692915050565b6040516001600160401b03909116815260200161025f565b34801561057457600080fd5b5061040a610583366004611b1e565b610b2c565b34801561059457600080fd5b506105506105a3366004611d66565b600a60209081526000928352604090922081518083018401805192815290840192909301919091209152546001600160401b031681565b3480156105e657600080fd5b5061040a60075481565b3480156105fc57600080fd5b5061028661060b366004611c21565b610b68565b34801561061c57600080fd5b5061040a60085481565b34801561063257600080fd5b506006546102509061ffff1681565b34801561064d57600080fd5b5061055061065c366004611a67565b600b6020908152600092835260408084209091529082529020546001600160401b031681565b34801561068e57600080fd5b5061028661069d3660046119d6565b6001600160a01b03918216600090815260208190526040902080546001600160a01b03191691909216179055565b3480156106d757600080fd5b506102866106e6366004611b6e565b610d7e565b6102866106f9366004611c9e565b611334565b34801561070a57600080fd5b506102c96107193660046119b3565b6000602081905290815260409020546001600160a01b031681565b34801561074057600080fd5b506000610301565b34801561075457600080fd5b50610286610763366004611e51565b50505050565b34801561077557600080fd5b506102866009805460ff19166001179055565b34801561079457600080fd5b506001546102c9906201000090046001600160a01b031681565b3480156107ba57600080fd5b506001546102509061ffff1681565b3480156107d557600080fd5b5061040a60055481565b3480156107eb57600080fd5b506104386107fa366004611e05565b604080516020810190915260008152949350505050565b34801561081d57600080fd5b5061055061082c366004611b1e565b61152e565b600080604051600284016002860382376009190151949350505050565b61ffff83166000908152600c602052604080822090518291906108749086908690611f4b565b9081526040519081900360200190206001015415159150509392505050565b600d60209081526000848152604090208351808501830180519281529083019285019290922091528054829081106108ca57600080fd5b6000918252602090912060029091020180546001820180546001600160a01b0383169650600160a01b9092046001600160401b0316945091925061090d906121cc565b80601f0160208091040260200160405190810160405280929190818152602001828054610939906121cc565b80156109865780601f1061095b57610100808354040283529160200191610986565b820191906000526020600020905b81548152906001019060200180831161096957829003601f168201915b5050505050905083565b60008084516007546109a29190612196565b915060085490509550959350505050565b61ffff83166000908152600c602052604080822090516109d69085908590611f4b565b9081526040519081900360200190206001810154909150610a3e5760405162461bcd60e51b815260206004820152601c60248201527f4c617965725a65726f3a206e6f2073746f726564207061796c6f61640000000060448201526064015b60405180910390fd5b8054600160401b90046001600160a01b03163314610a9e5760405162461bcd60e51b815260206004820152601960248201527f4c617965725a65726f3a20696e76616c69642063616c6c6572000000000000006044820152606401610a35565b80546001600160e01b0319168155600060018201556040517f23d2684f396e92a6e2ff2d16f98e6fea00d50cb27a64b531bc0748f730211f9890610ae790869086908690611faa565b60405180910390a1610763848484611573565b6040805160609290921b6bffffffffffffffffffffffff19166020830152805180830360140181526034909201905290565b61ffff83166000908152600d60205260408082209051610b4f9085908590611f4b565b9081526040519081900360200190205490509392505050565b61ffff85166000908152600c60205260408082209051610b8b9087908790611f4b565b9081526040519081900360200190206001810154909150610bee5760405162461bcd60e51b815260206004820152601c60248201527f4c617965725a65726f3a206e6f2073746f726564207061796c6f6164000000006044820152606401610a35565b80546001600160401b031682148015610c21575080600101548383604051610c17929190611f4b565b6040518091039020145b610c6d5760405162461bcd60e51b815260206004820152601a60248201527f4c617965725a65726f3a20696e76616c6964207061796c6f61640000000000006044820152606401610a35565b80546001600160e01b03198116825560006001830181905561ffff88168152600a60205260408082209051600160401b9093046001600160a01b031692610cb79089908990611f4b565b90815260405190819003602001812054621d356760e01b82526001600160401b031691506001600160a01b03831690621d356790610d03908b908b908b9087908c908c90600401612083565b600060405180830381600087803b158015610d1d57600080fd5b505af1158015610d31573d6000803e3d6000fd5b505050507f612434f39581c8e7d99746c9c20c6eb0ce8c0eb99f007c5719d620841370957d8888888486604051610d6c95949392919061203a565b60405180910390a15050505050505050565b61ffff88166000908152600c60205260408082209051610da1908a908a90611f4b565b90815260200160405180910390209050600a60008a61ffff1661ffff1681526020019081526020016000208888604051610ddc929190611f4b565b9081526040519081900360200190208054600090610e02906001600160401b0316612222565b91906101000a8154816001600160401b0302191690836001600160401b0316021790556001600160401b0316856001600160401b031614610e7e5760405162461bcd60e51b81526020600482015260166024820152754c617965725a65726f3a2077726f6e67206e6f6e636560501b6044820152606401610a35565b60018101541561119c5761ffff89166000908152600d60205260408082209051610eab908b908b90611f4b565b9081526020016040518091039020905060006040518060600160405280896001600160a01b03168152602001886001600160401b0316815260200186868080601f016020809104026020016040519081016040528093929190818152602001838380828437600092019190915250505091525082549091501561112657815460018181018455600084815260209081902084516002909402018054828601516001600160401b0316600160a01b026001600160e01b03199091166001600160a01b039095169490941793909317835560408401518051859493610f9393908501920190611786565b50505060005b8254610fa7906001906121b5565b81101561109657828181548110610fce57634e487b7160e01b600052603260045260246000fd5b906000526020600020906002020183826001610fea919061217e565b8154811061100857634e487b7160e01b600052603260045260246000fd5b60009182526020909120825460029092020180546001600160a01b039092166001600160a01b031983168117825583546001600160e01b031990931617600160a01b928390046001600160401b03169092029190911781556001808301805491830191611074906121cc565b61107f92919061180a565b50905050808061108e90612207565b915050610f99565b5080826000815481106110b957634e487b7160e01b600052603260045260246000fd5b600091825260209182902083516002909202018054848401516001600160401b0316600160a01b026001600160e01b03199091166001600160a01b039093169290921791909117815560408301518051919261111d92600185019290910190611786565b50905050611195565b815460018181018455600084815260209081902084516002909402018054828601516001600160401b0316600160a01b026001600160e01b03199091166001600160a01b03909516949094179390931783556040840151805185949361119193908501920190611786565b5050505b5050611329565b60095460ff16156112c2576040518060600160405280848490506001600160401b03168152602001876001600160a01b0316815260200184846040516111e3929190611f4b565b604080519182900390912090915261ffff8b166000908152600c6020528190209051611212908b908b90611f4b565b90815260408051918290036020908101832084518154868401516001600160a01b0316600160401b026001600160e01b03199091166001600160401b03909216919091171781559382015160019094019390935591810182526000815290517f0f9e4d95b62f08222d612b5ab92039cd8fbbbea550a95e8df9f927436bbdf5db916112ab918c918c918c918c918c918b918b9190611fc8565b60405180910390a16009805460ff19169055611329565b604051621d356760e01b81526001600160a01b03871690621d3567906112f6908c908c908c908b908a908a90600401612083565b600060405180830381600087803b15801561131057600080fd5b505af1158015611324573d6000803e3d6000fd5b505050505b505050505050505050565b60006113408888610831565b6001600160a01b0380821660009081526020819052604090205491925016806113d15760405162461bcd60e51b815260206004820152603760248201527f4c617965725a65726f4d6f636b3a2064657374696e6174696f6e204c6179657260448201527f5a65726f20456e64706f696e74206e6f7420666f756e640000000000000000006064820152608401610a35565b6007546113df908790612196565b3410156114405760405162461bcd60e51b815260206004820152602960248201527f4c617965725a65726f4d6f636b3a206e6f7420656e6f756768206e617469766560448201526820666f72206665657360b81b6064820152608401610a35565b61ffff8a166000908152600b60209081526040808320338452909152812080548290611474906001600160401b0316612222565b82546001600160401b038083166101009490940a9384029302191691909117909155905060006114a333610afa565b9050826001600160a01b031663c2fa4813600160009054906101000a900461ffff1683878660008f8f6040518863ffffffff1660e01b81526004016114ee979695949392919061211b565b600060405180830381600087803b15801561150857600080fd5b505af115801561151c573d6000803e3d6000fd5b50505050505050505050505050505050565b61ffff83166000908152600a602052604080822090516115519085908590611f4b565b908152604051908190036020019020546001600160401b031690509392505050565b61ffff83166000908152600d602052604080822090516115969085908590611f4b565b908152602001604051809103902090505b80541561076357805460009082906115c1906001906121b5565b815481106115df57634e487b7160e01b600052603260045260246000fd5b600091825260209182902060408051606081018252600290930290910180546001600160a01b03811684526001600160401b03600160a01b909104169383019390935260018301805492939291840191611638906121cc565b80601f0160208091040260200160405190810160405280929190818152602001828054611664906121cc565b80156116b15780601f10611686576101008083540402835291602001916116b1565b820191906000526020600020905b81548152906001019060200180831161169457829003601f168201915b505050505081525050905080600001516001600160a01b0316621d3567868686856020015186604001516040518663ffffffff1660e01b81526004016116fb9594939291906120d0565b600060405180830381600087803b15801561171557600080fd5b505af1158015611729573d6000803e3d6000fd5b505050508180548061174b57634e487b7160e01b600052603160045260246000fd5b60008281526020812060026000199093019283020180546001600160e01b03191681559061177c6001830182611885565b50509055506115a7565b828054611792906121cc565b90600052602060002090601f0160209004810192826117b457600085556117fa565b82601f106117cd57805160ff19168380011785556117fa565b828001600101855582156117fa579182015b828111156117fa5782518255916020019190600101906117df565b506118069291506118bb565b5090565b828054611816906121cc565b90600052602060002090601f01602090048101928261183857600085556117fa565b82601f1061184957805485556117fa565b828001600101855582156117fa57600052602060002091601f016020900482015b828111156117fa57825482559160010191906001019061186a565b508054611891906121cc565b6000825580601f106118a1575050565b601f01602090049060005260206000209081019061028391905b5b8082111561180657600081556001016118bc565b60008083601f8401126118e1578182fd5b5081356001600160401b038111156118f7578182fd5b60208301915083602082850101111561190f57600080fd5b9250929050565b600082601f830112611926578081fd5b81356001600160401b03808211156119405761194061225f565b604051601f8301601f19908116603f011681019082821181831017156119685761196861225f565b81604052838152866020858801011115611980578485fd5b8360208701602083013792830160200193909352509392505050565b803561ffff811681146119ae57600080fd5b919050565b6000602082840312156119c4578081fd5b81356119cf81612275565b9392505050565b600080604083850312156119e8578081fd5b82356119f381612275565b91506020830135611a0381612275565b809150509250929050565b60008060208385031215611a20578182fd5b82356001600160401b03811115611a35578283fd5b611a41858286016118d0565b90969095509350505050565b600060208284031215611a5e578081fd5b6119cf8261199c565b60008060408385031215611a79578182fd5b6119f38361199c565b600080600080600060a08688031215611a99578081fd5b611aa28661199c565b94506020860135611ab281612275565b935060408601356001600160401b0380821115611acd578283fd5b611ad989838a01611916565b9450606088013591508115158214611aef578283fd5b90925060808701359080821115611b04578283fd5b50611b1188828901611916565b9150509295509295909350565b600080600060408486031215611b32578283fd5b611b3b8461199c565b925060208401356001600160401b03811115611b55578283fd5b611b61868287016118d0565b9497909650939450505050565b60008060008060008060008060c0898b031215611b89578283fd5b611b928961199c565b975060208901356001600160401b0380821115611bad578485fd5b611bb98c838d016118d0565b909950975060408b01359150611bce82612275565b90955060608a0135908082168214611be4578485fd5b90945060808a0135935060a08a01359080821115611c00578384fd5b50611c0d8b828c016118d0565b999c989b5096995094979396929594505050565b600080600080600060608688031215611c38578081fd5b611c418661199c565b945060208601356001600160401b0380821115611c5c578283fd5b611c6889838a016118d0565b90965094506040880135915080821115611c80578283fd5b50611c8d888289016118d0565b969995985093965092949392505050565b60008060008060008060008060c0898b031215611cb9578384fd5b611cc28961199c565b975060208901356001600160401b0380821115611cdd578586fd5b611ce98c838d016118d0565b909950975060408b0135915080821115611d01578586fd5b611d0d8c838d016118d0565b909750955060608b01359150611d2282612275565b90935060808a013590611d3482612275565b90925060a08a01359080821115611d49578283fd5b50611d568b828c01611916565b9150509295985092959890939650565b60008060408385031215611d78578182fd5b611d818361199c565b915060208301356001600160401b03811115611d9b578182fd5b611da785828601611916565b9150509250929050565b600080600060608486031215611dc5578081fd5b611dce8461199c565b925060208401356001600160401b03811115611de8578182fd5b611df486828701611916565b925050604084013590509250925092565b60008060008060808587031215611e1a578182fd5b611e238561199c565b9350611e316020860161199c565b92506040850135611e4181612275565b9396929550929360600135925050565b60008060008060808587031215611e66578182fd5b611e6f8561199c565b9350611e7d6020860161199c565b92506040850135915060608501356001600160401b03811115611e9e578182fd5b611eaa87828801611916565b91505092959194509250565b60008060408385031215611ec8578182fd5b50508035926020909101359150565b81835281816020850137506000828201602090810191909152601f909101601f19169091010190565b60008151808452815b81811015611f2557602081850181015186830182015201611f09565b81811115611f365782602083870101525b50601f01601f19169290920160200192915050565b8183823760009101908152919050565b6001600160a01b03841681526001600160401b0383166020820152606060408201819052600090611f8e90830184611f00565b95945050505050565b6020815260006119cf6020830184611f00565b61ffff84168152604060208201526000611f8e604083018486611ed7565b61ffff8916815260c060208201526000611fe660c08301898b611ed7565b6001600160a01b03881660408401526001600160401b03871660608401528281036080840152612017818688611ed7565b905082810360a084015261202b8185611f00565b9b9a5050505050505050505050565b61ffff86168152608060208201526000612058608083018688611ed7565b6001600160401b03949094166040830152506001600160a01b03919091166060909101529392505050565b61ffff871681526080602082015260006120a1608083018789611ed7565b6001600160401b038616604084015282810360608401526120c3818587611ed7565b9998505050505050505050565b61ffff861681526080602082015260006120ee608083018688611ed7565b6001600160401b0385166040840152828103606084015261210f8185611f00565b98975050505050505050565b61ffff8816815260c06020820152600061213860c0830189611f00565b6001600160a01b03881660408401526001600160401b03871660608401526080830186905282810360a0840152612170818587611ed7565b9a9950505050505050505050565b6000821982111561219157612191612249565b500190565b60008160001904831182151516156121b0576121b0612249565b500290565b6000828210156121c7576121c7612249565b500390565b600181811c908216806121e057607f821691505b6020821081141561220157634e487b7160e01b600052602260045260246000fd5b50919050565b600060001982141561221b5761221b612249565b5060010190565b60006001600160401b038083168181141561223f5761223f612249565b6001019392505050565b634e487b7160e01b600052601160045260246000fd5b634e487b7160e01b600052604160045260246000fd5b6001600160a01b038116811461028357600080fdfea264697066735822122072a260fe92d819ba48b4bbeac7268cc7fcf68f476342581e1673416d293dd75464736f6c63430008040033",
  "linkReferences": {},
  "deployedLinkReferences": {}
}