{
    "contractName": "GeneXProject",
    "abi": [
        {
            "inputs": [
                {
                    "internalType": "address",
                    "name": "_layerZerolzEndpoint",
                    "type": "address"
                },
                {
                    "internalType": "uint256",
                    "name": "_startMintId",
                    "type": "uint256"
                },
                {
                    "internalType": "uint256",
                    "name": "_endMintId",
                    "type": "uint256"
                }
            ],
            "stateMutability": "nonpayable",
            "type": "constructor"
        },
        {
            "anonymous": false,
            "inputs": [
                {
                    "indexed": true,
                    "internalType": "address",
                    "name": "owner",
                    "type": "address"
                },
                {
                    "indexed": true,
                    "internalType": "address",
                    "name": "approved",
                    "type": "address"
                },
                {
                    "indexed": true,
                    "internalType": "uint256",
                    "name": "tokenId",
                    "type": "uint256"
                }
            ],
            "name": "Approval",
            "type": "event"
        },
        {
            "anonymous": false,
            "inputs": [
                {
                    "indexed": true,
                    "internalType": "address",
                    "name": "owner",
                    "type": "address"
                },
                {
                    "indexed": true,
                    "internalType": "address",
                    "name": "operator",
                    "type": "address"
                },
                {
                    "indexed": false,
                    "internalType": "bool",
                    "name": "approved",
                    "type": "bool"
                }
            ],
            "name": "ApprovalForAll",
            "type": "event"
        },
        {
            "anonymous": false,
            "inputs": [
                {
                    "indexed": false,
                    "internalType": "uint16",
                    "name": "_srcChainId",
                    "type": "uint16"
                },
                {
                    "indexed": false,
                    "internalType": "bytes",
                    "name": "_srcAddress",
                    "type": "bytes"
                },
                {
                    "indexed": false,
                    "internalType": "uint64",
                    "name": "_nonce",
                    "type": "uint64"
                },
                {
                    "indexed": false,
                    "internalType": "bytes",
                    "name": "_payload",
                    "type": "bytes"
                }
            ],
            "name": "MessageFailed",
            "type": "event"
        },
        {
            "anonymous": false,
            "inputs": [
                {
                    "indexed": true,
                    "internalType": "address",
                    "name": "previousOwner",
                    "type": "address"
                },
                {
                    "indexed": true,
                    "internalType": "address",
                    "name": "newOwner",
                    "type": "address"
                }
            ],
            "name": "OwnershipTransferred",
            "type": "event"
        },
        {
            "anonymous": false,
            "inputs": [
                {
                    "indexed": true,
                    "internalType": "uint16",
                    "name": "_srcChainId",
                    "type": "uint16"
                },
                {
                    "indexed": true,
                    "internalType": "bytes",
                    "name": "_srcAddress",
                    "type": "bytes"
                },
                {
                    "indexed": true,
                    "internalType": "address",
                    "name": "_toAddress",
                    "type": "address"
                },
                {
                    "indexed": false,
                    "internalType": "uint256",
                    "name": "_tokenId",
                    "type": "uint256"
                },
                {
                    "indexed": false,
                    "internalType": "uint64",
                    "name": "_nonce",
                    "type": "uint64"
                }
            ],
            "name": "ReceiveFromChain",
            "type": "event"
        },
        {
            "anonymous": false,
            "inputs": [
                {
                    "indexed": true,
                    "internalType": "address",
                    "name": "_sender",
                    "type": "address"
                },
                {
                    "indexed": true,
                    "internalType": "uint16",
                    "name": "_dstChainId",
                    "type": "uint16"
                },
                {
                    "indexed": true,
                    "internalType": "bytes",
                    "name": "_toAddress",
                    "type": "bytes"
                },
                {
                    "indexed": false,
                    "internalType": "uint256",
                    "name": "_tokenId",
                    "type": "uint256"
                },
                {
                    "indexed": false,
                    "internalType": "uint64",
                    "name": "_nonce",
                    "type": "uint64"
                }
            ],
            "name": "SendToChain",
            "type": "event"
        },
        {
            "anonymous": false,
            "inputs": [
                {
                    "indexed": false,
                    "internalType": "uint16",
                    "name": "_srcChainId",
                    "type": "uint16"
                },
                {
                    "indexed": false,
                    "internalType": "bytes",
                    "name": "_srcAddress",
                    "type": "bytes"
                }
            ],
            "name": "SetTrustedRemote",
            "type": "event"
        },
        {
            "anonymous": false,
            "inputs": [
                {
                    "indexed": true,
                    "internalType": "address",
                    "name": "from",
                    "type": "address"
                },
                {
                    "indexed": true,
                    "internalType": "address",
                    "name": "to",
                    "type": "address"
                },
                {
                    "indexed": true,
                    "internalType": "uint256",
                    "name": "tokenId",
                    "type": "uint256"
                }
            ],
            "name": "Transfer",
            "type": "event"
        },
        {
            "inputs": [],
            "name": "PUBLIC_SALE_STATE",
            "outputs": [
                {
                    "internalType": "bool",
                    "name": "",
                    "type": "bool"
                }
            ],
            "stateMutability": "view",
            "type": "function"
        },
        {
            "inputs": [],
            "name": "WL_SALE_STATE",
            "outputs": [
                {
                    "internalType": "bool",
                    "name": "",
                    "type": "bool"
                }
            ],
            "stateMutability": "view",
            "type": "function"
        },
        {
            "inputs": [
                {
                    "internalType": "address",
                    "name": "to",
                    "type": "address"
                },
                {
                    "internalType": "uint256",
                    "name": "tokenId",
                    "type": "uint256"
                }
            ],
            "name": "approve",
            "outputs": [],
            "stateMutability": "nonpayable",
            "type": "function"
        },
        {
            "inputs": [
                {
                    "internalType": "address",
                    "name": "owner",
                    "type": "address"
                }
            ],
            "name": "balanceOf",
            "outputs": [
                {
                    "internalType": "uint256",
                    "name": "",
                    "type": "uint256"
                }
            ],
            "stateMutability": "view",
            "type": "function"
        },
        {
            "inputs": [],
            "name": "bool_PUBLIC_SALE",
            "outputs": [],
            "stateMutability": "nonpayable",
            "type": "function"
        },
        {
            "inputs": [],
            "name": "bool_WL_SALE",
            "outputs": [],
            "stateMutability": "nonpayable",
            "type": "function"
        },
        {
            "inputs": [
                {
                    "internalType": "uint16",
                    "name": "_dstChainId",
                    "type": "uint16"
                },
                {
                    "internalType": "bytes",
                    "name": "_toAddress",
                    "type": "bytes"
                },
                {
                    "internalType": "uint256",
                    "name": "_tokenId",
                    "type": "uint256"
                },
                {
                    "internalType": "bool",
                    "name": "_useZro",
                    "type": "bool"
                },
                {
                    "internalType": "bytes",
                    "name": "_adapterParams",
                    "type": "bytes"
                }
            ],
            "name": "estimateSendFee",
            "outputs": [
                {
                    "internalType": "uint256",
                    "name": "nativeFee",
                    "type": "uint256"
                },
                {
                    "internalType": "uint256",
                    "name": "zroFee",
                    "type": "uint256"
                }
            ],
            "stateMutability": "view",
            "type": "function"
        },
        {
            "inputs": [
                {
                    "internalType": "uint16",
                    "name": "",
                    "type": "uint16"
                },
                {
                    "internalType": "bytes",
                    "name": "",
                    "type": "bytes"
                },
                {
                    "internalType": "uint64",
                    "name": "",
                    "type": "uint64"
                }
            ],
            "name": "failedMessages",
            "outputs": [
                {
                    "internalType": "bytes32",
                    "name": "",
                    "type": "bytes32"
                }
            ],
            "stateMutability": "view",
            "type": "function"
        },
        {
            "inputs": [
                {
                    "internalType": "uint16",
                    "name": "_srcChainId",
                    "type": "uint16"
                },
                {
                    "internalType": "bytes",
                    "name": "_srcAddress",
                    "type": "bytes"
                }
            ],
            "name": "forceResumeReceive",
            "outputs": [],
            "stateMutability": "nonpayable",
            "type": "function"
        },
        {
            "inputs": [
                {
                    "internalType": "uint256",
                    "name": "tokenId",
                    "type": "uint256"
                }
            ],
            "name": "getApproved",
            "outputs": [
                {
                    "internalType": "address",
                    "name": "",
                    "type": "address"
                }
            ],
            "stateMutability": "view",
            "type": "function"
        },
        {
            "inputs": [
                {
                    "internalType": "uint16",
                    "name": "_version",
                    "type": "uint16"
                },
                {
                    "internalType": "uint16",
                    "name": "_chainId",
                    "type": "uint16"
                },
                {
                    "internalType": "address",
                    "name": "",
                    "type": "address"
                },
                {
                    "internalType": "uint256",
                    "name": "_configType",
                    "type": "uint256"
                }
            ],
            "name": "getConfig",
            "outputs": [
                {
                    "internalType": "bytes",
                    "name": "",
                    "type": "bytes"
                }
            ],
            "stateMutability": "view",
            "type": "function"
        },
        {
            "inputs": [
                {
                    "internalType": "address",
                    "name": "owner",
                    "type": "address"
                },
                {
                    "internalType": "address",
                    "name": "operator",
                    "type": "address"
                }
            ],
            "name": "isApprovedForAll",
            "outputs": [
                {
                    "internalType": "bool",
                    "name": "",
                    "type": "bool"
                }
            ],
            "stateMutability": "view",
            "type": "function"
        },
        {
            "inputs": [
                {
                    "internalType": "uint16",
                    "name": "_srcChainId",
                    "type": "uint16"
                },
                {
                    "internalType": "bytes",
                    "name": "_srcAddress",
                    "type": "bytes"
                }
            ],
            "name": "isTrustedRemote",
            "outputs": [
                {
                    "internalType": "bool",
                    "name": "",
                    "type": "bool"
                }
            ],
            "stateMutability": "view",
            "type": "function"
        },
        {
            "inputs": [],
            "name": "lzEndpoint",
            "outputs": [
                {
                    "internalType": "contract ILayerZeroEndpoint",
                    "name": "",
                    "type": "address"
                }
            ],
            "stateMutability": "view",
            "type": "function"
        },
        {
            "inputs": [
                {
                    "internalType": "uint16",
                    "name": "_srcChainId",
                    "type": "uint16"
                },
                {
                    "internalType": "bytes",
                    "name": "_srcAddress",
                    "type": "bytes"
                },
                {
                    "internalType": "uint64",
                    "name": "_nonce",
                    "type": "uint64"
                },
                {
                    "internalType": "bytes",
                    "name": "_payload",
                    "type": "bytes"
                }
            ],
            "name": "lzReceive",
            "outputs": [],
            "stateMutability": "nonpayable",
            "type": "function"
        },
        {
            "inputs": [],
            "name": "maxMintId",
            "outputs": [
                {
                    "internalType": "uint256",
                    "name": "",
                    "type": "uint256"
                }
            ],
            "stateMutability": "view",
            "type": "function"
        },
        {
            "inputs": [],
            "name": "merkleroot",
            "outputs": [
                {
                    "internalType": "bytes32",
                    "name": "",
                    "type": "bytes32"
                }
            ],
            "stateMutability": "view",
            "type": "function"
        },
        {
            "inputs": [],
            "name": "name",
            "outputs": [
                {
                    "internalType": "string",
                    "name": "",
                    "type": "string"
                }
            ],
            "stateMutability": "view",
            "type": "function"
        },
        {
            "inputs": [],
            "name": "nextMintId",
            "outputs": [
                {
                    "internalType": "uint256",
                    "name": "",
                    "type": "uint256"
                }
            ],
            "stateMutability": "view",
            "type": "function"
        },
        {
            "inputs": [
                {
                    "internalType": "uint16",
                    "name": "_srcChainId",
                    "type": "uint16"
                },
                {
                    "internalType": "bytes",
                    "name": "_srcAddress",
                    "type": "bytes"
                },
                {
                    "internalType": "uint64",
                    "name": "_nonce",
                    "type": "uint64"
                },
                {
                    "internalType": "bytes",
                    "name": "_payload",
                    "type": "bytes"
                }
            ],
            "name": "nonblockingLzReceive",
            "outputs": [],
            "stateMutability": "nonpayable",
            "type": "function"
        },
        {
            "inputs": [],
            "name": "owner",
            "outputs": [
                {
                    "internalType": "address",
                    "name": "",
                    "type": "address"
                }
            ],
            "stateMutability": "view",
            "type": "function"
        },
        {
            "inputs": [
                {
                    "internalType": "uint256",
                    "name": "numberOfTokens",
                    "type": "uint256"
                }
            ],
            "name": "ownerMint",
            "outputs": [],
            "stateMutability": "nonpayable",
            "type": "function"
        },
        {
            "inputs": [
                {
                    "internalType": "uint256",
                    "name": "tokenId",
                    "type": "uint256"
                }
            ],
            "name": "ownerOf",
            "outputs": [
                {
                    "internalType": "address",
                    "name": "",
                    "type": "address"
                }
            ],
            "stateMutability": "view",
            "type": "function"
        },
        {
            "inputs": [
                {
                    "internalType": "uint256",
                    "name": "numberOfTokens",
                    "type": "uint256"
                }
            ],
            "name": "publicMint",
            "outputs": [],
            "stateMutability": "nonpayable",
            "type": "function"
        },
        {
            "inputs": [],
            "name": "renounceOwnership",
            "outputs": [],
            "stateMutability": "nonpayable",
            "type": "function"
        },
        {
            "inputs": [
                {
                    "internalType": "uint16",
                    "name": "_srcChainId",
                    "type": "uint16"
                },
                {
                    "internalType": "bytes",
                    "name": "_srcAddress",
                    "type": "bytes"
                },
                {
                    "internalType": "uint64",
                    "name": "_nonce",
                    "type": "uint64"
                },
                {
                    "internalType": "bytes",
                    "name": "_payload",
                    "type": "bytes"
                }
            ],
            "name": "retryMessage",
            "outputs": [],
            "stateMutability": "payable",
            "type": "function"
        },
        {
            "inputs": [],
            "name": "reveal",
            "outputs": [],
            "stateMutability": "nonpayable",
            "type": "function"
        },
        {
            "inputs": [],
            "name": "revealed",
            "outputs": [
                {
                    "internalType": "bool",
                    "name": "",
                    "type": "bool"
                }
            ],
            "stateMutability": "view",
            "type": "function"
        },
        {
            "inputs": [
                {
                    "internalType": "address",
                    "name": "from",
                    "type": "address"
                },
                {
                    "internalType": "address",
                    "name": "to",
                    "type": "address"
                },
                {
                    "internalType": "uint256",
                    "name": "tokenId",
                    "type": "uint256"
                }
            ],
            "name": "safeTransferFrom",
            "outputs": [],
            "stateMutability": "nonpayable",
            "type": "function"
        },
        {
            "inputs": [
                {
                    "internalType": "address",
                    "name": "from",
                    "type": "address"
                },
                {
                    "internalType": "address",
                    "name": "to",
                    "type": "address"
                },
                {
                    "internalType": "uint256",
                    "name": "tokenId",
                    "type": "uint256"
                },
                {
                    "internalType": "bytes",
                    "name": "_data",
                    "type": "bytes"
                }
            ],
            "name": "safeTransferFrom",
            "outputs": [],
            "stateMutability": "nonpayable",
            "type": "function"
        },
        {
            "inputs": [
                {
                    "internalType": "address",
                    "name": "_from",
                    "type": "address"
                },
                {
                    "internalType": "uint16",
                    "name": "_dstChainId",
                    "type": "uint16"
                },
                {
                    "internalType": "bytes",
                    "name": "_toAddress",
                    "type": "bytes"
                },
                {
                    "internalType": "uint256",
                    "name": "_tokenId",
                    "type": "uint256"
                },
                {
                    "internalType": "address payable",
                    "name": "_refundAddress",
                    "type": "address"
                },
                {
                    "internalType": "address",
                    "name": "_zroPaymentAddress",
                    "type": "address"
                },
                {
                    "internalType": "bytes",
                    "name": "_adapterParams",
                    "type": "bytes"
                }
            ],
            "name": "sendFrom",
            "outputs": [],
            "stateMutability": "payable",
            "type": "function"
        },
        {
            "inputs": [
                {
                    "internalType": "address",
                    "name": "operator",
                    "type": "address"
                },
                {
                    "internalType": "bool",
                    "name": "approved",
                    "type": "bool"
                }
            ],
            "name": "setApprovalForAll",
            "outputs": [],
            "stateMutability": "nonpayable",
            "type": "function"
        },
        {
            "inputs": [
                {
                    "internalType": "string",
                    "name": "NEW_BASE_URI",
                    "type": "string"
                }
            ],
            "name": "setBaseURI",
            "outputs": [],
            "stateMutability": "nonpayable",
            "type": "function"
        },
        {
            "inputs": [
                {
                    "internalType": "uint16",
                    "name": "_version",
                    "type": "uint16"
                },
                {
                    "internalType": "uint16",
                    "name": "_chainId",
                    "type": "uint16"
                },
                {
                    "internalType": "uint256",
                    "name": "_configType",
                    "type": "uint256"
                },
                {
                    "internalType": "bytes",
                    "name": "_config",
                    "type": "bytes"
                }
            ],
            "name": "setConfig",
            "outputs": [],
            "stateMutability": "nonpayable",
            "type": "function"
        },
        {
            "inputs": [
                {
                    "internalType": "uint256",
                    "name": "newVal",
                    "type": "uint256"
                }
            ],
            "name": "setGasLzReceive",
            "outputs": [],
            "stateMutability": "nonpayable",
            "type": "function"
        },
        {
            "inputs": [
                {
                    "internalType": "string",
                    "name": "NEW_HIDDEN_URI",
                    "type": "string"
                }
            ],
            "name": "setHiddenURI",
            "outputs": [],
            "stateMutability": "nonpayable",
            "type": "function"
        },
        {
            "inputs": [
                {
                    "internalType": "bytes32",
                    "name": "_merkleroot",
                    "type": "bytes32"
                }
            ],
            "name": "setMerkleRoot",
            "outputs": [],
            "stateMutability": "nonpayable",
            "type": "function"
        },
        {
            "inputs": [
                {
                    "internalType": "uint16",
                    "name": "_version",
                    "type": "uint16"
                }
            ],
            "name": "setReceiveVersion",
            "outputs": [],
            "stateMutability": "nonpayable",
            "type": "function"
        },
        {
            "inputs": [
                {
                    "internalType": "uint16",
                    "name": "_version",
                    "type": "uint16"
                }
            ],
            "name": "setSendVersion",
            "outputs": [],
            "stateMutability": "nonpayable",
            "type": "function"
        },
        {
            "inputs": [
                {
                    "internalType": "uint16",
                    "name": "_srcChainId",
                    "type": "uint16"
                },
                {
                    "internalType": "bytes",
                    "name": "_srcAddress",
                    "type": "bytes"
                }
            ],
            "name": "setTrustedRemote",
            "outputs": [],
            "stateMutability": "nonpayable",
            "type": "function"
        },
        {
            "inputs": [
                {
                    "internalType": "bytes4",
                    "name": "interfaceId",
                    "type": "bytes4"
                }
            ],
            "name": "supportsInterface",
            "outputs": [
                {
                    "internalType": "bool",
                    "name": "",
                    "type": "bool"
                }
            ],
            "stateMutability": "view",
            "type": "function"
        },
        {
            "inputs": [],
            "name": "symbol",
            "outputs": [
                {
                    "internalType": "string",
                    "name": "",
                    "type": "string"
                }
            ],
            "stateMutability": "view",
            "type": "function"
        },
        {
            "inputs": [
                {
                    "internalType": "uint256",
                    "name": "tokenId",
                    "type": "uint256"
                }
            ],
            "name": "tokenURI",
            "outputs": [
                {
                    "internalType": "string",
                    "name": "",
                    "type": "string"
                }
            ],
            "stateMutability": "view",
            "type": "function"
        },
        {
            "inputs": [
                {
                    "internalType": "address",
                    "name": "from",
                    "type": "address"
                },
                {
                    "internalType": "address",
                    "name": "to",
                    "type": "address"
                },
                {
                    "internalType": "uint256",
                    "name": "tokenId",
                    "type": "uint256"
                }
            ],
            "name": "transferFrom",
            "outputs": [],
            "stateMutability": "nonpayable",
            "type": "function"
        },
        {
            "inputs": [
                {
                    "internalType": "address",
                    "name": "newOwner",
                    "type": "address"
                }
            ],
            "name": "transferOwnership",
            "outputs": [],
            "stateMutability": "nonpayable",
            "type": "function"
        },
        {
            "inputs": [
                {
                    "internalType": "uint16",
                    "name": "_chainId",
                    "type": "uint16"
                },
                {
                    "internalType": "uint256",
                    "name": "tokenId",
                    "type": "uint256"
                }
            ],
            "name": "traverseChains",
            "outputs": [],
            "stateMutability": "payable",
            "type": "function"
        },
        {
            "inputs": [
                {
                    "internalType": "uint16",
                    "name": "",
                    "type": "uint16"
                }
            ],
            "name": "trustedRemoteLookup",
            "outputs": [
                {
                    "internalType": "bytes",
                    "name": "",
                    "type": "bytes"
                }
            ],
            "stateMutability": "view",
            "type": "function"
        },
        {
            "inputs": [
                {
                    "internalType": "uint256",
                    "name": "numberOfTokens",
                    "type": "uint256"
                },
                {
                    "internalType": "bytes32[]",
                    "name": "proof",
                    "type": "bytes32[]"
                }
            ],
            "name": "whitelistMint",
            "outputs": [],
            "stateMutability": "nonpayable",
            "type": "function"
        },
        {
            "inputs": [],
            "name": "withdrawAll",
            "outputs": [],
            "stateMutability": "nonpayable",
            "type": "function"
        }
    ],
    "bytecode": "60a0604052600b805460ff19169055600f805461ffff19169055620557306010553480156200002d57600080fd5b50604051620043a1380380620043a18339810160408190526200005091620001ff565b6040518060400160405280600c81526020016b11d95b9956141c9bda9958dd60a21b8152506040518060400160405280600381526020016204758560ec1b815250848282828080620000b1620000ab6200010560201b60201c565b62000109565b60601b6001600160601b03191660805250508151620000d890600390602085019062000159565b508051620000ee90600490602084019062000159565b5050506009949094555050600a55506200027f9050565b3390565b600080546001600160a01b038381166001600160a01b0319831681178455604051919092169283917f8be0079c531659141344cd1fd0a4f28419497f9722a3daafe3b4186f6b6457e09190a35050565b828054620001679062000242565b90600052602060002090601f0160209004810192826200018b5760008555620001d6565b82601f10620001a657805160ff1916838001178555620001d6565b82800160010185558215620001d6579182015b82811115620001d6578251825591602001919060010190620001b9565b50620001e4929150620001e8565b5090565b5b80821115620001e45760008155600101620001e9565b60008060006060848603121562000214578283fd5b83516001600160a01b03811681146200022b578384fd5b602085015160409095015190969495509392505050565b600181811c908216806200025757607f821691505b602082108114156200027957634e487b7160e01b600052602260045260246000fd5b50919050565b60805160601c6140b6620002eb600039600081816106ff015281816108ff01528181610b9601528181610de501528181610e8d015281816112330152818161186e01528181611a4401528181611b8a015281816121f1015281816127340152612e6f01526140b66000f3fe6080604052600436106102ad5760003560e01c8063715018a611610175578063bbaac02f116100dc578063e1d4c87011610095578063f19e75d41161006f578063f19e75d41461087c578063f2fde38b1461089c578063f577ae00146108bc578063f5ecbdbc146108dc57600080fd5b8063e1d4c870146107fd578063e985e9c514610813578063eb8d72b71461085c57600080fd5b8063bbaac02f14610757578063c87b56dd14610777578063cbed8b9c14610797578063cf89fa03146107b7578063d1deba1f146107ca578063d2cab056146107dd57600080fd5b8063982ae23d1161012e578063982ae23d146106a3578063a22cb465146106b8578063a475b5dd146106d8578063b353aaa7146106ed578063b6c7ecf514610721578063b88d4fde1461073757600080fd5b8063715018a6146106065780637533d7881461061b5780637cb647591461063b578063853828b61461065b5780638da5cb5b1461067057806395d89b411461068e57600080fd5b80633a85f7d81161021957806355f804b3116101d257806355f804b3146105135780635b8c41e6146105335780636352211e1461059057806366ad5c8a146105b05780636aa99da3146105d057806370a08231146105e657600080fd5b80633a85f7d8146104675780633d8b38f61461048657806342842e0e146104a657806342d65a8d146104c657806351830227146104e6578063519056361461050057600080fd5b8063095ea7b31161026b578063095ea7b3146103985780630e7a609d146103b857806310ddb137146103d257806323b872dd146103f25780632a205e3d146104125780632db115441461044757600080fd5b80621d3567146102b25780630135a4f9146102d457806301ffc9a7146102e957806306fdde031461031e57806307e0db1714610340578063081812fc14610360575b600080fd5b3480156102be57600080fd5b506102d26102cd366004613838565b6108fc565b005b3480156102e057600080fd5b506102d2610a60565b3480156102f557600080fd5b506103096103043660046135f5565b610a9e565b60405190151581526020015b60405180910390f35b34801561032a57600080fd5b50610333610ac1565b6040516103159190613b39565b34801561034c57600080fd5b506102d261035b3660046136e4565b610b53565b34801561036c57600080fd5b5061038061037b3660046135dd565b610bf7565b6040516001600160a01b039091168152602001610315565b3480156103a457600080fd5b506102d26103b33660046135b2565b610c8c565b3480156103c457600080fd5b50600f546103099060ff1681565b3480156103de57600080fd5b506102d26103ed3660046136e4565b610da2565b3480156103fe57600080fd5b506102d261040d36600461341f565b610e1c565b34801561041e57600080fd5b5061043261042d36600461374e565b610e4e565b60408051928352602083019190915201610315565b34801561045357600080fd5b506102d26104623660046135dd565b610f28565b34801561047357600080fd5b50600f5461030990610100900460ff1681565b34801561049257600080fd5b506103096104a13660046136fe565b61110b565b3480156104b257600080fd5b506102d26104c136600461341f565b6111d7565b3480156104d257600080fd5b506102d26104e13660046136fe565b6111f2565b3480156104f257600080fd5b50600b546103099060ff1681565b6102d261050e3660046134fc565b6112a3565b34801561051f57600080fd5b506102d261052e36600461369f565b6112b2565b34801561053f57600080fd5b5061058261054e3660046137d9565b6002602090815260009384526040808520845180860184018051928152908401958401959095209452929052825290205481565b604051908152602001610315565b34801561059c57600080fd5b506103806105ab3660046135dd565b6112ef565b3480156105bc57600080fd5b506102d26105cb366004613838565b611366565b3480156105dc57600080fd5b5061058260095481565b3480156105f257600080fd5b5061058261060136600461339e565b6113d6565b34801561061257600080fd5b506102d261145d565b34801561062757600080fd5b506103336106363660046136e4565b611493565b34801561064757600080fd5b506102d26106563660046135dd565b61152d565b34801561066757600080fd5b506102d261155c565b34801561067c57600080fd5b506000546001600160a01b0316610380565b34801561069a57600080fd5b506103336115af565b3480156106af57600080fd5b506102d26115be565b3480156106c457600080fd5b506102d26106d33660046134c8565b611605565b3480156106e457600080fd5b506102d2611610565b3480156106f957600080fd5b506103807f000000000000000000000000000000000000000000000000000000000000000081565b34801561072d57600080fd5b50610582600e5481565b34801561074357600080fd5b506102d261075236600461345f565b611649565b34801561076357600080fd5b506102d261077236600461369f565b61167b565b34801561078357600080fd5b506103336107923660046135dd565b6116b8565b3480156107a357600080fd5b506102d26107b23660046138fd565b61182d565b6102d26107c5366004613969565b6118e4565b6102d26107d8366004613838565b611c02565b3480156107e957600080fd5b506102d26107f8366004613984565b611d54565b34801561080957600080fd5b50610582600a5481565b34801561081f57600080fd5b5061030961082e3660046133e7565b6001600160a01b03918216600090815260086020908152604080832093909416825291909152205460ff1690565b34801561086857600080fd5b506102d26108773660046136fe565b611fe6565b34801561088857600080fd5b506102d26108973660046135dd565b61206f565b3480156108a857600080fd5b506102d26108b736600461339e565b6120f9565b3480156108c857600080fd5b506102d26108d73660046135dd565b612191565b3480156108e857600080fd5b506103336108f73660046138b1565b6121c0565b337f00000000000000000000000000000000000000000000000000000000000000006001600160a01b03161461093157600080fd5b61ffff84166000908152600160205260408120805461094f90613f94565b80601f016020809104026020016040519081016040528092919081815260200182805461097b90613f94565b80156109c85780601f1061099d576101008083540402835291602001916109c8565b820191906000526020600020905b8154815290600101906020018083116109ab57829003601f168201915b50505050509050805184511480156109ed575080805190602001208480519060200120145b610a4d5760405162461bcd60e51b815260206004820152602660248201527f4c7a4170703a20696e76616c696420736f757263652073656e64696e6720636f6044820152651b9d1c9858dd60d21b60648201526084015b60405180910390fd5b610a5985858585612282565b5050505050565b6000546001600160a01b03163314610a8a5760405162461bcd60e51b8152600401610a4490613c04565b600f805460ff19811660ff90911615179055565b60006001600160e01b031982161580610abb5750610abb82612373565b92915050565b606060038054610ad090613f94565b80601f0160208091040260200160405190810160405280929190818152602001828054610afc90613f94565b8015610b495780601f10610b1e57610100808354040283529160200191610b49565b820191906000526020600020905b815481529060010190602001808311610b2c57829003601f168201915b5050505050905090565b6000546001600160a01b03163314610b7d5760405162461bcd60e51b8152600401610a4490613c04565b6040516307e0db1760e01b815261ffff821660048201527f00000000000000000000000000000000000000000000000000000000000000006001600160a01b0316906307e0db17906024015b600060405180830381600087803b158015610be357600080fd5b505af1158015610a59573d6000803e3d6000fd5b6000818152600560205260408120546001600160a01b0316610c705760405162461bcd60e51b815260206004820152602c60248201527f4552433732313a20617070726f76656420717565727920666f72206e6f6e657860448201526b34b9ba32b73a103a37b5b2b760a11b6064820152608401610a44565b506000908152600760205260409020546001600160a01b031690565b6000610c97826112ef565b9050806001600160a01b0316836001600160a01b03161415610d055760405162461bcd60e51b815260206004820152602160248201527f4552433732313a20617070726f76616c20746f2063757272656e74206f776e656044820152603960f91b6064820152608401610a44565b336001600160a01b0382161480610d215750610d21813361082e565b610d935760405162461bcd60e51b815260206004820152603860248201527f4552433732313a20617070726f76652063616c6c6572206973206e6f74206f7760448201527f6e6572206e6f7220617070726f76656420666f7220616c6c00000000000000006064820152608401610a44565b610d9d83836123b3565b505050565b6000546001600160a01b03163314610dcc5760405162461bcd60e51b8152600401610a4490613c04565b6040516310ddb13760e01b815261ffff821660048201527f00000000000000000000000000000000000000000000000000000000000000006001600160a01b0316906310ddb13790602401610bc9565b610e27335b82612421565b610e435760405162461bcd60e51b8152600401610a4490613c39565b610d9d838383612514565b60008060008686604051602001610e66929190613b4c565b60408051601f198184030181529082905263040a7bb160e41b825291506001600160a01b037f000000000000000000000000000000000000000000000000000000000000000016906340a7bb1090610eca908b90309086908b908b90600401613c8a565b604080518083038186803b158015610ee157600080fd5b505afa158015610ef5573d6000803e3d6000fd5b505050506040513d601f19601f82011682018060405250810190610f1991906139fd565b92509250509550959350505050565b333214610f6c5760405162461bcd60e51b81526020600482015260126024820152712737ba1030b63637bbb2b21037b934b3b4b760711b6044820152606401610a44565b600f5460ff16610fb55760405162461bcd60e51b815260206004820152601460248201527314d85b19481a185d995b89dd081cdd185c9d195960621b6044820152606401610a44565b6002811115610ffb5760405162461bcd60e51b8152602060048201526012602482015271151bdbc81b585b9e481c995c5d595cdd195960721b6044820152606401610a44565b600a5460018260095461100e9190613f25565b6110189190613f51565b111561105d5760405162461bcd60e51b81526020600482015260146024820152734578636565647320746f74616c20737570706c7960601b6044820152606401610a44565b3360009081526011602052604090205460029061107b908390613f25565b11156110bd5760405162461bcd60e51b81526020600482015260116024820152704578636565647320616c6c6f77616e636560781b6044820152606401610a44565b33600090815260116020526040812080548392906110dc908490613f25565b90915550600090505b81811015611107576110f56126b0565b806110ff81613fcf565b9150506110e5565b5050565b61ffff83166000908152600160205260408120805482919061112c90613f94565b80601f016020809104026020016040519081016040528092919081815260200182805461115890613f94565b80156111a55780601f1061117a576101008083540402835291602001916111a5565b820191906000526020600020905b81548152906001019060200180831161118857829003601f168201915b5050505050905083836040516111bc929190613a91565b60405180910390208180519060200120149150509392505050565b610d9d83838360405180602001604052806000815250611649565b6000546001600160a01b0316331461121c5760405162461bcd60e51b8152600401610a4490613c04565b6040516342d65a8d60e01b81526001600160a01b037f000000000000000000000000000000000000000000000000000000000000000016906342d65a8d9061126c90869086908690600401613cde565b600060405180830381600087803b15801561128657600080fd5b505af115801561129a573d6000803e3d6000fd5b50505050505050565b61129a878787878787876126d3565b6000546001600160a01b031633146112dc5760405162461bcd60e51b8152600401610a4490613c04565b805161110790600c9060208401906131c7565b6000818152600560205260408120546001600160a01b031680610abb5760405162461bcd60e51b815260206004820152602960248201527f4552433732313a206f776e657220717565727920666f72206e6f6e657869737460448201526832b73a103a37b5b2b760b91b6064820152608401610a44565b3330146113c45760405162461bcd60e51b815260206004820152602660248201527f4e6f6e626c6f636b696e674c7a4170703a2063616c6c6572206d7573742062656044820152650204c7a4170760d41b6064820152608401610a44565b6113d08484848461282a565b50505050565b60006001600160a01b0382166114415760405162461bcd60e51b815260206004820152602a60248201527f4552433732313a2062616c616e636520717565727920666f7220746865207a65604482015269726f206164647265737360b01b6064820152608401610a44565b506001600160a01b031660009081526006602052604090205490565b6000546001600160a01b031633146114875760405162461bcd60e51b8152600401610a4490613c04565b6114916000612857565b565b600160205260009081526040902080546114ac90613f94565b80601f01602080910402602001604051908101604052809291908181526020018280546114d890613f94565b80156115255780601f106114fa57610100808354040283529160200191611525565b820191906000526020600020905b81548152906001019060200180831161150857829003601f168201915b505050505081565b6000546001600160a01b031633146115575760405162461bcd60e51b8152600401610a4490613c04565b600e55565b6000546001600160a01b031633146115865760405162461bcd60e51b8152600401610a4490613c04565b478061159157600080fd5b6115ac6115a66000546001600160a01b031690565b826128a7565b50565b606060048054610ad090613f94565b6000546001600160a01b031633146115e85760405162461bcd60e51b8152600401610a4490613c04565b600f805461ff001981166101009182900460ff1615909102179055565b61110733838361293d565b6000546001600160a01b0316331461163a5760405162461bcd60e51b8152600401610a4490613c04565b600b805460ff19166001179055565b6116533383612421565b61166f5760405162461bcd60e51b8152600401610a4490613c39565b6113d084848484612a0c565b6000546001600160a01b031633146116a55760405162461bcd60e51b8152600401610a4490613c04565b805161110790600d9060208401906131c7565b6000818152600560205260409020546060906001600160a01b03166117385760405162461bcd60e51b815260206004820152603060248201527f4f4e46543732314d657461646174613a2055524920717565727920666f72206e60448201526f37b732bc34b9ba32b73a103a37b5b2b760811b6064820152608401610a44565b600b5460ff166117d457600d805461174f90613f94565b80601f016020809104026020016040519081016040528092919081815260200182805461177b90613f94565b80156117c85780601f1061179d576101008083540402835291602001916117c8565b820191906000526020600020905b8154815290600101906020018083116117ab57829003601f168201915b50505050509050919050565b6117dc612a3f565b516117f65760405180602001604052806000815250610abb565b6117fe612a3f565b61180783612a4e565b604051602001611818929190613abd565b60405160208183030381529060405292915050565b6000546001600160a01b031633146118575760405162461bcd60e51b8152600401610a4490613c04565b6040516332fb62e760e21b81526001600160a01b037f0000000000000000000000000000000000000000000000000000000000000000169063cbed8b9c906118ab9088908890889088908890600401613ea0565b600060405180830381600087803b1580156118c557600080fd5b505af11580156118d9573d6000803e3d6000fd5b505050505050505050565b6118ed816112ef565b6001600160a01b0316336001600160a01b03161461194d5760405162461bcd60e51b815260206004820152601860248201527f596f7520646f6e2774206f776e2074686973204f4e46542e00000000000000006044820152606401610a44565b61ffff82166000908152600160205260408120805461196b90613f94565b9050116119e05760405162461bcd60e51b815260206004820152603c60248201527f596f752063616e6e6f74206d616b6520796f7572204f4e465420746f2074726160448201527f76656c20746f207468697320636861696e207269676874206e6f772e000000006064820152608401610a44565b6119e981612b67565b60408051336020820152808201839052815180820383018152606082018352601054600160f01b60808401526082808401919091528351808403909101815260a283019384905263040a7bb160e41b909352916001916000907f00000000000000000000000000000000000000000000000000000000000000006001600160a01b0316906340a7bb1090611a89908990309089908790899060a601613c8a565b604080518083038186803b158015611aa057600080fd5b505afa158015611ab4573d6000803e3d6000fd5b505050506040513d601f19601f82011682018060405250810190611ad891906139fd565b50905080341015611b615760405162461bcd60e51b815260206004820152604760248201527f47473a206d73672e76616c7565206e6f7420656e6f75676820746f20636f766560448201527f72206d6573736167654665652e2053656e642067617320666f72206d657373616064820152666765206665657360c81b608482015260a401610a44565b61ffff8616600090815260016020526040808220905162c5803160e81b81526001600160a01b037f0000000000000000000000000000000000000000000000000000000000000000169263c5803100923492611bc8928c92918b9133918b90600401613dac565b6000604051808303818588803b158015611be157600080fd5b505af1158015611bf5573d6000803e3d6000fd5b5050505050505050505050565b61ffff84166000908152600260205260408082209051611c23908690613aa1565b90815260408051602092819003830190206001600160401b03861660009081529252902054905080611ca35760405162461bcd60e51b815260206004820152602360248201527f4e6f6e626c6f636b696e674c7a4170703a206e6f2073746f726564206d65737360448201526261676560e81b6064820152608401610a44565b815160208301208114611d025760405162461bcd60e51b815260206004820152602160248201527f4e6f6e626c6f636b696e674c7a4170703a20696e76616c6964207061796c6f616044820152601960fa1b6064820152608401610a44565b61ffff85166000908152600260205260408082209051611d23908790613aa1565b90815260408051602092819003830190206001600160401b03871660009081529252902055610a598585858561282a565b333214611d985760405162461bcd60e51b81526020600482015260126024820152712737ba1030b63637bbb2b21037b934b3b4b760711b6044820152606401610a44565b600f54610100900460ff16611def5760405162461bcd60e51b815260206004820152601e60248201527f57686974656c6973742073616c65206973206e6f7420737461727465642e00006044820152606401610a44565b6002831115611e355760405162461bcd60e51b8152602060048201526012602482015271151bdbc81b585b9e481c995c5d595cdd195960721b6044820152606401610a44565b600a54600184600954611e489190613f25565b611e529190613f51565b1115611e705760405162461bcd60e51b8152600401610a4490613b6e565b33600090815260116020526040902054600290611e8e908590613f25565b1115611edc5760405162461bcd60e51b815260206004820152601c60248201527f4578636565647320616c6c6f776564206d696e74206e756d6265722e000000006044820152606401610a44565b604080513360601b6bffffffffffffffffffffffff19166020808301919091528251601481840301815260349092019092528051910120611f5090838380806020026020016040519081016040528093929190818152602001838360200280828437600092019190915250612c0292505050565b611f9c5760405162461bcd60e51b815260206004820152601760248201527f4d65726b6c652070726f6f662069732064656e6965642e0000000000000000006044820152606401610a44565b3360009081526011602052604081208054859290611fbb908490613f25565b90915550600090505b838110156113d057611fd46126b0565b80611fde81613fcf565b915050611fc4565b6000546001600160a01b031633146120105760405162461bcd60e51b8152600401610a4490613c04565b61ffff8316600090815260016020526040902061202e90838361324b565b507ffa41487ad5d6728f0b19276fa1eddc16558578f5109fc39d2dc33c3230470dab83838360405161206293929190613cde565b60405180910390a1505050565b6000546001600160a01b031633146120995760405162461bcd60e51b8152600401610a4490613c04565b600a546001826009546120ac9190613f25565b6120b69190613f51565b11156120d45760405162461bcd60e51b8152600401610a4490613b6e565b60005b81811015611107576120e76126b0565b806120f181613fcf565b9150506120d7565b6000546001600160a01b031633146121235760405162461bcd60e51b8152600401610a4490613c04565b6001600160a01b0381166121885760405162461bcd60e51b815260206004820152602660248201527f4f776e61626c653a206e6577206f776e657220697320746865207a65726f206160448201526564647265737360d01b6064820152608401610a44565b6115ac81612857565b6000546001600160a01b031633146121bb5760405162461bcd60e51b8152600401610a4490613c04565b601055565b604051633d7b2f6f60e21b815261ffff808616600483015284166024820152306044820152606481018290526060907f00000000000000000000000000000000000000000000000000000000000000006001600160a01b03169063f5ecbdbc9060840160006040518083038186803b15801561223b57600080fd5b505afa15801561224f573d6000803e3d6000fd5b505050506040513d6000823e601f3d908101601f19168201604052612277919081019061362d565b90505b949350505050565b604051633356ae4560e11b815230906366ad5c8a906122ab908790879087908790600401613d63565b600060405180830381600087803b1580156122c557600080fd5b505af19250505080156122d6575060015b6113d0578080519060200120600260008661ffff1661ffff1681526020019081526020016000208460405161230b9190613aa1565b9081526040805191829003602090810183206001600160401b0387166000908152915220919091557fe6f254030bcb01ffd20558175c13fcaed6d1520be7becee4c961b65f79243b0d90612366908690869086908690613d63565b60405180910390a16113d0565b60006001600160e01b031982166380ac58cd60e01b14806123a457506001600160e01b03198216635b5e139f60e01b145b80610abb5750610abb82612c18565b600081815260076020526040902080546001600160a01b0319166001600160a01b03841690811790915581906123e8826112ef565b6001600160a01b03167f8c5be1e5ebec7d5bd14f71427d1e84f3dd0314c0f7b2291e5b200ac8c7c3b92560405160405180910390a45050565b6000818152600560205260408120546001600160a01b031661249a5760405162461bcd60e51b815260206004820152602c60248201527f4552433732313a206f70657261746f7220717565727920666f72206e6f6e657860448201526b34b9ba32b73a103a37b5b2b760a11b6064820152608401610a44565b60006124a5836112ef565b9050806001600160a01b0316846001600160a01b031614806124e05750836001600160a01b03166124d584610bf7565b6001600160a01b0316145b8061227a57506001600160a01b0380821660009081526008602090815260408083209388168352929052205460ff1661227a565b826001600160a01b0316612527826112ef565b6001600160a01b03161461258b5760405162461bcd60e51b815260206004820152602560248201527f4552433732313a207472616e736665722066726f6d20696e636f72726563742060448201526437bbb732b960d91b6064820152608401610a44565b6001600160a01b0382166125ed5760405162461bcd60e51b8152602060048201526024808201527f4552433732313a207472616e7366657220746f20746865207a65726f206164646044820152637265737360e01b6064820152608401610a44565b6125f86000826123b3565b6001600160a01b0383166000908152600660205260408120805460019290612621908490613f51565b90915550506001600160a01b038216600090815260066020526040812080546001929061264f908490613f25565b909155505060008181526005602052604080822080546001600160a01b0319166001600160a01b0386811691821790925591518493918716917fddf252ad1be2c89b69c2b068fc378daa952ba7f163c4a11628f55a4df523b3ef91a4505050565b6126bc33600954612c4d565b600980549060006126cc83613fcf565b9190505550565b6126df87878787612c67565b600085856040516020016126f4929190613b4c565b60405160208183030381529060405290506127128782868686612d50565b604051630f428ae960e31b815261ffff881660048201523060248201526000907f00000000000000000000000000000000000000000000000000000000000000006001600160a01b031690637a1457489060440160206040518083038186803b15801561277e57600080fd5b505afa158015612792573d6000803e3d6000fd5b505050506040513d601f19601f820116820180604052508101906127b69190613a20565b9050866040516127c69190613aa1565b604080519182900382208883526001600160401b03841660208401529161ffff8b16916001600160a01b038d16917f024797cc77ce15dc717112d54fb1df125fdfd8c81344fb046c5e074427ce1543910160405180910390a4505050505050505050565b6000808280602001905181019061284191906133ba565b9150915061284f8282612c4d565b505050505050565b600080546001600160a01b038381166001600160a01b0319831681178455604051919092169283917f8be0079c531659141344cd1fd0a4f28419497f9722a3daafe3b4186f6b6457e09190a35050565b6000826001600160a01b03168260405160006040518083038185875af1925050503d80600081146128f4576040519150601f19603f3d011682016040523d82523d6000602084013e6128f9565b606091505b5050905080610d9d5760405162461bcd60e51b815260206004820152601060248201526f2a3930b739b332b9103330b4b632b21760811b6044820152606401610a44565b816001600160a01b0316836001600160a01b0316141561299f5760405162461bcd60e51b815260206004820152601960248201527f4552433732313a20617070726f766520746f2063616c6c6572000000000000006044820152606401610a44565b6001600160a01b03838116600081815260086020908152604080832094871680845294825291829020805460ff191686151590811790915591519182527f17307eab39ab6107e8899845ad3d59bd9653f200f220920489ca2b5937696c31910160405180910390a3505050565b612a17848484612514565b612a2384848484612eb0565b6113d05760405162461bcd60e51b8152600401610a4490613bb2565b6060600c8054610ad090613f94565b606081612a725750506040805180820190915260018152600360fc1b602082015290565b8160005b8115612a9c5780612a8681613fcf565b9150612a959050600a83613f3d565b9150612a76565b6000816001600160401b03811115612ac457634e487b7160e01b600052604160045260246000fd5b6040519080825280601f01601f191660200182016040528015612aee576020820181803683370190505b5090505b841561227a57612b03600183613f51565b9150612b10600a86613fea565b612b1b906030613f25565b60f81b818381518110612b3e57634e487b7160e01b600052603260045260246000fd5b60200101906001600160f81b031916908160001a905350612b60600a86613f3d565b9450612af2565b6000612b72826112ef565b9050612b7f6000836123b3565b6001600160a01b0381166000908152600660205260408120805460019290612ba8908490613f51565b909155505060008281526005602052604080822080546001600160a01b0319169055518391906001600160a01b038416907fddf252ad1be2c89b69c2b068fc378daa952ba7f163c4a11628f55a4df523b3ef908390a45050565b6000612c1182600e5485612fba565b9392505050565b60006001600160e01b03198216637bb0080b60e01b1480610abb57506301ffc9a760e01b6001600160e01b0319831614610abb565b611107828260405180602001604052806000815250612fd0565b612c7033610e21565b612cd35760405162461bcd60e51b815260206004820152602e60248201527f4f4e46543732313a2073656e642063616c6c6572206973206e6f74206f776e6560448201526d1c881b9bdc88185c1c1c9bdd995960921b6064820152608401610a44565b836001600160a01b0316612ce6826112ef565b6001600160a01b031614612d475760405162461bcd60e51b815260206004820152602260248201527f4f4e46543732313a2073656e642066726f6d20696e636f7272656374206f776e60448201526132b960f11b6064820152608401610a44565b6113d081612b67565b61ffff851660009081526001602052604081208054612d6e90613f94565b80601f0160208091040260200160405190810160405280929190818152602001828054612d9a90613f94565b8015612de75780601f10612dbc57610100808354040283529160200191612de7565b820191906000526020600020905b815481529060010190602001808311612dca57829003601f168201915b50505050509050805160001415612e595760405162461bcd60e51b815260206004820152603060248201527f4c7a4170703a2064657374696e6174696f6e20636861696e206973206e6f742060448201526f61207472757374656420736f7572636560801b6064820152608401610a44565b60405162c5803160e81b81526001600160a01b037f0000000000000000000000000000000000000000000000000000000000000000169063c5803100903490611bc8908a9086908b908b908b908b90600401613cfc565b60006001600160a01b0384163b15612fb257604051630a85bd0160e11b81526001600160a01b0385169063150b7a0290612ef4903390899088908890600401613afc565b602060405180830381600087803b158015612f0e57600080fd5b505af1925050508015612f3e575060408051601f3d908101601f19168201909252612f3b91810190613611565b60015b612f98573d808015612f6c576040519150601f19603f3d011682016040523d82523d6000602084013e612f71565b606091505b508051612f905760405162461bcd60e51b8152600401610a4490613bb2565b805181602001fd5b6001600160e01b031916630a85bd0160e11b14905061227a565b50600161227a565b600082612fc78584613003565b14949350505050565b612fda8383613085565b612fe76000848484612eb0565b610d9d5760405162461bcd60e51b8152600401610a4490613bb2565b600081815b845181101561307d57600085828151811061303357634e487b7160e01b600052603260045260246000fd5b60200260200101519050808311613059576000838152602082905260409020925061306a565b600081815260208490526040902092505b508061307581613fcf565b915050613008565b509392505050565b6001600160a01b0382166130db5760405162461bcd60e51b815260206004820181905260248201527f4552433732313a206d696e7420746f20746865207a65726f20616464726573736044820152606401610a44565b6000818152600560205260409020546001600160a01b0316156131405760405162461bcd60e51b815260206004820152601c60248201527f4552433732313a20746f6b656e20616c7265616479206d696e746564000000006044820152606401610a44565b6001600160a01b0382166000908152600660205260408120805460019290613169908490613f25565b909155505060008181526005602052604080822080546001600160a01b0319166001600160a01b03861690811790915590518392907fddf252ad1be2c89b69c2b068fc378daa952ba7f163c4a11628f55a4df523b3ef908290a45050565b8280546131d390613f94565b90600052602060002090601f0160209004810192826131f5576000855561323b565b82601f1061320e57805160ff191683800117855561323b565b8280016001018555821561323b579182015b8281111561323b578251825591602001919060010190613220565b506132479291506132bf565b5090565b82805461325790613f94565b90600052602060002090601f016020900481019282613279576000855561323b565b82601f106132925782800160ff1982351617855561323b565b8280016001018555821561323b579182015b8281111561323b5782358255916020019190600101906132a4565b5b8082111561324757600081556001016132c0565b60006132e76132e284613efe565b613ece565b90508281528383830111156132fb57600080fd5b828260208301376000602084830101529392505050565b8035801515811461332257600080fd5b919050565b60008083601f840112613338578182fd5b5081356001600160401b0381111561334e578182fd5b60208301915083602082850101111561336657600080fd5b9250929050565b600082601f83011261337d578081fd5b612c11838335602085016132d4565b803561ffff8116811461332257600080fd5b6000602082840312156133af578081fd5b8135612c1181614040565b600080604083850312156133cc578081fd5b82516133d781614040565b6020939093015192949293505050565b600080604083850312156133f9578182fd5b823561340481614040565b9150602083013561341481614040565b809150509250929050565b600080600060608486031215613433578081fd5b833561343e81614040565b9250602084013561344e81614040565b929592945050506040919091013590565b60008060008060808587031215613474578081fd5b843561347f81614040565b9350602085013561348f81614040565b92506040850135915060608501356001600160401b038111156134b0578182fd5b6134bc8782880161336d565b91505092959194509250565b600080604083850312156134da578182fd5b82356134e581614040565b91506134f360208401613312565b90509250929050565b600080600080600080600060e0888a031215613516578485fd5b873561352181614040565b965061352f6020890161338c565b955060408801356001600160401b038082111561354a578687fd5b6135568b838c0161336d565b965060608a0135955060808a0135915061356f82614040565b90935060a08901359061358182614040565b90925060c08901359080821115613596578283fd5b506135a38a828b0161336d565b91505092959891949750929550565b600080604083850312156135c4578182fd5b82356135cf81614040565b946020939093013593505050565b6000602082840312156135ee578081fd5b5035919050565b600060208284031215613606578081fd5b8135612c1181614055565b600060208284031215613622578081fd5b8151612c1181614055565b60006020828403121561363e578081fd5b81516001600160401b03811115613653578182fd5b8201601f81018413613663578182fd5b80516136716132e282613efe565b818152856020838501011115613685578384fd5b613696826020830160208601613f68565b95945050505050565b6000602082840312156136b0578081fd5b81356001600160401b038111156136c5578182fd5b8201601f810184136136d5578182fd5b61227a848235602084016132d4565b6000602082840312156136f5578081fd5b612c118261338c565b600080600060408486031215613712578081fd5b61371b8461338c565b925060208401356001600160401b03811115613735578182fd5b61374186828701613327565b9497909650939450505050565b600080600080600060a08688031215613765578283fd5b61376e8661338c565b945060208601356001600160401b0380821115613789578485fd5b61379589838a0161336d565b9550604088013594506137aa60608901613312565b935060808801359150808211156137bf578283fd5b506137cc8882890161336d565b9150509295509295909350565b6000806000606084860312156137ed578081fd5b6137f68461338c565b925060208401356001600160401b03811115613810578182fd5b61381c8682870161336d565b925050604084013561382d8161406b565b809150509250925092565b6000806000806080858703121561384d578182fd5b6138568561338c565b935060208501356001600160401b0380821115613871578384fd5b61387d8883890161336d565b94506040870135915061388f8261406b565b909250606086013590808211156138a4578283fd5b506134bc8782880161336d565b600080600080608085870312156138c6578182fd5b6138cf8561338c565b93506138dd6020860161338c565b925060408501356138ed81614040565b9396929550929360600135925050565b600080600080600060808688031215613914578283fd5b61391d8661338c565b945061392b6020870161338c565b93506040860135925060608601356001600160401b0381111561394c578182fd5b61395888828901613327565b969995985093965092949392505050565b6000806040838503121561397b578182fd5b6135cf8361338c565b600080600060408486031215613998578081fd5b8335925060208401356001600160401b03808211156139b5578283fd5b818601915086601f8301126139c8578283fd5b8135818111156139d6578384fd5b8760208260051b85010111156139ea578384fd5b6020830194508093505050509250925092565b60008060408385031215613a0f578182fd5b505080516020909101519092909150565b600060208284031215613a31578081fd5b8151612c118161406b565b81835281816020850137506000828201602090810191909152601f909101601f19169091010190565b60008151808452613a7d816020860160208601613f68565b601f01601f19169290920160200192915050565b8183823760009101908152919050565b60008251613ab3818460208701613f68565b9190910192915050565b60008351613acf818460208801613f68565b835190830190613ae3818360208801613f68565b64173539b7b760d91b9101908152600501949350505050565b6001600160a01b0385811682528416602082015260408101839052608060608201819052600090613b2f90830184613a65565b9695505050505050565b602081526000612c116020830184613a65565b604081526000613b5f6040830185613a65565b90508260208301529392505050565b60208082526024908201527f4578636565647320746f74616c20737570706c7920666f72207468697320636860408201526330b4b71760e11b606082015260800190565b60208082526032908201527f4552433732313a207472616e7366657220746f206e6f6e20455243373231526560408201527131b2b4bb32b91034b6b83632b6b2b73a32b960711b606082015260800190565b6020808252818101527f4f776e61626c653a2063616c6c6572206973206e6f7420746865206f776e6572604082015260600190565b60208082526031908201527f4552433732313a207472616e736665722063616c6c6572206973206e6f74206f6040820152701ddb995c881b9bdc88185c1c1c9bdd9959607a1b606082015260800190565b61ffff861681526001600160a01b038516602082015260a060408201819052600090613cb890830186613a65565b84151560608401528281036080840152613cd28185613a65565b98975050505050505050565b61ffff84168152604060208201526000612277604083018486613a3c565b61ffff8716815260c060208201526000613d1960c0830188613a65565b8281036040840152613d2b8188613a65565b6001600160a01b0387811660608601528616608085015283810360a08501529050613d568185613a65565b9998505050505050505050565b61ffff85168152608060208201526000613d806080830186613a65565b6001600160401b03851660408401528281036060840152613da18185613a65565b979650505050505050565b61ffff871681526000602060c08184015281885483600182811c915080831680613dd757607f831692505b858310811415613df557634e487b7160e01b87526022600452602487fd5b60c0880183905260e08801818015613e145760018114613e2557613e4f565b60ff19861682528782019650613e4f565b60008f815260209020895b86811015613e4957815484820152908501908901613e30565b83019750505b5050505050508381036040850152613e678189613a65565b915050613e7f60608401876001600160a01b03169052565b6001600160a01b038516608084015282810360a0840152613d568185613a65565b600061ffff808816835280871660208401525084604083015260806060830152613da1608083018486613a3c565b604051601f8201601f191681016001600160401b0381118282101715613ef657613ef661402a565b604052919050565b60006001600160401b03821115613f1757613f1761402a565b50601f01601f191660200190565b60008219821115613f3857613f38613ffe565b500190565b600082613f4c57613f4c614014565b500490565b600082821015613f6357613f63613ffe565b500390565b60005b83811015613f83578181015183820152602001613f6b565b838111156113d05750506000910152565b600181811c90821680613fa857607f821691505b60208210811415613fc957634e487b7160e01b600052602260045260246000fd5b50919050565b6000600019821415613fe357613fe3613ffe565b5060010190565b600082613ff957613ff9614014565b500690565b634e487b7160e01b600052601160045260246000fd5b634e487b7160e01b600052601260045260246000fd5b634e487b7160e01b600052604160045260246000fd5b6001600160a01b03811681146115ac57600080fd5b6001600160e01b0319811681146115ac57600080fd5b6001600160401b03811681146115ac57600080fdfea2646970667358221220c97646f288caaa8b6f5e068eee83f255b557f3a4da3c29908144134f7c666e5064736f6c63430008040033",
    "sourcePath": "/Users/talhamb/Documents/omnigenex/contracts/GeneX/GeneXProject.sol",
    "compiler": {
        "name": "solc",
        "version": "0.8.4+commit.c7e474f2"
    },
    "functionHashes": {
        "PUBLIC_SALE_STATE()": "0e7a609d",
        "WL_SALE_STATE()": "3a85f7d8",
        "approve(address,uint256)": "095ea7b3",
        "balanceOf(address)": "70a08231",
        "bool_PUBLIC_SALE()": "0135a4f9",
        "bool_WL_SALE()": "982ae23d",
        "estimateSendFee(uint16,bytes,uint256,bool,bytes)": "2a205e3d",
        "failedMessages(uint16,bytes,uint64)": "5b8c41e6",
        "forceResumeReceive(uint16,bytes)": "42d65a8d",
        "getApproved(uint256)": "081812fc",
        "getConfig(uint16,uint16,address,uint256)": "f5ecbdbc",
        "isApprovedForAll(address,address)": "e985e9c5",
        "isTrustedRemote(uint16,bytes)": "3d8b38f6",
        "lzEndpoint()": "b353aaa7",
        "lzReceive(uint16,bytes,uint64,bytes)": "001d3567",
        "maxMintId()": "e1d4c870",
        "merkleroot()": "b6c7ecf5",
        "name()": "06fdde03",
        "nextMintId()": "6aa99da3",
        "nonblockingLzReceive(uint16,bytes,uint64,bytes)": "66ad5c8a",
        "owner()": "8da5cb5b",
        "ownerMint(uint256)": "f19e75d4",
        "ownerOf(uint256)": "6352211e",
        "publicMint(uint256)": "2db11544",
        "renounceOwnership()": "715018a6",
        "retryMessage(uint16,bytes,uint64,bytes)": "d1deba1f",
        "reveal()": "a475b5dd",
        "revealed()": "51830227",
        "safeTransferFrom(address,address,uint256)": "42842e0e",
        "safeTransferFrom(address,address,uint256,bytes)": "b88d4fde",
        "sendFrom(address,uint16,bytes,uint256,address,address,bytes)": "51905636",
        "setApprovalForAll(address,bool)": "a22cb465",
        "setBaseURI(string)": "55f804b3",
        "setConfig(uint16,uint16,uint256,bytes)": "cbed8b9c",
        "setGasLzReceive(uint256)": "f577ae00",
        "setHiddenURI(string)": "bbaac02f",
        "setMerkleRoot(bytes32)": "7cb64759",
        "setReceiveVersion(uint16)": "10ddb137",
        "setSendVersion(uint16)": "07e0db17",
        "setTrustedRemote(uint16,bytes)": "eb8d72b7",
        "supportsInterface(bytes4)": "01ffc9a7",
        "symbol()": "95d89b41",
        "tokenURI(uint256)": "c87b56dd",
        "transferFrom(address,address,uint256)": "23b872dd",
        "transferOwnership(address)": "f2fde38b",
        "traverseChains(uint16,uint256)": "cf89fa03",
        "trustedRemoteLookup(uint16)": "7533d788",
        "whitelistMint(uint256,bytes32[])": "d2cab056",
        "withdrawAll()": "853828b6"
    },
    "gasEstimates": {
        "creation": {
            "codeDepositCost": "3313200",
            "executionCost": "infinite",
            "totalCost": "infinite"
        },
        "external": {
            "PUBLIC_SALE_STATE()": "1067",
            "WL_SALE_STATE()": "1056",
            "approve(address,uint256)": "infinite",
            "balanceOf(address)": "1438",
            "bool_PUBLIC_SALE()": "21892",
            "bool_WL_SALE()": "21890",
            "estimateSendFee(uint16,bytes,uint256,bool,bytes)": "infinite",
            "failedMessages(uint16,bytes,uint64)": "infinite",
            "forceResumeReceive(uint16,bytes)": "infinite",
            "getApproved(uint256)": "2249",
            "getConfig(uint16,uint16,address,uint256)": "infinite",
            "isApprovedForAll(address,address)": "infinite",
            "isTrustedRemote(uint16,bytes)": "infinite",
            "lzEndpoint()": "infinite",
            "lzReceive(uint16,bytes,uint64,bytes)": "infinite",
            "maxMintId()": "1062",
            "merkleroot()": "1128",
            "name()": "infinite",
            "nextMintId()": "1128",
            "nonblockingLzReceive(uint16,bytes,uint64,bytes)": "infinite",
            "owner()": "1165",
            "ownerMint(uint256)": "infinite",
            "ownerOf(uint256)": "1345",
            "publicMint(uint256)": "infinite",
            "renounceOwnership()": "23460",
            "retryMessage(uint16,bytes,uint64,bytes)": "infinite",
            "reveal()": "21897",
            "revealed()": "1133",
            "safeTransferFrom(address,address,uint256)": "infinite",
            "safeTransferFrom(address,address,uint256,bytes)": "infinite",
            "sendFrom(address,uint16,bytes,uint256,address,address,bytes)": "infinite",
            "setApprovalForAll(address,bool)": "23377",
            "setBaseURI(string)": "infinite",
            "setConfig(uint16,uint16,uint256,bytes)": "infinite",
            "setGasLzReceive(uint256)": "21174",
            "setHiddenURI(string)": "infinite",
            "setMerkleRoot(bytes32)": "21154",
            "setReceiveVersion(uint16)": "infinite",
            "setSendVersion(uint16)": "infinite",
            "setTrustedRemote(uint16,bytes)": "infinite",
            "supportsInterface(bytes4)": "infinite",
            "symbol()": "infinite",
            "tokenURI(uint256)": "infinite",
            "transferFrom(address,address,uint256)": "infinite",
            "transferOwnership(address)": "infinite",
            "traverseChains(uint16,uint256)": "infinite",
            "trustedRemoteLookup(uint16)": "infinite",
            "whitelistMint(uint256,bytes32[])": "infinite",
            "withdrawAll()": "infinite"
        },
        "internal": {
            "_baseURI()": "infinite",
            "_leafHash(address)": "infinite",
            "_nonblockingLzReceive(uint16,bytes memory,uint64,bytes memory)": "infinite",
            "_verifyHash(bytes32,bytes32[] memory)": "infinite",
            "_withdraw(address,uint256)": "infinite",
            "mint()": "infinite"
        }
    }
}